:100000000C9449000C94E0080C94C7070C94A409C4
:100010000C94A4090C94A4090C94A4090C94A409AC
:100020000C94A4090C94A4090C945F020C94A409E8
:100030000C94A4090C94A4090C94A4090C94A4098C
:100040000C9433070C94A4090C9425060C94A40971
:100050000C94A4090C9473000C94A4090C94A409A6
:100060000C94A4090C94A40905A84CCDB2D44EB9A3
:100070003836A9020C50B9918688083CA6AAAA2A4B
:10008000BE000000803F01000124800124012900FE
:10009000134C11241FBECFEFD8E0DEBFCDBFE6E882
:1000A000F0E040E017C0B591A591359125910591FB
:1000B00007FD0CC095918591EF01F92FE82F059070
:1000C0000D92A217B307D9F7FE0104C01D92A21723
:1000D000B307E1F7E239F40731F70E94F7020C9415
:0600E0007100F894FFCF4F
:1000E6001F920F920FB60F921124CF92DF92EF92CA
:1000F600FF922F933F934F935F936F937F938F93CB
:100106009F93AF93BF93CF93DF93EF93FF9380912A
:100116000001811146C06091780070917900C0910C
:100126001D01D0911E0180E090E00E9464062DEC36
:100136003CEC4CE45DE30E949D096B017C01BE0131
:1001460080E090E00E94640623E333E343E75FE345
:100156000E949D099B01AC01C701B6010E946C0972
:100166000E94D90670931E0160931D0160911D01C6
:1001760070911E0180E090E00E94640626E636EA51
:1001860040E753E40E949D0920E030E040E85AE34E
:100196000E949D090E94D90670930A016093090185
:1001A600A8C0813009F0A0C08091050181114EC020
:1001B600C0917800D091790023E333E343E75FE30E
:1001C600609120017091210180912201909123017B
:1001D6000E949D096B017C01BE0180E090E00E94B7
:1001E60064062DEC3CEC4CE45DE30E949D099B010A
:1001F600AC01C701B6010E946C096B017C016093DA
:100206002001709321018093220190932301609134
:10021600090170910A0180E090E00E946406A7013E
:1002260096010E949D0920E030E040E85AE30E94D2
:100236009D090E94D90660930F0181E480937C009A
:10024600809105018F5F8093050153C0609178000E
:1002560070917900C0911D01D0911E0180E090E05F
:100266000E9464062DEC3CEC4CE45DE30E949D0983
:100276006B017C01BE0180E090E00E94640623E3EE
:1002860033E343E75FE30E949D099B01AC01C7018D
:10029600B6010E946C090E94D90670931E016093F4
:1002A6001D0160911D0170911E0180E090E00E9489
:1002B600640626E636EA40E753E40E949D0920E0FC
:1002C60030E040E85AE30E949D090E94D9067093E7
:1002D6000A016093090180E480937C008091050106
:1002E60081508093050105C01092000181E480933E
:1002F6007C00EAE7F0E0808180618083FF91EF91E6
:10030600DF91CF91BF91AF919F918F917F916F9127
:100316005F914F913F912F91FF90EF90DF90CF909B
:0A0326000F900FBE0F901F90189566
:100330004F925F926F927F928F929F92AF92BF92F5
:10034000CF92DF92EF92FF92CF93DF93C09109019A
:10035000D0910A01C09001016091010170E080E03C
:1003600090E00E9466062BED3FE049E450E40E94D5
:100370009D0920E030E044EB52E40E9499090E947C
:100380005B094B015C01D12CE12CF12CC701B601BA
:100390000E9466062BED3FE049E450E40E949D096F
:1003A00020E030E044EB52E40E949909A501940159
:1003B0000E946B090E949C054B015C01F0900101B9
:1003C0006091010170E080E090E00E9466062BEDF4
:1003D0003FE049E450E40E949D0920E030E044E31E
:1003E00053E40E9499099B01AC010E946C090E9490
:1003F0005B092B013C016F2D70E080E090E00E94D2
:1004000066062BED3FE049E450E40E949D0920E0A0
:1004100030E044E353E40E9499099B01AC016BED89
:100420007FE089E490E40E946B092FE73FE64DE806
:1004300051E40E949D096B017C0120E030E0A9019C
:10044000C301B2010E949D099B01AC01C701B60125
:100450000E946C096B017C01BE0180E090E00E946B
:10046000640625EC3FED42EE5FE30E949D0923EF19
:1004700034E045EB5FE30E949D09A50194010E94D1
:100480009D092BED3FE049EC50E40E9499099B0146
:10049000AC01C701B6010E946C090E94D906CB01CC
:1004A000DF91CF91FF90EF90DF90CF90BF90AF9012
:0E04B0009F908F907F906F905F904F90089577
:1004BE001F920F920FB60F9211242F933F934F93CB
:1004CE005F936F937F938F939F93AF93BF93EF93AE
:1004DE00FF93809127018130F9F4E1E8F0E080810B
:1004EE008F7B80838091190190911A01A0911B013D
:1004FE00B0911C0180930B0190930C01A0930D0100
:10050E00B0930E0110928500109284008091270105
:10051E008F5F8093270153C0209186003091870012
:10052E00ACECBCE00E941109AC016627772788EE7F
:10053E0093E0A0E0B0E0841B950BA60BB70B809365
:10054E00190190931A01A0931B01B0931C014091C5
:10055E00190150911A0160911B0170911C0180913B
:10056E000B0190910C01A0910D01B0910E01841719
:10057E009507A607B70748F08091190190911A01C7
:10058E00A0911B01B0911C0108C0809114019091A3
:10059E001501A0911601B09117018093140190934B
:1005AE001501A0931601B0931701E1E8F0E08081E8
:1005BE008064808380912701815080932701FF9171
:1005CE00EF91BF91AF919F918F917F916F915F91BD
:1005DE004F913F912F910F900FBE0F901F90189536
:1005EE00F8940E9402090E94FD070E94CE080E9404
:1005FE0043080E942E090E94E40780E18AB978948C
:10060E006FE071E080E690E00E94A90880931301EC
:10061E00C1E8D0E000E211E00F2EF8EECF2EF3E0AD
:10062E00DF2EE12CF12CF02D809102018431E1F7C7
:10063E0080910F01883320F080911801882349F0B2
:10064E00F894888188837894109226010093100183
:10065E001FC0F89488818260888378941093260155
:10066E0020911401309115014091160150911701FE
:10067E00A4EBB0E00E945009A70196010E94A507C5
:10068E00209301010E949801809310010E94E305BE
:10069E0080911001612F90E00E94810380910901E9
:1006AE0090910A0162E00E94810380911101909164
:1006BE00120163E00E94810380910F0164E090E0DB
:1006CE000E9481038091010165E090E00E94810308
:1006DE006091100170E080E090E00E944905609109
:1006EE000F0180E690E00E94A10680931301109204
:0406FE0002019ACF8C
:100702001F93CF93DF9300D000D0CDB7DEB7FC01AB
:10071200162F8AE289839F0136952795369527956C
:10072200ABE7B4E10E941109AC01569547959A01D5
:10073200ADECBCEC0E94110996958795969587952C
:10074200969587959C01220F331F880F991F880F5A
:10075200991F880F991F820F931F481B590B405DE9
:100762004A839F010E941109AC01569547955695FF
:100772004795569547959A010E9411099695879536
:1007820096958795969587959C01220F331F880F22
:10079200991F880F991F880F991F820F931F9A0123
:1007A200281B390BC901805D8B83CA01880F991FF1
:1007B200440F551F440F551F440F551F480F591F13
:1007C200E41BF50BE05DEC83123061F018F411309C
:1007D20031F010C0133049F0143051F00BC084E2F4
:1007E200898308C085E2898305C086E2898302C0C5
:1007F20080E4898364E070E0CE0101960E941508CE
:100802000F900F900F900F90DF91CF911F9108954D
:1008120010C00E94790958F00E94720940F029F430
:100822005F3F29F00C948E0951110C9481090C94AC
:10083200A1090E94830768F39923B1F3552391F329
:10084200951B550BBB27AA2762177307840738F03D
:100852009F5F5F4F220F331F441FAA1FA9F335D09A
:100862000E2E3AF0E0E832D091505040E695001C4E
:10087200CAF72BD0FE2F29D0660F771F881FBB1F08
:10088200261737074807AB07B0E809F0BB0B802DE6
:10089200BF01FF2793585F4F3AF09E3F510578F012
:1008A2000C948E090C9481095F3FE4F3983ED4F3D3
:1008B200869577956795B795F7959F5FC9F7880FE6
:1008C200911D9695879597F90895E1E0660F771F38
:1008D200881FBB1F621773078407BA0720F0621BC9
:0E08E200730B840BBA0BEE1F88F7E095089598
:1008F0000FC00E94720938F00E94790920F09523F8
:1009000011F00C948E090C94A10911240C94810906
:100910000E94830770F3959FC1F3950F50E0551F18
:10092000629FF001729FBB27F00DB11D639FAA2744
:10093000F00DB11DAA1F649F6627B00DA11D661F93
:10094000829F2227B00DA11D621F739FB00DA11DB4
:10095000621F839FA00D611D221F749F3327A00D6E
:10096000611D231F849F600D211D822F762F6A2F0A
:1009700011249F5750409AF0F1F088234AF0EE0F6F
:10098000FF1FBB1F661F771F881F91505040A9F79C
:100990009E3F510580F00C948E090C9481095F3FB5
:1009A000E4F3983ED4F3869577956795B795F795D8
:1009B000E7959F5FC1F7FE2B880F911D9695879550
:0409C00097F9089506
:1009C40011C00E94720938F00E94790920F039F4AC
:1009D4009F3F19F426F40C94A1090EF4E095E7FB6B
:1009E4000C948E09E92F0E94830758F3BA17620703
:1009F40073078407950720F079F4A6F50C94800911
:100A04000EF4E0950B2EBA2FA02D0B01B901900125
:100A14000C01CA01A0011124FF27591B99F0593F69
:100A240050F4503E68F11A16F040A22F232F342FB1
:100A34004427585FF3CF469537952795A795F040FF
:100A44005395C9F77EF41F16BA0B620B730B840B14
:100A5400BAF09150A1F0FF0FBB1F661F771F881FCC
:100A6400C2F70EC0BA0F621F731F841F48F4879524
:100A740077956795B795F7959E3F08F0B0CF939516
:0E0A8400880F08F09927EE0F97958795089533
:100A9200CF92DF92EF92FF921F93CF93DF9300D01A
:100AA20000D0CDB7DEB769837A838B839C830E94A3
:100AB200450989819A81AB81BC81892B8A2B8B2B39
:100AC20031F46091250181E00E943A0928C010E0CA
:100AD2000F2EFAE0CF2ED12CE12CF12CF02D6981D2
:100AE2007A818B819C811F5FA70196010E942C084D
:100AF200812F0E943A0969817A818B819C81A701A9
:100B020096010E942C0829833A834B835C83898156
:100B12009A81AB81BC81892B8A2B8B2B01F70F9099
:100B22000F900F900F90DF91CF911F91FF90EF9058
:060B3200DF90CF90089552
:100B380006C019F416F40C94A1090C9420090E941B
:100B48008B07B8F39923C9F3B6F39F57550B87FF63
:100B58000E9487090024A0E640EA90018058569533
:100B6800979528F4805C660F771F881F20F026175A
:100B78003707480730F4621B730B840B202931298F
:100B88004A2BA69517940794202531254A2758F70C
:100B9800660F771F881F20F026173707480730F49D
:100BA800620B730B840B200D311D411DA09581F73D
:0E0BB800B901842F9158880F9695879508955E
:100BC60020910F0130911001822F90E0831B910933
:100BD600D9F0409110016091090170910A0150E02D
:100BE6004F5F5F4F4617570778F4209111013091F8
:100BF600120163E070E00E948108260F371F3093D0
:100C0600120120931101089580911001409109016C
:100C160050910A0190E001968417950790F0409153
:100C2600090150910A01822F90E08417950748F434
:100C36008091110190911201449790931201809333
:040C460011010895FB
:100C4A001F920F920FB60F9211242F938F939F9397
:100C5A008091C6008093280180912801883789F005
:100C6A00813A19F08F3689F409C081E090E09093B7
:100C7A0008018093070110920F0119C01092180100
:100C8A0016C081E08093180112C08091280120913A
:100C9A00070190910F018053299F800D11248093A1
:100CAA000F018AE090E090930801809307019F91D9
:0E0CBA008F912F910F900FBE0F901F901895E5
:100CC800E89409C097FB3EF49095809570956195DE
:100CD8007F4F8F4F9F4F9923A9F0F92F96E9BB2794
:100CE8009395F695879577956795B795F111F8CF10
:100CF800FAF4BB0F11F460FF1BC06F5F7F4F8F4F7B
:100D08009F4F16C0882311F096E911C0772321F070
:100D18009EE8872F762F05C0662371F096E8862F08
:100D280070E060E02AF09A95660F771F881FDAF75F
:0A0D3800880F9695879597F90895A6
:100D42000F931F93CF93DF9300D0CDB7DEB76A83A3
:100D5200811524E0920710F58C011982BE016F5FA4
:100D62007F4F0E94A90881111CC08A81998198171E
:100D7200B9F06A81C8010E94BC08811112C0BE018B
:100D82006F5F7F4FC8010E94A90881110AC09A8132
:100D920081E02981291305C080E003C082E001C0FF
:100DA20080E00F900F90DF91CF911F910F910895E6
:100DB2000E948B0788F09F5798F0B92F9927B75157
:100DC200B0F0E1F0660F771F881F991F1AF0BA95ED
:100DD200C9F714C0B13091F00E948009B1E00895C2
:100DE2000C948009672F782F8827B85F39F0B93FB4
:100DF200CCF3869577956795B395D9F73EF49095A0
:0E0E02008095709561957F4F8F4F9F4F08959B
:100E10000E948B0710F40C94A109E894E0E0BB2732
:100E20009F57F0F02AED3FE049EC06C0EE0FBB0FF4
:100E3000661F771F881F28F0B23A6207730784077E
:100E400028F0B25A620B730B840BE3959A9572F7F4
:100E5000803830F49A95BB0F661F771F881FD2F732
:060E600090480C942209E9
:100E66001F920F920FB60F9211242F933F938F93D9
:100E76009F93809103019091040101969093040140
:100E860080930301209103013091040180911101A7
:100E9600909112012817390708F01BB88CEE86BD11
:100EA6009F918F913F912F910F900FBE0F901F90A2
:020EB60018958D
:100EB800DF93CF931F930F93FF92EF92DF927B0103
:100EC8008C01689406C0DA2EEF010E947804FE01B6
:100ED800E894A5912591359145915591A6F3EF0197
:100EE8000E94E204FE019701A801DA9469F7DF90F5
:0E0EF800EF90FF900F911F91CF91DF91089521
:100F060057FD9058440F551F59F05F3F71F04795B4
:100F1600880F97FB991F61F09F3F79F08795089599
:100F2600121613061406551FF2CF4695F1DF08C0B8
:100F3600161617061806991FF1CF869571056105D5
:040F4600089408956E
:100F4A00A1E21A2EAA1BBB1BFD010DC0AA1FBB1FC3
:100F5A00EE1FFF1FA217B307E407F50720F0A21B35
:100F6A00B30BE40BF50B661F771F881F991F1A94A2
:100F7A0069F760957095809590959B01AC01BD01CC
:040F8A00CF010895F6
:100F8E001F920F920FB60F9211248F938CEE86BD87
:100F9E0080912601882311F080E18BB91092040113
:100FAE0010920301809102018F5F809302018F9155
:0A0FBE000F900FBE0F901F901895C2
:100FC80084B18C6284B98CB582658CBD6FEF89E081
:100FD8000E943A096091240161508BE00E943A090D
:100FE80068E08AE00E943A0961E08CE00E943A09D0
:020FF80008955A
:100FFA0084B58E7F84BD84B58D7F84BD85B5877F9A
:10100A0085BDEEE6F0E08081816080838CEE86BD4E
:10101A0085B585BD85B5826085BD85B585BD0895D3
:10102A00CF93DF93161617067CF4DC01680F791F3D
:10103A00E0ECF0E0C6ECD0E0908195FFFDCF9D9109
:0E104A009883A617B707C1F7DF91CF910895DD
:10105800052E97FB1EF400940E94630957FD07D0E4
:101068000E94A50707FC03D04EF40C946309509521
:0E1078004095309521953F4F4F4F5F4F0895A3
:10108600ECE7F0E0808180648083808181608083EA
:10109600EAE7F0E080818F6A8083ABE7B0E08C916D
:0C10A60087608C938081806480830895B3
:1010B200EF93E0FF07C0A2EA2AED3FE049EC5FEBC5
:1010C2000E94E2040E94F1080F90039401FC9058E0
:0810D200E8E6F0E00C946D0863
:1010DA009F938F937F936F93FF93EF939B01AC0141
:1010EA000E949D09EF91FF910E945C072F913F9109
:0810FA004F915F910C949D09D8
:1011020097FB072E16F4009407D077FD09D00E94B2
:10111200950807FC05D03EF4909581959F4F089560
:08112200709561957F4F08955F
:10112A00AA1BBB1B51E107C0AA1FBB1FA617B70703
:10113A0010F0A61BB70B881F991F5A95A9F780951F
:08114A009095BC01CD01089550
:101152009C01211584E0380760F49FB3892F8270C7
:1011620091FDFBCF32BD21BDF89A90B5FB01908372
:06117200089582E00895DB
:101178009C01211584E0380758F49FB3892F8270A9
:1011880091FDFBCF32BD21BD60BDFA9AF99A089551
:0411980082E0089554
:10119C001092850010928400E1E8F0E08081806478
:1011AC008083AFE6B0E08C9181628C938081826009
:0411BC00808308958F
:1011C0001F920F920FB60F9211248F9380910001FE
:1011D0008F5F809300018F910F900FBE0F901F9033
:0211E000189560
:1011E200092E0394000C11F4882352F0BB0F40F433
:1011F200BF2B11F460FF04C06F5F7F4F8F4F9F4F73
:0212020008954D
:101204008BB18C608BB9E9E6F0E0808183608083E8
:0E1214008081886080838DB383608DBB0895D8
:10122200A29FB001B39FC001A39F700D811D112425
:0E123200911DB29F700D811D1124911D089514
:101240009F3F31F0915020F4879577956795B7953A
:0C125000880F911D9695879597F90895D9
:10125C001092C50087E68093C40088E98093C10092
:08126C008EE08093C20008959A
:10127400CF93C62F2A980E9494098C2F0E94940918
:061284002A9ACF910895A3
:10128A00CF93C09124016FE08C2F0E943A09C1507C
:06129A00D1F7CF91089589
:1012A0000E941109A59F900DB49F900DA49F800DE1
:0612B000911D11240895B8
:1012B6009F930E9408070F9007FCEE5F0C94590855
:1012C60090958095709561957F4F8F4F9F4F0895AC
:0E12D6005058BB27AA270E94E2040C94F1088E
:0E12E40000240A941616170618060906089527
:0E12F20000240A941216130614060506089529
:0E130000E894BB2766277727CB0197F908955D
:0E130E0091505040660F771F881FD2F7089548
:0C131C0097F99F6780E870E060E008959A
:0A1328008EBD0DB407FEFDCF089541
:081332000E9409040C94F1086B
:08133A000E9478040C94F108F4
:061342009FEF80EC08950E
:041348000C94000001
:01134C000898
:01134D003E61
:01134E00019D
:01134F00019C
:011350006F2D
:00000001FF
