:100000000C9459000C9400090C942C080C94D10900
:100010000C94D1090C94D1090C94D1090C94D109F8
:100020000C94D1090C94D1090C949E050C94D1091F
:100030000C94D1090C94D1090C94D1090C94D109D8
:100040000C945B070C94D1090C9447050C94D109CE
:100050000C94D1090C9483000C94D1090C94D1090F
:100060000C94D1090C94D10905A84CCDB2D44EB949
:100070003836A9020C50B9918688083CA6AAAA2A4B
:10008000BE000000803F010001040013A60104012E
:100090001280011201170013AA011701188001181C
:1000A000011A0013AF011A01208001200121001361
:1000B000B10011241FBECFEFD8E0DEBFCDBFE6E810
:1000C000F0E040E017C0B591A591359125910591DB
:1000D00007FD0CC095918591EF01F92FE82F059050
:1000E0000D92A217B307D9F7FE0104C01D92A21703
:1000F000B307E1F7E13BF40731F70E94C1020C942A
:060100008100F894FFCF1E
:100106001F920F920FB60F9211248F929F92AF9269
:10011600BF92CF92DF92EF92FF920F931F932F938E
:100126003F934F935F936F937F938F939F93AF9379
:10013600BF93CF93DF93EF93FF9380911D0181309F
:1001460009F44CC01CF4882341F01AC1823009F42A
:1001560048C0833009F4B9C013C16091780070912A
:100166007900C0910C01D0910D0180E090E00E94D1
:100176008D062FE832EC45EF5CE30E94CA096B015D
:100186007C01BE0180E090E00E948D062CEE31E5F8
:1001960048E75FE30E94CA099B01AC01C701B601AB
:1001A6000E9494090E94010770930D0160930C014F
:1001B60020910C0130910D0140EF429FC001439FF9
:1001C600900D1124892F9927869586959093130172
:1001D6008093120181E080931D01D4C010921D010D
:1001E600D1C0C0917800D0917900C0900001D09024
:1001F6000101E0900201F090030100910A011091C3
:100206000B01A701960160E070E080E89FE30E9481
:1002160093094B015C01B80180E090E00E948D06D5
:100226009B01AC01C501B4010E94CA094B015C01E6
:10023600BE0180E090E00E948D06A70196010E9413
:10024600CA099B01AC01C501B4010E9494090E9430
:10025600010770930B0160930A0120910A01309106
:100266000B0144E6429FC001439F900D1124892F44
:100276008695869580931E0140911E0180911201FC
:1002860090911301489F9001499F300D1124369596
:10029600279536952795ABE7B4E10E9431099695E7
:1002A600879580932001682F70E080E090E00E949F
:1002B600F305F894ECE7F0E08081808378948091F0
:1002C6001D018F5F80931D015DC0C0917800D091A4
:1002D6007900C0900001D0900101E0900201F090F9
:1002E600030100910C0110910D01A701960160E038
:1002F60070E080E89FE30E9493094B015C01B8011E
:1003060080E090E00E948D069B01AC01C501B4011E
:100316000E94CA094B015C01BE0180E090E00E9488
:100326008D06A70196010E94CA099B01AC01C50171
:10033600B4010E9494090E94010770930D01609315
:100346000C0120910C0130910D0140EF429FC0013C
:10035600439F900D1124892F992786958695909312
:10036600130180931201F894ECE7F0E0808181603C
:100376008083789480911D01815080931D0102C075
:1003860010921D01FF91EF91DF91CF91BF91AF9137
:100396009F918F917F916F915F914F913F912F9197
:1003A6001F910F91FF90EF90DF90CF90BF90AF908D
:0E03B6009F908F900F900FBE0F901F90189584
:1003C400CF92DF92FF920F931F93CF93DF9300D0CE
:1003D40000D01F92CDB7DEB78C01F62E9C01ADEC98
:1003E400BCEC0E943109AC0156954795569547954A
:1003F40056954795CA01880F991F440F551F440FFE
:10040400551F440F551F480F591F241B350BA901B5
:1004140098010E9431096C01D694C794D694C7946C
:10042400D694C79496010E943109FC01F695E7958C
:10043400F695E795F695E795CF01880F991FEE0F8E
:10044400FF1FEE0FFF1FEE0FFF1FE80FF91FC6017E
:100454008E1B9F0BFC0198013695279536952795A1
:10046400ABE7B4E10E9431098C0116950795980118
:10047400ADECBCEC0E9431099695879596958795CD
:10048400969587959C01220F331F880F991F880F1B
:10049400991F880F991F820F931FD801A81BB90BAE
:1004A400CD01B1E0FB120FC094E29983805D8A8391
:1004B400E05DEB83405D4C8364E070E0CE01019627
:1004C4000E945D084FC022E0F2120FC095E29983AA
:1004D400805D8A83E05DEB83405D4C8364E070E083
:1004E400CE0101960E945D083DC033E0F3120FC0B7
:1004F40096E29983805D8A83E05DEB83405D4C8363
:1005040064E070E0CE0101960E945D082BC0A4E077
:10051400FA120FC090E49983805D8A83E05DEB83D7
:10052400405D4C8364E070E0CE0101960E945D085A
:1005340019C0B5E0FB1216C09E012F5F3F4F95E036
:10054400D9011D929A95E9F79AE2998390E3980F5D
:100554009A83E05DEB83405D4C8365E070E0C90104
:100564000E945D080F900F900F900F900F90DF91F5
:0E057400CF911F910F91FF90DF90CF900895CF
:10058200F8940E9422090E9445080E94EE080E94E7
:100592008B080E944E090E94130880EC8AB91BB88E
:1005A200789460E271E080E690E00E94C90880934E
:1005B2001B010F2EF8EECF2EF3E0DF2EE12CF12CF3
:1005C200F02D80911A018431E1F7209104013091DC
:1005D20005014091060150910701A4EBB0E00E9491
:1005E2007009A70196010E94F10720931F010E9442
:1005F200380380931C010E94EB0480911C0161E08E
:1006020090E00E94E201809112019091130162E058
:100612000E94E2018091040190910501A0910601DE
:10062200B091070163E00E94E2018091200164E041
:1006320090E00E94E20180911F0165E090E00E943B
:10064200E201809118010E947B0960911C0170E017
:1006520080E090E00E94F3056091200180E690E046
:0E0662000E94CA0680931B0110921A01AACFB3
:100670008F929F92AF92BF92CF92DF92EF92FF92B2
:10068000CF93DF93C0911201D0911301C0901F014D
:1006900060911F0170E080E090E00E948F062BEDDA
:1006A0003FE049E450E40E94CA0920E030E044E31E
:1006B00053E40E94C6099B01AC010E9494090E9468
:1006C00083094B015C01D12CE12CF12CC701B6014F
:1006D0000E948F062BED3FE049E450E40E94CA09D6
:1006E00020E030E044E353E40E94C6099B01AC01E2
:1006F0000E949409A50194010E9493090E94460654
:100700006B017C01BE0180E090E00E948D0625EC2B
:100710003FED42EE5FE30E94CA0923EF34E045EB70
:100720005FE30E94CA09A70196010E94CA092BED46
:100730003FE049EC50E40E94C6090E940107CB014A
:10074000DF91CF91FF90EF90DF90CF90BF90AF906F
:060750009F908F900895B8
:1007560010C00E94A10958F00E949A0940F029F49D
:100766005F3F29F00C94B60951110C94A9090C9419
:10077600CE090E94CF0768F39923B1F3552391F36D
:10078600951B550BBB27AA2762177307840738F0FA
:100796009F5F5F4F220F331F441FAA1FA9F335D057
:1007A6000E2E3AF0E0E832D091505040E695001C0B
:1007B600CAF72BD0FE2F29D0660F771F881FBB1FC5
:1007C600261737074807AB07B0E809F0BB0B802DA3
:1007D600BF01FF2793585F4F3AF09E3F510578F0CF
:1007E6000C94B6090C94A9095F3FE4F3983ED4F340
:1007F600869577956795B795F7959F5FC9F7880FA3
:10080600911D9695879597F90895E1E0660F771FF4
:10081600881FBB1F621773078407BA0720F0621B85
:0E082600730B840BBA0BEE1F88F7E095089554
:100834000FC00E949A0938F00E94A10920F0952364
:1008440011F00C94B6090C94CE0911240C94A90946
:100854000E94CF0770F3959FC1F3950F50E0551F89
:10086400629FF001729FBB27F00DB11D639FAA2701
:10087400F00DB11DAA1F649F6627B00DA11D661F50
:10088400829F2227B00DA11D621F739FB00DA11D71
:10089400621F839FA00D611D221F749F3327A00D2B
:1008A400611D231F849F600D211D822F762F6A2FC7
:1008B40011249F5750409AF0F1F088234AF0EE0F2C
:1008C400FF1FBB1F661F771F881F91505040A9F759
:1008D4009E3F510580F00C94B6090C94A9095F3F22
:1008E400E4F3983ED4F3869577956795B795F79595
:1008F400E7959F5FC1F7FE2B880F911D969587950D
:0409040097F90895C2
:1009080011C00E949A0938F00E94A10920F039F418
:100918009F3F19F426F40C94CE090EF4E095E7FBFA
:100928000C94B609E92F0E94CF0758F3BA1762074B
:1009380073078407950720F079F4A6F50C94A809A5
:100948000EF4E0950B2EBA2FA02D0B01B9019001E2
:100958000C01CA01A0011124FF27591B99F0593F26
:1009680050F4503E68F11A16F040A22F232F342F6E
:100978004427585FF3CF469537952795A795F040BC
:100988005395C9F77EF41F16BA0B620B730B840BD1
:10099800BAF09150A1F0FF0FBB1F661F771F881F89
:1009A800C2F70EC0BA0F621F731F841F48F48795E1
:1009B80077956795B795F7959E3F08F0B0CF9395D3
:0E09C800880F08F09927EE0F979587950895F0
:1009D6001F93CF93DF931091200180911C01C12FAB
:1009E600D0E0C81BD109BE010D2E000C880B990B57
:1009F6000E948F0620E030E0A9010E94C1098823E9
:100A060011F180911C01209112013091130190E0A7
:100A1600019682179307B8F4C230D1051CF02FEF68
:100A26003FEF02C021E030E080910E0190910F016E
:100A3600CC0FDD1FC80FD91FC20FD31FD0930F01D4
:100A4600C0930E011DC080911C01209112013091AE
:100A5600130190E001968217930791F420911201F9
:100A660030911301812F90E08217930748F480910B
:100A76000E0190910F01449790930F0180930E0100
:080A8600DF91CF911F9108954B
:100A8E001F920F920FB60F9211242F933F934F93F5
:100A9E005F936F937F938F939F93AF93BF93EF93D8
:100AAE00FF938091C600809319018F3671F018F470
:100ABE008C3361F119C0883781F0813AA9F481E055
:100ACE00809317011092200121C08BE20E947B09B6
:100ADE00F89482E08DBB789419C08DE20E947B0958
:100AEE00F8941DBA789412C09091170120912001AC
:100AFE008053929F800D112480932001892F880F9F
:100B0E00982F990F990F890F80931701FF91EF91ED
:100B1E00BF91AF919F918F917F916F915F914F9107
:0E0B2E003F912F910F900FBE0F901F901895C2
:100B3C001F920F920FB60F9211242F933F934F9346
:100B4C005F936F937F938F939F93AF93BF93EF9329
:100B5C00FF9380911601882351F0E1E8F0E0808149
:100B6C008F7B808310928500109284001FC080912F
:100B7C008600909187009093110180931001209131
:100B8C00100130911101ACECBCE00E943109AA2794
:100B9C00BB278093040190930501A0930601B093A9
:100BAC000701E1E8F0E08081806480839091160178
:100BBC0081E0892780931601FF91EF91BF91AF914E
:100BCC009F918F917F916F915F914F913F912F9159
:0A0BDC000F900FBE0F901F901895A8
:100BE600CF92DF92EF92FF921F93CF93DF9300D0C5
:100BF60000D0CDB7DEB769837A838B839C830E944E
:100C0600650989819A81AB81BC81892B8A2B8B2BC3
:100C160031F46091150181E00E945A0928C010E064
:100C26000F2EFAE0CF2ED12CE12CF12CF02D69817C
:100C36007A818B819C811F5FA70196010E947408AF
:100C4600812F0E945A0969817A818B819C81A70133
:100C560096010E94740829833A834B835C838981B9
:100C66009A81AB81BC81892B8A2B8B2B01F70F9044
:100C76000F900F900F90DF91CF911F91FF90EF9003
:060C8600DF90CF900895FD
:100C8C0006C019F416F40C94CE090C9440090E9479
:100C9C00D707B8F39923C9F3B6F39F57550B87FFC2
:100CAC000E94AF090024A0E640EA900180585695B6
:100CBC00979528F4805C660F771F881F20F0261705
:100CCC003707480730F4621B730B840B202931293A
:100CDC004A2BA69517940794202531254A2758F7B7
:100CEC00660F771F881F20F026173707480730F448
:100CFC00620B730B840B200D311D411DA09581F7E8
:0E0D0C00B901842F9158880F96958795089508
:100D1A00E89409C097FB3EF490958095709561958B
:100D2A007F4F8F4F9F4F9923A9F0F92F96E9BB2741
:100D3A009395F695879577956795B795F111F8CFBD
:100D4A00FAF4BB0F11F460FF1BC06F5F7F4F8F4F28
:100D5A009F4F16C0882311F096E911C0772321F01E
:100D6A009EE8872F762F05C0662371F096E8862FB6
:100D7A0070E060E02AF09A95660F771F881FDAF70D
:0A0D8A00880F9695879597F9089554
:100D9400FF920F931F93CF93DF931F92CDB7DEB7CC
:100DA400811524E0920708F5F62E8C011982BE0104
:100DB4006F5F7F4F0E94C90881111AC089818F1506
:100DC400B1F06F2DC8010E94DC08811111C0BE0171
:100DD4006F5F7F4FC8010E94C908811109C081E07B
:100DE40099819F1105C080E003C082E001C080E0CA
:0E0DF4000F90DF91CF911F910F91FF90089506
:100E02000E94D70788F09F5798F0B92F9927B751BA
:100E1200B0F0E1F0660F771F881F991F1AF0BA959C
:100E2200C9F714C0B13091F00E94A809B1E0089549
:100E32000C94A809672F782F8827B85F39F0B93F3B
:100E4200CCF3869577956795B395D9F73EF490954F
:0E0E52008095709561957F4F8F4F9F4F08954B
:100E60000E94D70710F40C94CE09E894E0E0BB2769
:100E70009F57F0F02AED3FE049EC06C0EE0FBB0FA4
:100E8000661F771F881F28F0B23A6207730784072E
:100E900028F0B25A620B730B840BE3959A9572F7A4
:100EA000803830F49A95BB0F661F771F881FD2F7E2
:060EB00090480C94420979
:100EB6001F920F920FB60F9211242F933F938F9389
:100EC6009F938091080190910901019690930901E1
:100ED60080930801209108013091090180910E014B
:100EE60090910F012817390708F01BB88CEE86BDC4
:100EF6009F918F913F912F910F900FBE0F901F9052
:020F060018953C
:100F0800DF93CF931F930F93FF92EF92DF927B01B2
:100F18008C01689406C0DA2EEF010E941A04FE01C3
:100F2800E894A5912591359145915591A6F3EF0146
:100F38000E948404FE019701A801DA9469F7DF9002
:0E0F4800EF90FF900F911F91CF91DF910895D0
:100F5600990F0008550FAA0BE0E8FEEF16161706C4
:100F6600E807F907C0F012161306E407F50798F02C
:100F7600621B730B840B950B39F40A2661F0232B45
:100F8600242B252B21F408950A2609F4A140A695C1
:080F96008FEF811D811D0895FC
:100F9E0057FD9058440F551F59F05F3F71F047951C
:100FAE00880F97FB991F61F09F3F79F08795089501
:100FBE00121613061406551FF2CF4695F1DF08C020
:100FCE00161617061806991FF1CF8695710561053D
:040FDE0008940895D6
:100FE200A1E21A2EAA1BBB1BFD010DC0AA1FBB1F2B
:100FF200EE1FFF1FA217B307E407F50720F0A21B9D
:10100200B30BE40BF50B661F771F881F991F1A9409
:1010120069F760957095809590959B01AC01BD0133
:04102200CF0108955D
:1010260084B18C6284B98CB582658CBD6FEF89E022
:101036000E945A096091140161508BE00E945A097E
:1010460068E08AE00E945A0961E08CE00E945A0931
:021056000895FB
:101058001F920F920FB60F9211248F938CEE86BDBC
:1010680080E88BB9109209011092080180911A0149
:101078008F5F80931A018F910F900FBE0F901F9072
:021088001895B9
:10108A0084B58E7F84BD84B58D7F84BD85B5877F09
:10109A0085BDEEE6F0E08081816080838CE486BDC8
:1010AA0085B585BD85B5826085BD85B585BD089543
:1010BA00CF93DF93161617067CF4DC01680F791FAD
:1010CA00E0ECF0E0C6ECD0E0908195FFFDCF9D9179
:0E10DA009883A617B707C1F7DF91CF9108954D
:1010E800052E97FB1EF400940E948B0957FD07D02C
:1010F8000E94F10707FC03D04EF40C948B0950951D
:0E1108004095309521953F4F4F4F5F4F089512
:10111600ECE7F0E080818066808380818160808357
:10112600EAE7F0E080818F6A8083ABE7B0E08C91DC
:0C11360087608C93808180648083089522
:10114200EF93E0FF07C0A2EA2AED3FE049EC5FEB34
:101152000E9484040E9411090F90039401FC90588C
:08116200E8E6F0E00C94B5088A
:10116A009F938F937F936F93FF93EF939B01AC01B0
:10117A000E94CA09EF91FF910E9484072F913F9123
:08118A004F915F910C94CA091A
:101192009C01211584E0380760F49FB3892F827087
:1011A20091FDFBCF32BD21BDF89A90B5FB01908332
:0611B200089582E008959B
:1011B8009C01211584E0380758F49FB3892F827069
:1011C80091FDFBCF32BD21BD60BDFA9AF99A089511
:0411D80082E0089514
:1011DC001092850010928400E1E8F0E08081806438
:1011EC008083AFE6B0E08C9181628C9380818260C9
:0411FC00808308954F
:101200001F920F920FB60F9211248F9380911D01A0
:101210008F5F80931D018F910F900FBE0F901F90D5
:0212200018951F
:10122200092E0394000C11F4882352F0BB0F40F4F2
:10123200BF2B11F460FF04C06F5F7F4F8F4F9F4F32
:0212420008950D
:101244008BB18C608BB9E9E6F0E0808183608083A8
:0E12540080818C6080838DB383608DBB089594
:10126200A29FB001B39FC001A39F700D811D1124E5
:0E127200911DB29F700D811D1124911D0895D4
:101280009F3F31F0915020F4879577956795B795FA
:0C129000880F911D9695879597F9089599
:10129C001092C50087E68093C40088E98093C10052
:0812AC008EE08093C20008955A
:1012B400CF93C62F2A980E94BC098C2F0E94BC0988
:0612C4002A9ACF91089563
:1012CA00CF93C09114016FE08C2F0E945A09C1502C
:0612DA00D1F7CF91089549
:1012E0000E943109A59F900DB49F900DA49F800D81
:0612F000911D1124089578
:1012F600E0ECF0E0908195FFFDCF8093C600089565
:101306009F930E9430070F9007FCEE5F0C94A10894
:1013160090958095709561957F4F8F4F9F4F08955B
:0E1326005058BB27AA270E9484040C9411097A
:0E13340000240A9416161706180609060895D6
:0E13420000240A9412161306140605060895D8
:0E135000E894BB2766277727CB0197F908950D
:0E135E0091505040660F771F881FD2F70895F8
:0C136C0097F99F6780E870E060E008954A
:0A1378008EBD0DB407FEFDCF0895F1
:0A1382000E94AB0708F481E0089513
:08138C000E94AB030C9411094F
:081394000E941A040C941109D7
:06139C009FEF80EC0895B4
:0413A2000C940000A7
:0413A600CDCC4C3D21
:0213AA006E00D3
:0113AC000838
:0113AD003E01
:0113AE00013D
:0113AF002B12
:0113B0006FCD
:0113B1000A31
:00000001FF
