:100000000C9472000C94A70A0C947E030C94E70DD8
:100010000C94E70D0C94E70D0C94E70D0C94E70D90
:100020000C94E70D0C94E70D0C9434090C94E70D37
:100030000C94E70D0C94E70D0C94E70D0C94E70D70
:100040000C943E0A0C94E70D0C94E70D0C94E70D0C
:100050000C94E70D0C94E70D0C94E70D0C94E70D50
:100060000C94E70D0C94E70D072C7AA5BA6CC5909B
:10007000DA3B9365FC8BBC53F810FD3C5692834DE4
:10008000BD879D3AB63DCBC9BF5BBE73DA0FC93F92
:1000900005A84CCDB2D44EB93836A9020C50B9914E
:1000A0008688083CA6AAAA2ABE000000803F01005C
:1000B000010E80010E0110001BD2011001128001FF
:1000C000120115001BD4011501178001170118003A
:1000D0001BD701180119800119011A001BD8011A38
:1000E000011D800011241FBECFEFD8E0DEBFCDBFC1
:1000F000EEEAF0E040E017C0B591A5913591259169
:10010000059107FD0CC095918591EF01F92FE82F1E
:1001100005900D92A217B307D9F7FE0104C01D92F6
:10012000A217B307E1F7E33EF40731F70E94750A1F
:080130000C949A00F894FFCF33
:10013800416A75737461722054656E73696F6E20BD
:10014800646520526564204C6F63616C200A0D0061
:1001580053652065737461626C6563696F20756EA1
:10016800612054656E73696F6E20646520726564E2
:100178002064653A200A0D00416A75737461722023
:1001880054656E73696F6E2064652044696D6D6592
:1001980072204C6F63616C200A0D005365206573F3
:1001A8007461626C6563696F20756E612054656E59
:1001B80073696F6E20656E206C6120636172676180
:1001C8002064653A200A0D0053656C656363696FA6
:1001D8006E65206C6120616363696F6E207175655F
:1001E800206465736565207265616C697A61723A2D
:1001F800200A0D0020312E204D6F64696669636105
:1002080072206C612054656E73696F6E206465207E
:100218005265642E200A0D0020322E204D6F64692D
:100228006669636172206C612054656E73696F6ED4
:100238002064656C2044696D6D65722E200A0D007E
:10024800207C20202054656E73696F6E20646520C1
:100258005265642020207C2054656E73696F6E207F
:1002680064652044696D6D6572207C54656E7369A0
:100278006F6E20656E206C612043617267617C201F
:1002880020546F6E2020207C20416E67756C6F2093
:100298007C200A0D00207C20202020202020200007
:1002A8005620202020202020207C202020202020B4
:1002B8002000562020202020207C2000207C202088
:1002C8000053652065737461626C6563696F2065AE
:1002D8006C2076616C6F7220696E677265736164F9
:1002E8006F3A200A0D00416C65727461212C2069F7
:1002F8006E6772657365206F74726F2076616C6FBC
:06030800722E200A0D0018
:10030E009F92AF92BF92CF92DF92EF92FF920F9396
:10031E001F93CF93DF9300D000D000D0CDB7DEB7C0
:10032E006C01962E9C01ADECBCEC0E943A0D7C014A
:10033E00F694E794F694E794F694E7949701220FD7
:10034E00331FC701880F991F880F991F880F991F98
:10035E00820F931F7601E81AF90A96010E943A0D50
:10036E00FC01F695E795F695E795F695E7959F01CD
:10037E000E943A0DAC015695479556954795569560
:10038E004795CA01880F991F440F551F440F551FDB
:10039E00440F551F480F591FCF01841B950BAC01FD
:1003AE0096013695279536952795ABE7B4E10E94D1
:1003BE003A0D8C01169507959801ADECBCEC0E9498
:1003CE003A0DFC01F695E795F695E795F695E795C6
:1003DE00CF01880F991FEE0FFF1FEE0FFF1FEE0FBD
:1003EE00FF1FE80FF91FC8018E1B9F0BFC01960122
:1003FE00369527953695279536952795A5ECB0E237
:10040E000E943A0D5C01B694A794B694A794B69444
:10041E00A794B694A7949501ADECBCEC0E943A0D4E
:10042E008C01169507951695079516950795C80193
:10043E00880F991F000F111F000F111F000F111FA2
:10044E00080F191FC501801B910B8C0193E09912A7
:10045E000EC0E05DE983405D4A8380E38E0D8B83A1
:10046E0063E070E0CE0101960E94A10C4EC084E0C4
:10047E00981212C0005D0983E05DEA838CE28B83E3
:10048E00405D4C8380E38E0D8D8365E070E0CE0180
:10049E0001960E94A10C39C095E0991223C09601D5
:1004AE00329522952F7023273F702327A7E4B3E0C0
:1004BE000E943A0D96958795969587959695879570
:1004CE00805D8983005D0A83E05DEB838CE28C8323
:1004DE00405D4D83EE8266E070E0CE0101960E9493
:1004EE00A10C13C0E05DE983405D4A838CE28B83EF
:1004FE0080E38E0D8C838DE68D8383E78E8366E09D
:10050E0070E0CE0101960E94A10C26960FB6F894CB
:10051E00DEBF0FBECDBFDF91CF911F910F91FF9028
:0E052E00EF90DF90CF90BF90AF909F90089518
:10053C00CF93DF93CDB7DEB7CD5FD1090FB6F8946B
:10054C00DEBF0FBECDBF20ED31E040E08CE2F90103
:10055C00DE011196742F0E94570D6CE270E0CE01F3
:10056C0001960E94A10C2CEF31E040E084E2F901ED
:10057C00DE019D96742F0E94570D64E270E0CE014F
:10058C008D960E94A10C20E232E040E088E2F90155
:10059C00DE01AF5ABF4F742F0E94570D68E270E016
:1005AC00CE018F5A9F4F0E94A10C28E432E040E00C
:1005BC0085E5F901DE01A758BF4F742F0E94570D36
:1005CC0065E570E0CE0187589F4F0E94A10C2DE984
:1005DC0032E040E08BE0F901DE01A253BF4F742FF3
:1005EC000E94570D28EA32E040E082E1F901DE0179
:1005FC00A752BF4F742F0E94570D6BE070E0CE01D5
:10060C0082539F4F0E94A10C809112019091130173
:10061C0063E00E94870162E170E0CE0187529F4F38
:10062C000E94A10C80910E0190910F0163E00E9439
:10063C00870162E170E0CE0187529F4F0E94A10CAE
:10064C000E945E0665E00E9487012AEB32E040E0E2
:10065C008AE0F901DE01A551BF4F742F0E94570D9E
:10066C0024EC32E040E085E0F901DE01AB50BF4FF5
:10067C00742F0E94570D6AE070E0CE0185519F4F98
:10068C000E94A10C809106019091070166E00E94E6
:10069C00870165E070E0CE018B509F4F0E94A10C4A
:1006AC008FE890E2C650DF4F99838883CA5FD040B1
:1006BC008CE790E0C450DF4F99838883CC5FD040A7
:1006CC00809104019091050163E00E94870164E030
:1006DC0070E0CE0186509F4F0E94A10CC350DF4F9B
:1006EC000FB6F894DEBF0FBECDBFDF91CF9108954A
:1006FC001F920F920FB60F9211244F925F926F922E
:10070C007F928F929F92AF92BF92CF92DF92EF9295
:10071C00FF922F933F934F935F936F937F938F939E
:10072C009F93AF93BF93CF93EF93FF938091190156
:10073C00882309F492C080E18BB960910201709119
:10074C00030180E090E00E94CA096B017C012BEA56
:10075C003AEA4AEA50E40E94E00D4B015C0120E0C9
:10076C0030E040E85FE30E94CD0D88230CF470C0AC
:10077C0020E030E040E850E4C701B6010E94E00DF3
:10078C002B013C0120E03FEF4FE757E40E94D70DCF
:10079C0018160CF045C020E030E04AE754E4C701DD
:1007AC00B6010E94DC0D4B015C0120E030E04AE711
:1007BC0055E40E94E00D6B017C0120E030E040E844
:1007CC005FE30E94CD0D88232CF120E03FEF4FE733
:1007DC0057E4C701B6010E94D70D1816B4F420E0F7
:1007EC0030E040E251E4C501B4010E94E00D0E94EA
:1007FC00D80A6115710569F120E931E0C901019749
:10080C00F1F761507109D1F724C0C701B6010E94FC
:10081C00D80A02C061E070E0CB010197F1F719C072
:10082C0020E030E04FE753E4C501B4010E94D70D3E
:10083C00181644F4C301B2010E94D80ACB010197E7
:10084C00F1F70AC0C501B4010E94D80AC62F01C035
:10085C00C1E06C2F6A95F1F71BB8FF91EF91CF9126
:10086C00BF91AF919F918F917F916F915F914F91BC
:10087C003F912F91FF90EF90DF90CF90BF90AF9072
:10088C009F908F907F906F905F904F900F900FBEC6
:06089C000F901F9018955B
:1008A200CF93DF93CDB7DEB7C854D1090FB6F89412
:1008B200DEBF0FBECDBF28E331E040E080E2F901A8
:1008C200DE011196742F0E94570D60E270E0CE0196
:1008D20001960E94A10C80911A01813009F048C052
:1008E20080E090E00E94CA0BBC01990F880B990B23
:1008F2000E94CC0920E030E04CE553E40E94E00D78
:1009020020E030E040E85AE30E94E00D0E94D80A5D
:100912007093130160931201409100015091010103
:100922008091120190911301489F9001499F300DCF
:10093200589F300D11243695279536952795ABE7AC
:10094200B4E10E943A0D9695879590930F0180939A
:100952000E01609112017091130180E090E041E07C
:1009620050E00E946D0580911A01813009F4B8CFE0
:1009720081E080931A011092160128E531E040E0EF
:1009820088E2F901DE019196742F0E94570D68E208
:1009920070E0CE0181960E94A10C8091120190918B
:1009A200130163E00E948701C85BDF4F0FB6F89422
:0C09B200DEBF0FBECDBFDF91CF910895D6
:1009BE00CF93DF93CDB7DEB7C055D1090FB6F894FC
:1009CE00DEBF0FBECDBF20E831E040E083E2F9018B
:1009DE00DE011196742F0E94570D63E270E0CE0176
:1009EE0001960E94A10C80911A01823009F048C034
:1009FE0080E090E00E94CA0BBC01990F880B990B06
:100A0E000E94CC0920E030E048EC52E40E94E00D58
:100A1E0020E030E040E85AE30E94E00D0E94D80A40
:100A2E00709301016093000140910001509101010A
:100A3E008091120190911301489F9001499F300DB2
:100A4E00589F300D11243695279536952795ABE78F
:100A5E00B4E10E943A0D9695879590930F0180937D
:100A6E000E0160910E0170910F0180E090E042E066
:100A7E0050E00E946D0580911A01823009F4B8CFC2
:100A8E0082E080931A011092160123EA31E040E0D1
:100A9E008DE2F901DE019496742F0E94570D6DE2DE
:100AAE0070E0CE0184960E94A10C80910E0190916F
:100ABE000F0163E00E948701C05BDF4F0FB6F89411
:0C0ACE00DEBF0FBECDBFDF91CF910895B9
:100ADA00BF92CF92DF92EF92FF920F931F93CF9321
:100AEA00DF9300D000D0CDB7DEB769837A838B83DA
:100AFA009C83042F89819A81AB81BC81BB2394F4A6
:100B0A0089819A81AB81BC81B095A0959095819598
:100B1A009F4FAF4FBF4F89839A83AB83BC83BB245C
:100B2A00B39401C0B12C0E947B0D89819A81AB815B
:100B3A00BC81892B8A2B8B2B29F460E081E00E94EF
:100B4A00700D32C010E00F2EFAE0CF2ED12CE12C1E
:100B5A00F12CF02D69817A818B819C811F5FA7011D
:100B6A0096010E94B80C812F0E94700D69817A81CA
:100B7A008B819C81A70196010E94B80C29833A8334
:100B8A004B835C8389819A81AB81BC81892B8A2BB7
:100B9A008B2B01F7602F87E00E94700DBB2021F09C
:100BAA006AE0812F0E94700D0F900F900F900F90A6
:100BBA00DF91CF911F910F91FF90EF90DF90CF902F
:040BCA00BF9008953B
:100BCE00CF93DF93CDB7DEB7A5970FB6F894DEBF00
:100BDE000FBECDBF60910E0170910F0180E090E0CD
:100BEE0042E050E00E946D058CE091E00E94070A01
:100BFE00809112019091130120910C0130910D0101
:100C0E000B9728173907D0F580910C0190910D01A3
:100C1E000597A0F180910C0190910D0190930F0119
:100C2E0080930E0129EC32E040E085E2F901DE010D
:100C3E001196742F0E94570D65E270E0CE01019659
:100C4E000E94A10C80910E0190910F0163E00E9411
:100C5E00870160910E0170910F0180E090E042E0FB
:100C6E0050E00E946D0580910E0190910F010E943F
:100C7E008308909303018093020110C02EEE32E0A0
:100C8E0040E080E2F901DE011196742F0E94570DAB
:100C9E0060E270E0CE0101960E94A10CA5960FB6FF
:0E0CAE00F894DEBF0FBECDBFDF91CF91089549
:100CBC008F929F92AF92BF92CF92DF92EF92FF9260
:100CCC00CF93DF93809106019091070144EB489FED
:100CDC009001499F300D112436952795369527950F
:100CEC00ABE7B4E10E943A0D969587959093050178
:100CFC0080930401C0911201D09113016091040101
:100D0C007091050180E090E00E94CA092BED3FE054
:100D1C0049E450E40E94E00D20E030E044E353E469
:100D2C000E94DC0D0E94D20D4B015C01BE0180E0E3
:100D3C0090E00E94CA0923EF34E045EB5FE30E9488
:100D4C00E00D2BED3FE049E450E40E94DC0D6B011B
:100D5C007C01A501940160E070E080E89FE30E94B3
:100D6C009F0D9B01AC01C701B6010E94E00D0E94D2
:100D7C00D80A24E6269FA001279F500D1124CA01F2
:100D8C00DF91CF91FF90EF90DF90CF90BF90AF901D
:060D9C009F908F90089566
:100DA200CF93DF93CDB7DEB7A5970FB6F894DEBF2A
:100DB2000FBECDBF609112017091130180E090E0EF
:100DC20041E050E00E946D0580E191E00E94070A37
:100DD20080911001909111018A3F9105D0F5809187
:100DE2001001909111010A97A0F180911001909148
:100DF2001101909313018093120129EC32E040E03B
:100E020085E2F901DE011196742F0E94570D65E209
:100E120070E0CE0101960E94A10C80911201909186
:100E2200130163E00E948701609112017091130126
:100E320080E090E041E050E00E946D0580910E015B
:100E420090910F010E948308909303018093020105
:100E520010C02EEE32E040E080E2F901DE01119690
:100E6200742F0E94570D60E270E0CE0101960E943D
:100E7200A10CA5960FB6F894DEBF0FBECDBFDF91D1
:040E8200CF9108956F
:100E860010C00E94AD0D58F00E94A60D40F029F446
:100E96005F3F29F00C94C20D51110C94B50D0C94C2
:100EA600E40D0E94EC0B68F39923B1F3552391F3FB
:100EB600951B550BBB27AA2762177307840738F0C3
:100EC6009F5F5F4F220F331F441FAA1FA9F335D020
:100ED6000E2E3AF0E0E832D091505040E695001CD4
:100EE600CAF72BD0FE2F29D0660F771F881FBB1F8E
:100EF600261737074807AB07B0E809F0BB0B802D6C
:100F0600BF01FF2793585F4F3AF09E3F510578F097
:100F16000C94C20D0C94B50D5F3FE4F3983ED4F3E8
:100F2600869577956795B795F7959F5FC9F7880F6B
:100F3600911D9695879597F90895E1E0660F771FBD
:100F4600881FBB1F621773078407BA0720F0621B4E
:0E0F5600730B840BBA0BEE1F88F7E09508951D
:100F64000FC00E94A60D38F00E94AD0D20F095230D
:100F740011F00C94C20D0C94E40D11240C94B50DD5
:100F84000E94EC0B70F3959FC1F3950F50E0551F31
:100F9400629FF001729FBB27F00DB11D639FAA27CA
:100FA400F00DB11DAA1F649F6627B00DA11D661F19
:100FB400829F2227B00DA11D621F739FB00DA11D3A
:100FC400621F839FA00D611D221F749F3327A00DF4
:100FD400611D231F849F600D211D822F762F6A2F90
:100FE40011249F5750409AF0F1F088234AF0EE0FF5
:100FF400FF1FBB1F661F771F881F91505040A9F722
:101004009E3F510580F00C94C20D0C94B50D5F3FCA
:10101400E4F3983ED4F3869577956795B795F7955D
:10102400E7959F5FC1F7FE2B880F911D96958795D5
:0410340097F908958B
:1010380011C00E94A60D38F00E94AD0D20F039F4C1
:101048009F3F19F426F40C94E40D0EF4E095E7FBA9
:101058000C94C20DE92F0E94EC0B58F3BA176207E3
:1010680073078407950720F079F4A6F50C94B40D5E
:101078000EF4E0950B2EBA2FA02D0B01B9019001AB
:101088000C01CA01A0011124FF27591B99F0593FEF
:1010980050F4503E68F11A16F040A22F232F342F37
:1010A8004427585FF3CF469537952795A795F04085
:1010B8005395C9F77EF41F16BA0B620B730B840B9A
:1010C800BAF09150A1F0FF0FBB1F661F771F881F52
:1010D800C2F70EC0BA0F621F731F841F48F48795AA
:1010E80077956795B795F7959E3F08F0B0CF93959C
:0E10F800880F08F09927EE0F979587950895B9
:10110600CF92DF92EF92FF92CF93DF93C0911201BD
:10111600D0911301BC0180E090E00E94CA096B01E6
:101126007C01BE0180E090E00E94CA0923EF34E012
:1011360045EB5FE30E94E00D2BED3FE049E450E410
:101146000E94DC0D9B01AC01C701B6010E94DC0DBB
:1011560020E030E040E85FE30E949F0D0E94090D09
:1011660020E030E044E353E40E94E00D2BED3FE045
:1011760049E450E40E94DC0D0E94D80A44E6469FEA
:101186009001479F300D1124A3E8BDE20E943A0D5D
:1011960096958795929582958F7089279F70892756
:1011A600489F9001499F300D112480E197E2821BF0
:1011B600930BDF91CF91FF90EF90DF90CF90089542
:1011C6000E945E0690930B0180930A0120910A010A
:1011D60030910B0180910E0190910F01281739076C
:1011E600A0F480910A0190910B01019690930B0156
:1011F60080930A0120910A0130910B0180910E0122
:1012060090910F012817390760F320910A01309158
:101216000B0180910E0190910F0182179307A0F4A4
:1012260080910A0190910B01019790930B01809395
:101236000A0120910A0130910B0180910E019091D3
:101246000F018217930760F31092150180910A012E
:1012560090910B010E9483089093030180930201F1
:021266000895E9
:101268001F920F920FB60F9211242F933F934F9313
:101278008F939F93EF93FF9380911701882351F0E9
:10128800E1E8F0E080818F7B8083109285001092E6
:10129800840023C080918600909187009093090173
:1012A80080930801809108019091090143EA489FC1
:1012B8009001499F300D1124232F332784E690E0B5
:1012C800821B930B9093070180930601E1E8F0E0FD
:1012D800808180648083808180839091170181E080
:1012E800892780931701FF91EF919F918F914F91DB
:0E12F8003F912F910F900FBE0F901F901895F1
:1013060006C019F416F40C94E40D0C94490D0E94D1
:10131600F40BB8F39923C9F3B6F39F57550B87FF20
:101326000E94BB0D0024A0E640EA90018058569525
:10133600979528F4805C660F771F881F20F0261784
:101346003707480730F4621B730B840B20293129B9
:101356004A2BA69517940794202531254A2758F736
:10136600660F771F881F20F026173707480730F4C7
:10137600620B730B840B200D311D411DA09581F767
:0E138600B901842F9158880F96958795089588
:10139400E89409C097FB3EF490958095709561950B
:1013A4007F4F8F4F9F4F9923A9F0F92F96E9BB27C1
:1013B4009395F695879577956795B795F111F8CF3D
:1013C400FAF4BB0F11F460FF1BC06F5F7F4F8F4FA8
:1013D4009F4F16C0882311F096E911C0772321F09E
:1013E4009EE8872F762F05C0662371F096E8862F36
:1013F40070E060E02AF09A95660F771F881FDAF78D
:0A140400880F9695879597F90895D3
:10140E000F931F93CF93DF938C01A1E0B0E060E0C8
:10141E0070E0E0ECF0E0C6ECD0E090819923ECF7C0
:10142E009881292F30E0A330B10584F4205331097F
:10143E00260F371FB901660F771F220F331F220F9A
:10144E00331F220F331F620F731F05C0A9014053B4
:10145E005109640F751F1196A430B105F1F6F8010C
:0E146E0071836083DF91CF911F910F910895DC
:10147C001F920F920FB60F9211248F93EF93FF933D
:10148C0080911C018F5F80931C0180911C0184361C
:10149C0041F410921C0180911B018F5F80931B0102
:1014AC0014C080911C01843141F080911C01823365
:1014BC0021F080911C01803541F4E1E8F0E080815D
:1014CC008560808381E08093150183E686BDFF9162
:0E14DC00EF918F910F900FBE0F901F901895FB
:1014EA00F8940E942B0D0E94880C0E94F70C0E940F
:1014FA00860D0E94640D0E946F0C80E18AB91BB8A8
:10150A00789480910E0190910F010E948308909324
:10151A000301809302010E949E02809115018111AC
:10152A000E94E30880911A01882321F080911A0110
:10153A00833028F010921A010E94500CEECF0E94BC
:04154A00320BEBCFA6
:10154E001F920F920FB60F9211248F939F9380913B
:10155E0018018823A9F080911C01823320F4809118
:10156E001B01882341F080911A01833020F481E021
:10157E008093160105C080911A018F5F80931A0126
:10158E0010921B0110921C019091180181E0892785
:10159E00809318019F918F910F900FBE0F901F9007
:0215AE0018958E
:1015B0000E94F40B88F09F5798F0B92F9927B751E4
:1015C000B0F0E1F0660F771F881F991F1AF0BA95E7
:1015D000C9F714C0B13091F00E94B40DB1E0089584
:1015E0000C94B40D672F782F8827B85F39F0B93F76
:1015F000CCF3869577956795B395D9F73EF490959A
:0E1600008095709561957F4F8F4F9F4F089595
:10160E000E94F40B10F40C94E40DE894E0E0BB2778
:10161E009F57F0F02AED3FE049EC06C0EE0FBB0FEE
:10162E00661F771F881F28F0B23A62077307840778
:10163E0028F0B25A620B730B840BE3959A9572F7EE
:10164E00803830F49A95BB0F661F771F881FD2F72C
:06165E0090480C944B0DB6
:1016640080911A01813019F0823091F008956091CF
:1016740012017091130180E090E041E050E00E947B
:101684006D0580911601882391F00E9451040895FC
:1016940060910E0170910F0180E090E042E050E013
:1016A4000E946D058091160181110E94DF04089546
:1016B400DF93CF931F930F93FF92EF92DF927B01FF
:1016C4008C01689406C0DA2EEF010E94B207FE0175
:1016D400E894A5912591359145915591A6F3EF0193
:1016E4000E941C08FE019701A801DA9469F7DF90B3
:0E16F400EF90FF900F911F91CF91DF9108951D
:101702000F931F93CF93DF938091C0008823B4F08F
:10171200C4E0D0E000EC10E02FEF89E698E1215020
:1017220080409040E1F700C000008EE20E948F0DE1
:10173200F8018081882314F0219771F78091C60007
:0A174200DF91CF911F910F910895E0
:10174C00990F0008550FAA0BE0E8FEEF16161706C6
:10175C00E807F907C0F012161306E407F50798F02E
:10176C00621B730B840B950B39F40A2661F0232B47
:10177C00242B252B21F408950A2609F4A140A695C3
:08178C008FEF811D811D0895FE
:10179400ECE7F0E09081907F90839081892B8083A7
:1017A400EAE7F0E080818068808385E38A95F1F739
:1017B4000000808180648083808184FFFDCFEAE71C
:1017C400F0E0808180618083108280917800909124
:0417D40079000895FB
:1017D80057FD9058440F551F59F05F3F71F04795DA
:1017E800880F97FB991F61F09F3F79F087950895BF
:1017F800121613061406551FF2CF4695F1DF08C0DE
:10180800161617061806991FF1CF869571056105FA
:041818000894089593
:10181C00A1E21A2EAA1BBB1BFD010DC0AA1FBB1FE8
:10182C00EE1FFF1FA217B307E407F50720F0A21B5A
:10183C00B30BE40BF50B661F771F881F991F1A94C7
:10184C0069F760957095809590959B01AC01BD01F1
:04185C00CF0108951B
:10186000DF93CF931F930F938B01EC01E8E6F0E039
:101870000E945A0B0E941A0D9801AE018B01EC01D7
:1018800060E070E080E89FE30E949F0D0E94830962
:101890009801AE010F911F91CF91DF910C94B20787
:1018A0000E94810B833389F028F4813341F0823325
:1018B00049F00895843361F0883771F008950E94EB
:1018C000D10608950E94E705089510921901089520
:0E18D00081E08093190108950E949E02089500
:1018DE0084B18C6284B98CB582658CBD6FEF89E062
:1018EE000E94700D6091140161508BE00E94700D8A
:1018FE0068E08AE00E94700D61E08CE00E94700D3D
:02190E0008953A
:1019100084B58E7F84BD84B58D7F84BD85B5877F7A
:1019200085BDEEE6F0E080818160808383E686BD40
:1019300085B5816085BD85B585BD85B5846085BD6E
:02194000089508
:10194200CF93DF93161617067CF4DC01680F791F1C
:10195200E0ECF0E0C6ECD0E0908195FFFDCF9D91E8
:0E1962009883A617B707C1F7DF91CF910895BC
:10197000052E97FB1EF400940E94970D57FD07D08B
:101980000E940E0C07FC03D04EF40C94970D50955A
:0E1990004095309521953F4F4F4F5F4F089582
:10199E00EF93E0FF07C0A2EA2AED3FE049EC5FEBD0
:1019AE000E941C080E941A0D0F90039401FC90587F
:0819BE00E0E9F0E00C94E30CF9
:1019C6009F938F937F936F93FF93EF939B01AC014C
:1019D6000E94E00DEF91FF910E945A0B2F913F91CB
:0819E6004F915F910C94E00D9C
:1019EE001092850010928400E1E8F0E0808180641E
:1019FE008083AFE6B0E08C9181628C9380818560AC
:041A0E008083089534
:101A12009F939F770E94300C0F90002042F49058C1
:101A2200A2EA2AED3FE049E450E40E941C080C942B
:021A32001A0D8B
:101A3400092E0394000C11F4882352F0BB0F40F4D8
:101A4400BF2B11F460FF04C06F5F7F4F8F4F9F4F18
:021A54000895F3
:101A56008BB18C608BB9E9E6F0E080818160808390
:0E1A660080818C6080838DB383608DBB08957A
:101A7400A29FB001B39FC001A39F700D811D1124CB
:0E1A8400911DB29F700D811D1124911D0895BA
:101A92009F3F31F0915020F4879577956795B795E0
:0C1AA200880F911D9695879597F908957F
:101AAE00992777FD05C005900D920197E1F70895EE
:0A1ABE0001900D920197E1F70895E1
:101AC8001092C50087E68093C40088E18093C10026
:081AD8008EE08093C200089526
:101AE000CF93C62F2A980E94C80D8C2F0E94C80D34
:061AF0002A9ACF9108952F
:101AF600CF93C09114016FE08C2F0E94700DC150DE
:061B0600D1F7CF91089514
:101B0C00ECE7F0E0108280E4808387E080937A0039
:021B1C0008952A
:101B1E00E0ECF0E0908195FFFDCF8093C600089534
:101B2E0090958095709561957F4F8F4F9F4F08953B
:0E1B3E005058BB27AA270E941C080C941A0DB1
:0E1B4C0000240A9416161706180609060895B6
:0E1B5A0000240A9412161306140605060895B8
:0E1B6800E894BB2766277727CB0197F90895ED
:0E1B760091505040660F771F881FD2F70895D8
:0C1B840097F99F6780E870E060E008952A
:0A1B90008EBD0DB407FEFDCF0895D1
:0A1B9A000E94A60B08F481E00895F4
:0A1BA4000E94070BE3950C94CF0C90
:0A1BAE000E94A60B08F48FEF0895C3
:081BB8000E9443070C941A0D72
:081BC0000E94B2070C941A0DFB
:061BC8009FEF80EC089580
:041BCE000C94000073
:021BD2003200DF
:021BD4006E00A1
:011BD6000806
:011BD700010C
:011BD800010B
:00000001FF
