:100000000C944F000C944C010C942C060C942C0670
:100010000C942C060C942C060C942C060C942C0698
:100020000C942C060C942C060C9415040C942C06A1
:100030000C942C060C942C060C942C060C942C0678
:100040000C94DA030C942C060C942C060C942C06BD
:100050000C942C060C942C060C942C060C942C0658
:100060000C942C060C942C0605A84CCDB2D44EB999
:100070003836A9020C50B9918688083CA6AAAA2A4B
:10008000BE000000803F01000104000C5C0104017F
:100090000E80010E0111000C60011101128011246B
:1000A0001FBECFEFD8E0DEBFCDBFE6E8F0E040E016
:1000B00017C0B591A59135912591059107FD0CC00B
:1000C00095918591EF01F92FE82F05900D92A217D8
:1000D000B307D9F7FE0104C01D92A217B307E1F7D9
:1000E000EE39F40731F70E94CB040C947700F894B2
:0200F000FFCF40
:1000F200DF92EF92FF920F931F93CF93DF9300D083
:1001020000D000D0CDB7DEB7FC01D62E9C01ADECFD
:10011200BCEC0E94B205AC015695479556954795A1
:10012200569547959A01220F331FCA01880F991FCE
:10013200880F991F880F991F820F931F7F01E81A5A
:10014200F90A9A010E94B205969587959695879528
:10015200969587959C01220F331F880F991F880F50
:10016200991F880F991F820F931F481B590B9F01DC
:100172003695279536952795ABE7B4E10E94B205EF
:100182008C01169507959801ADECBCEC0E94B20566
:100192009695879596958795969587959C01220FBA
:1001A200331F880F991F880F991F880F991F820F7D
:1001B200931F081B190B9F01369527953695279596
:1001C20036952795A5ECB0E20E94B205FC01F295A6
:1001D200E295EF70EF27FF70EF279F01ADECBCECCB
:1001E2000E94B205969587959695879596958795DF
:1001F2009C01220F331F880F991F880F991F880FA8
:10020200991F820F931FE81BF90B83E0D8120EC0CF
:10021200005D0983405D4A8380E38E0D8B8363E03A
:1002220070E0CE0101960E94350527C084E0D81205
:1002320012C0005D0983405D4A838CE28B8380E3B8
:100242008E0D8C83E05DED8365E070E0CE0101965A
:100252000E94350512C0005D0983405D4A8380E338
:100262008E0D8B838CE28C83E05DED83EE8366E002
:1002720070E0CE0101960E94350526960FB6F894DD
:10028200DEBF0FBECDBFDF91CF911F910F91FF90C7
:06029200EF90DF900895DB
:100298001F920F920FB60F9211248F929F92AF92D6
:1002A800BF92CF92DF92EF92FF922F933F934F939B
:1002B8005F936F937F938F939F93AF93BF93EF93C6
:1002C800FF9380910C0190910D0143EA489F9001A2
:1002D800499F300D1124232F332784E690E0821B99
:1002E800930B90930B0180930A010E94DE0164E056
:1002F8000E94790080E18BB960910A0170910B012D
:1003080080E090E00E949D034B015C0120E030E01A
:100318004AE755E40E9425066B017C0120E030E0A5
:1003280040E85FE30E94120688232CF120E03FEFAB
:100338004FE757E4C701B6010E941C061816B4F42B
:1003480020E030E040E251E4C501B4010E942506F6
:100358000E944A046115710599F020E931E0C9014C
:100368000197F1F761507109D1F70AC0C701B601C9
:100378000E944A0402C061E070E0CB010197F1F7E6
:100388001BB8FF91EF91BF91AF919F918F917F9192
:100398006F915F914F913F912F91FF90EF90DF9078
:1003A800CF90BF90AF909F908F900F900FBE0F90FF
:0403B8001F901895E5
:1003BC008F929F92AF92BF92CF92DF92EF92FF9269
:1003CC00CF93DF9380910A0190910B0144EB489FEE
:1003DC009001499F300D1124ADECBCEC0E94B2058C
:1003EC00969587959695879596958795A0E0B0E01C
:1003FC008093040190930501A0930601B09307012B
:10040C00C0910E01D0910F01C0900001D09001015C
:10041C00E0900201F09003016091040170910501DC
:10042C0080910601909107010E949D03A7019601FE
:10043C000E94250620E030E044E353E40E942106AC
:10044C000E9417064B015C01BE0180E090E00E9407
:10045C009D0323EF34E045EB5FE30E942506A701E3
:10046C0096010E9421066B017C0120E030E040E8FF
:10047C005FE3C501B4010E94F1059B01AC01C7010A
:10048C00B6010E94250620E030E040E251E40E94D3
:10049C0025060E944A04CB01DF91CF91FF90EF908B
:0E04AC00DF90CF90BF90AF909F908F900895FB
:1004BA0010C00E94FE0558F00E94F70540F029F48A
:1004CA005F3F29F00C940C0651110C9406060C940B
:1004DA0029060E94130568F39923B1F3552391F372
:1004EA00951B550BBB27AA2762177307840738F099
:1004FA009F5F5F4F220F331F441FAA1FA9F335D0F6
:10050A000E2E3AF0E0E832D091505040E695001CA9
:10051A00CAF72BD0FE2F29D0660F771F881FBB1F63
:10052A00261737074807AB07B0E809F0BB0B802D41
:10053A00BF01FF2793585F4F3AF09E3F510578F06D
:10054A000C940C060C9406065F3FE4F3983ED4F331
:10055A00869577956795B795F7959F5FC9F7880F41
:10056A00911D9695879597F90895E1E0660F771F93
:10057A00881FBB1F621773078407BA0720F0621B24
:0E058A00730B840BBA0BEE1F88F7E0950895F3
:100598000FC00E94F70538F00E94FE0520F0952351
:1005A80011F00C940C060C94290611240C940606E0
:1005B8000E94130570F3959FC1F3950F50E0551FE6
:1005C800629FF001729FBB27F00DB11D639FAA27A0
:1005D800F00DB11DAA1F649F6627B00DA11D661FEF
:1005E800829F2227B00DA11D621F739FB00DA11D10
:1005F800621F839FA00D611D221F749F3327A00DCA
:10060800611D231F849F600D211D822F762F6A2F65
:1006180011249F5750409AF0F1F088234AF0EE0FCA
:10062800FF1FBB1F661F771F881F91505040A9F7F7
:100638009E3F510580F00C940C060C9406065F3F13
:10064800E4F3983ED4F3869577956795B795F79533
:10065800E7959F5FC1F7FE2B880F911D96958795AB
:0406680097F9089561
:10066C0011C00E94F70538F00E94FE0520F039F405
:10067C009F3F19F426F40C9429060EF4E095E7FB41
:10068C000C940C06E92F0E94130558F3BA17620755
:10069C0073078407950720F079F4A6F50C940506EA
:1006AC000EF4E0950B2EBA2FA02D0B01B901900181
:1006BC000C01CA01A0011124FF27591B99F0593FC5
:1006CC0050F4503E68F11A16F040A22F232F342F0D
:1006DC004427585FF3CF469537952795A795F0405B
:1006EC005395C9F77EF41F16BA0B620B730B840B70
:1006FC00BAF09150A1F0FF0FBB1F661F771F881F28
:10070C00C2F70EC0BA0F621F731F841F48F487957F
:10071C0077956795B795F7959E3F08F0B0CF939571
:0E072C00880F08F09927EE0F9795879508958E
:10073A00E89409C097FB3EF4909580957095619571
:10074A007F4F8F4F9F4F9923A9F0F92F96E9BB2727
:10075A009395F695879577956795B795F111F8CFA3
:10076A00FAF4BB0F11F460FF1BC06F5F7F4F8F4F0E
:10077A009F4F16C0882311F096E911C0772321F004
:10078A009EE8872F762F05C0662371F096E8862F9C
:10079A0070E060E02AF09A95660F771F881FDAF7F3
:0A07AA00880F9695879597F908953A
:1007B4001F920F920FB60F9211248F939F93EF9372
:1007C400FF9380910801909109010196909309018A
:1007D4008093080180910801909109018436910564
:1007E400C9F41092090110920801809111018F5FE0
:1007F40080931101809111018C3319F4109211012D
:1008040009C080911101853029F4E1E8F0E080818C
:1008140085608083FF91EF919F918F910F900FBE20
:060824000F901F901895D3
:10082A001F920F920FB60F9211248F939F93EF93FB
:10083A00FF9380911001882351F0E1E8F0E0808174
:10084A008F7B808310928500109284000FC0809164
:10085A0086009091870090930D0180930C01E1E846
:10086A00F0E0808180648083808180839091100190
:10087A0081E0892780931001FF91EF919F918F91D9
:0A088A000F900FBE0F901F901895FD
:100894000E941B0588F09F5798F0B92F9927B751EC
:1008A400B0F0E1F0660F771F881F991F1AF0BA9510
:1008B400C9F714C0B13091F00E940506B1E0089563
:1008C4000C940506672F782F8827B85F39F0B93F55
:1008D400CCF3869577956795B395D9F73EF49095C3
:0E08E4008095709561957F4F8F4F9F4F0895BF
:1008F2000E941B0510F40C942906E894E0E0BB2743
:100902009F57F0F02AED3FE049EC06C0EE0FBB0F17
:10091200661F771F881F28F0B23A620773078407A1
:1009220028F0B25A620B730B840BE3959A9572F717
:10093200803830F49A95BB0F661F771F881FD2F755
:0609420090480C94C3056F
:10094800DF93CF931F930F93FF92EF92DF927B0178
:100958008C01689406C0DA2EEF010E94CC02FE01D9
:10096800E894A5912591359145915591A6F3EF010C
:100978000E943603FE019701A801DA9469F7DF9017
:0E098800EF90FF900F911F91CF91DF91089596
:10099600F8940E94CF050E9485050E9494050E9446
:1009A600A3050E94DC051AB81BB8789463E08BE7B0
:1009B60090E00E94790084E60E94E80564E088EBF6
:1009C60098E00E94790088E70E94E80565E084E3E4
:0809D60092E80E947900FFCFB6
:1009DE00990F0008550FAA0BE0E8FEEF1616170642
:1009EE00E807F907C0F012161306E407F50798F0AA
:1009FE00621B730B840B950B39F40A2661F0232BC3
:100A0E00242B252B21F408950A2609F4A140A6953E
:080A1E008FEF811D811D089579
:100A260057FD9058440F551F59F05F3F71F0479599
:100A3600880F97FB991F61F09F3F79F0879508957E
:100A4600121613061406551FF2CF4695F1DF08C09D
:100A5600161617061806991FF1CF869571056105BA
:040A66000894089553
:100A6A00CF93DF93161617067CF4DC01680F791F03
:100A7A00E0ECF0E0C6ECD0E0908195FFFDCF9D91CF
:0E0A8A009883A617B707C1F7DF91CF910895A3
:100A9800EF93E0FF07C0A2EA2AED3FE049EC5FEBE5
:100AA8000E9436030E9474050F90039401FC90582D
:080AB800E8E6F0E00C94600593
:100AC0009F938F937F936F93FF93EF939B01AC0161
:100AD0000E942506EF91FF910E94A4042F913F915F
:080AE0004F915F910C94250673
:100AE800092E0394000C11F4882352F0BB0F40F434
:100AF800BF2B11F460FF04C06F5F7F4F8F4F9F4F74
:020B080008954E
:100B0A008BB18C608BB9E9E6F0E0808183608083E9
:0E0B1A008081846080838DB383608DBB0895DD
:100B280084B58E7F84BD84B58D7F84BD85B5877F70
:0E0B380085BDEEE6F0E0808181608083089547
:100B46001092850010928400E1E8F0E080818064D4
:0E0B56008083EFE6F0E0808181628083089565
:100B6400A29FB001B39FC001A39F700D811D1124EA
:0E0B7400911DB29F700D811D1124911D0895D9
:100B82009F3F31F0915020F4879577956795B795FF
:0C0B9200880F911D9695879597F908959E
:100B9E0055985D9AE8E6F0E0808184608083EDE60A
:0A0BAE00F0E08081806280830895EA
:100BB8001092C50087E68093C40088E18093C10045
:080BC8008EE08093C200089545
:100BD000E0ECF0E0908195FFFDCF8093C600089592
:0E0BE0005058BB27AA270E9436030C947405B8
:0E0BEE0000240A941616170618060906089524
:0E0BFC0000240A941216130614060506089526
:0E0C0A00E894BB2766277727CB0197F908955A
:0C0C180097F99F6780E870E060E00895A5
:0A0C24000E94EF0408F481E0089537
:0A0C2E000E947904E3950C944C0534
:0A0C38000E94EF0408F48FEF089506
:080C42000E945D020C94740590
:080C4A000E94CC020C94740519
:060C52009FEF80EC089505
:040C58000C940000F8
:040C5C00DB0F494021
:020C60006E0024
:010C62000190
:00000001FF
