:100000000C943D000C947E010C94BA020C94CC022A
:100010000C94CC020C94CC020C94CC020C94CC0228
:100020000C94CC020C94CC020C94F9010C94CC02EC
:100030000C94CC020C94CC020C94CC020C94CC0208
:100040000C94BE010C94CC020C94CC020C94CC0207
:100050000C94CC020C94CC020C94CC020C94CC02E8
:100060000C94CC020C94CC02010001068001060124
:100070000700059C01070108800011241FBECFEF77
:10008000D8E0DEBFCDBFE8E6F0E040E017C0B591B4
:10009000A59135912591059107FD0CC0959185910C
:1000A000EF01F92FE82F05900D92A217B307D9F7AA
:1000B000FE0104C01D92A217B307E1F7E937F40768
:0E00C00031F70E9457020C946500F894FFCFB0
:1000CE009F92AF92BF92CF92DF92EF92FF920F93D9
:1000DE001F93CF93DF9300D000D000D0CDB7DEB703
:1000EE006C01962E9C01ADECBCEC0E9487027C014B
:1000FE00F694E794F694E794F694E7949701220F1A
:10010E00331FC701880F991F880F991F880F991FDA
:10011E00820F931F7601E81AF90A96010E94870250
:10012E00FC01F695E795F695E795F695E7959F010F
:10013E000E948702AC015695479556954795569560
:10014E004795CA01880F991F440F551F440F551F1D
:10015E00440F551F480F591FCF01841B950BAC013F
:10016E0096013695279536952795ABE7B4E10E9413
:10017E0087028C01169507959801ADECBCEC0E9498
:10018E008702FC01F695E795F695E795F695E795C6
:10019E00CF01880F991FEE0FFF1FEE0FFF1FEE0FFF
:1001AE00FF1FE80FF91FC8018E1B9F0BFC01960164
:1001BE00369527953695279536952795A5ECB0E279
:1001CE000E9487025C01B694A794B694A794B69445
:1001DE00A794B694A7949501ADECBCEC0E9487024F
:1001EE008C01169507951695079516950795C801D6
:1001FE00880F991F000F111F000F111F000F111FE5
:10020E00080F191FC501801B910B8C0193E09912E9
:10021E000EC0E05DE983405D4A8380E38E0D8B83E3
:10022E0063E070E0CE0101960E942E024EC084E083
:10023E00981212C0005D0983E05DEA838CE28B8325
:10024E00405D4C8380E38E0D8D8365E070E0CE01C2
:10025E0001960E942E0239C095E0991223C0960194
:10026E00329522952F7023273F702327A7E4B3E002
:10027E000E94870296958795969587959695879570
:10028E00805D8983005D0A83E05DEB838CE28C8365
:10029E00405D4D83EE8266E070E0CE0101960E94D5
:1002AE002E0213C0E05DE983405D4A838CE28B83AE
:1002BE0080E38E0D8C838DE68D8383E78E8366E0DF
:1002CE0070E0CE0101960E942E0226960FB6F8948B
:1002DE00DEBF0FBECDBFDF91CF911F910F91FF906B
:0E02EE00EF90DF90CF90BF90AF909F9008955B
:1002FC001F920F920FB60F9211242F933F934F938F
:10030C005F936F937F938F939F93AF93BF93EF9371
:10031C00FF93809104019091050143EA489F90015D
:10032C00499F300D1124232F332784E690E0821B44
:10033C00930B9093030180930201809102019091A1
:10034C00030163E00E94670083E70E94C402FF91EF
:10035C00EF91BF91AF919F918F917F916F915F9131
:10036C004F913F912F910F900FBE0F901F901895AA
:10037C001F920F920FB60F9211248F939F93EF93AE
:10038C00FF938091000190910101019690930101DE
:10039C0080930001809100019091010184369105B8
:1003AC00C9F41092010110920001809107018F5F36
:1003BC0080930701809107018C3319F41092070187
:1003CC0009C0809107018E3129F4E1E8F0E08081C9
:1003DC0085608083FF91EF919F918F910F900FBE5D
:0603EC000F901F90189510
:1003F2001F920F920FB60F9211248F939F93EF9338
:10040200FF9380910601882351F0E1E8F0E08081BA
:100412008F7B808310928500109284000FC08091A0
:100422008600909187009093050180930401E1E892
:10043200F0E08081806480838081808390910601D6
:1004420081E0892780930601FF91EF919F918F911F
:0A0452000F900FBE0F901F90189539
:10045C00CF93DF93161617067CF4DC01680F791F17
:10046C00E0ECF0E0C6ECD0E0908195FFFDCF9D91E3
:0E047C009883A617B707C1F7DF91CF910895B7
:10048A001092850010928400E1E8F0E08081806497
:10049A008083AFE6B0E08C9181628C938081856025
:0404AA0080830895AE
:1004AE00F8940E9496020E9469020E9478020E94AD
:1004BE0045020E94A30280E18AB91BB878940E947B
:0404CE00AF02FFCFAB
:1004D2008BB18C608BB9E9E6F0E080818360808328
:0E04E2008081846080838DB383608DBB08951C
:1004F00084B58E7F84BD84B58D7F84BD85B5877FAF
:0E05000085BDEEE6F0E0808181608083089585
:10050E00A29FB001B39FC001A39F700D811D112446
:0E051E00911DB29F700D811D1124911D089535
:10052C0055985D9AE8E6F0E0808184608083EDE682
:0A053C00F0E0808180628083089562
:100546001092C50087E68093C40088E18093C100BD
:080556008EE08093C2000895BD
:10055E0086E086BD85B5816085BD85B5826085BD29
:06056E0085B585BD08956E
:100574001F920F920FB60F9211240F900FBE0F907F
:040584001F90189517
:10058800E0ECF0E0908195FFFDCF8093C6000895E0
:040598000C940000BF
:01059C00015D
:00000001FF
