:100000000C9449000C94CC080C94B3070C94900900
:100010000C9490090C9490090C9490090C949009FC
:100020000C9490090C9490090C945A020C94900929
:100030000C9490090C9490090C9490090C949009DC
:100040000C941F070C9490090C9411060C949009C1
:100050000C9490090C9473000C9490090C949009E2
:100060000C9490090C94900905A84CCDB2D44EB9CB
:100070003836A9020C50B9918688083CA6AAAA2A4B
:10008000BE000000803F01000124800124012900FE
:10009000132411241FBECFEFD8E0DEBFCDBFE6E8AA
:1000A000F0E040E017C0B591A591359125910591FB
:1000B00007FD0CC095918591EF01F92FE82F059070
:1000C0000D92A217B307D9F7FE0104C01D92A21723
:1000D000B307E1F7E239F40731F70E94F2020C941A
:0600E0007100F894FFCF4F
:1000E6001F920F920FB60F921124CF92DF92EF92CA
:1000F600FF922F933F934F935F936F937F938F93CB
:100106009F93AF93BF93CF93DF93EF93FF9380912A
:100116000001811146C06091780070917900C0910C
:100126001D01D0911E0180E090E00E9450062DEC4A
:100136003CEC4CE45DE30E9489096B017C01BE0145
:1001460080E090E00E94500623E333E343E75FE359
:100156000E9489099B01AC01C701B6010E9458099A
:100166000E94C50670931E0160931D0160911D01DA
:1001760070911E0180E090E00E94500626E636EA65
:1001860040E753E40E94890920E030E040E85AE362
:100196000E9489090E94C50670930A0160930901AD
:1001A600A8C0813009F0A0C08091050181114EC020
:1001B600C0917800D091790023E333E343E75FE30E
:1001C600609120017091210180912201909123017B
:1001D6000E9489096B017C01BE0180E090E00E94CB
:1001E60050062DEC3CEC4CE45DE30E9489099B0132
:1001F600AC01C701B6010E9458096B017C016093EE
:100206002001709321018093220190932301609134
:10021600090170910A0180E090E00E945006A70152
:1002260096010E94890920E030E040E85AE30E94E6
:1002360089090E94C50660930F0181E480937C00C2
:10024600809105018F5F8093050153C0609178000E
:1002560070917900C0911D01D0911E0180E090E05F
:100266000E9450062DEC3CEC4CE45DE30E948909AB
:100276006B017C01BE0180E090E00E94500623E302
:1002860033E343E75FE30E9489099B01AC01C701A1
:10029600B6010E9458090E94C50670931E0160931C
:1002A6001D0160911D0170911E0180E090E00E9489
:1002B600500626E636EA40E753E40E94890920E024
:1002C60030E040E85AE30E9489090E94C50670930F
:1002D6000A016093090180E480937C008091050106
:1002E60081508093050105C01092000181E480933E
:1002F6007C00FF91EF91DF91CF91BF91AF919F91DC
:100306008F917F916F915F914F913F912F91FF90C8
:10031600EF90DF90CF900F900FBE0F901F90189523
:100326004F925F926F927F928F929F92AF92BF92FF
:10033600CF92DF92EF92FF92CF93DF93C0910901A4
:10034600D0910A01C09001016091010170E080E046
:1003560090E00E9452062BED3FE049E450E40E94F3
:10036600890920E030E044EB52E40E9485090E94AE
:1003760047094B015C01D12CE12CF12CC701B601D8
:100386000E9452062BED3FE049E450E40E948909A1
:1003960020E030E044EB52E40E948509A501940177
:1003A6000E9457090E9488054B015C01F0900101EB
:1003B6006091010170E080E090E00E9452062BED12
:1003C6003FE049E450E40E94890920E030E044E33C
:1003D60053E40E9485099B01AC010E9458090E94C2
:1003E60047092B013C016F2D70E080E090E00E94F0
:1003F60052062BED3FE049E450E40E94890920E0D3
:1004060030E044E353E40E9485099B01AC016BEDA7
:100416007FE089E490E40E9457092FE73FE64DE824
:1004260051E40E9489096B017C0120E030E0A901BA
:10043600C301B2010E9489099B01AC01C701B60143
:100446000E9458096B017C01BE0180E090E00E9489
:10045600500625EC3FED42EE5FE30E94890923EF4B
:1004660034E045EB5FE30E948909A50194010E94EF
:1004760089092BED3FE049EC50E40E9485099B0178
:10048600AC01C701B6010E9458090E94C506CB01FE
:10049600DF91CF91FF90EF90DF90CF90BF90AF901C
:0E04A6009F908F907F906F905F904F90089581
:1004B4001F920F920FB60F9211242F933F934F93D5
:1004C4005F936F937F938F939F93AF93BF93EF93B8
:1004D400FF93809127018130F9F4E1E8F0E0808115
:1004E4008F7B80838091190190911A01A0911B0147
:1004F400B0911C0180930B0190930C01A0930D010A
:10050400B0930E011092850010928400809127010F
:100514008F5F8093270153C020918600309187001C
:10052400ACECBCE00E94FD08AC016627772788EE9E
:1005340093E0A0E0B0E0841B950BA60BB70B80936F
:10054400190190931A01A0931B01B0931C014091CF
:10055400190150911A0160911B0170911C01809145
:100564000B0190910C01A0910D01B0910E01841723
:100574009507A607B70748F08091190190911A01D1
:10058400A0911B01B0911C0108C0809114019091AD
:100594001501A0911601B091170180931401909355
:1005A4001501A0931601B0931701E1E8F0E08081F2
:1005B4008064808380912701815080932701FF917B
:1005C400EF91BF91AF919F918F917F916F915F91C7
:1005D4004F913F912F910F900FBE0F901F90189540
:1005E400F8940E94EE080E94E9070E94BA080E944B
:1005F4002F080E941A090E94D00780E18AB97894D2
:100604006FE071E080E690E00E949508809313010A
:10061400C1E8D0E000E211E00F2EF8EECF2EF3E0B7
:10062400DF2EE12CF12CF02D809102018431E1F7D1
:1006340080910F01883320F080911801882349F0BC
:10064400F89488818883789410922601009310018D
:100654001FC0F8948881826088837894109326015F
:100664002091140130911501409116015091170108
:10067400A4EBB0E00E943C09A70196010E949107F7
:10068400209301010E949301809310010E94CF05E1
:1006940080911001612F90E00E94750380910901FF
:1006A40090910A0162E00E94750380910F0163E05A
:1006B40090E00E9475038091010164E090E00E9443
:1006C40075036091100170E080E090E00E943505B0
:1006D40060910F0180E690E00E948D0680931301E3
:0606E40010920201A1CFFB
:1006EA001F93CF93DF9300D000D0CDB7DEB7FC01C4
:1006FA00162F8AE289839F01369527953695279585
:10070A00ABE7B4E10E94FD08AC01569547959A0102
:10071A00ADECBCEC0E94FD08969587959695879559
:10072A00969587959C01220F331F880F991F880F72
:10073A00991F880F991F820F931F481B590B405D01
:10074A004A839F010E94FD08AC015695479556952C
:10075A004795569547959A010E94FD089695879563
:10076A0096958795969587959C01220F331F880F3A
:10077A00991F880F991F880F991F820F931F9A013B
:10078A00281B390BC901805D8B83CA01880F991F09
:10079A00440F551F440F551F440F551F480F591F2B
:1007AA00E41BF50BE05DEC83123039F0133041F0B5
:1007BA00113041F484E2898305C085E2898302C04D
:1007CA0080E4898364E070E0CE0101960E9401080A
:1007DA000F900F900F900F90DF91CF911F91089576
:1007EA0010C00E94650958F00E945E0940F029F481
:1007FA005F3F29F00C947A0951110C946D090C94FD
:10080A008D090E946F0768F39923B1F3552391F379
:10081A00951B550BBB27AA2762177307840738F065
:10082A009F5F5F4F220F331F441FAA1FA9F335D0C2
:10083A000E2E3AF0E0E832D091505040E695001C76
:10084A00CAF72BD0FE2F29D0660F771F881FBB1F30
:10085A00261737074807AB07B0E809F0BB0B802D0E
:10086A00BF01FF2793585F4F3AF09E3F510578F03A
:10087A000C947A090C946D095F3FE4F3983ED4F323
:10088A00869577956795B795F7959F5FC9F7880F0E
:10089A00911D9695879597F90895E1E0660F771F60
:1008AA00881FBB1F621773078407BA0720F0621BF1
:0E08BA00730B840BBA0BEE1F88F7E0950895C0
:1008C8000FC00E945E0938F00E94650920F0952348
:1008D80011F00C947A090C948D0911240C946D096B
:1008E8000E946F0770F3959FC1F3950F50E0551F55
:1008F800629FF001729FBB27F00DB11D639FAA276D
:10090800F00DB11DAA1F649F6627B00DA11D661FBB
:10091800829F2227B00DA11D621F739FB00DA11DDC
:10092800621F839FA00D611D221F749F3327A00D96
:10093800611D231F849F600D211D822F762F6A2F32
:1009480011249F5750409AF0F1F088234AF0EE0F97
:10095800FF1FBB1F661F771F881F91505040A9F7C4
:100968009E3F510580F00C947A090C946D095F3F05
:10097800E4F3983ED4F3869577956795B795F79500
:10098800E7959F5FC1F7FE2B880F911D9695879578
:0409980097F908952E
:10099C0011C00E945E0938F00E94650920F039F4FC
:1009AC009F3F19F426F40C948D090EF4E095E7FBA7
:1009BC000C947A09E92F0E946F0758F3BA17620753
:1009CC0073078407950720F079F4A6F50C946C094D
:1009DC000EF4E0950B2EBA2FA02D0B01B90190014E
:1009EC000C01CA01A0011124FF27591B99F0593F92
:1009FC0050F4503E68F11A16F040A22F232F342FDA
:100A0C004427585FF3CF469537952795A795F04027
:100A1C005395C9F77EF41F16BA0B620B730B840B3C
:100A2C00BAF09150A1F0FF0FBB1F661F771F881FF4
:100A3C00C2F70EC0BA0F621F731F841F48F487954C
:100A4C0077956795B795F7959E3F08F0B0CF93953E
:0E0A5C00880F08F09927EE0F9795879508955B
:100A6A00CF92DF92EF92FF921F93CF93DF9300D042
:100A7A0000D0CDB7DEB769837A838B839C830E94CB
:100A8A00310989819A81AB81BC81892B8A2B8B2B75
:100A9A0031F46091250181E00E94260928C010E006
:100AAA000F2EFAE0CF2ED12CE12CF12CF02D6981FA
:100ABA007A818B819C811F5FA70196010E94180889
:100ACA00812F0E94260969817A818B819C81A701E5
:100ADA0096010E94180829833A834B835C83898193
:100AEA009A81AB81BC81892B8A2B8B2B01F70F90C2
:100AFA000F900F900F90DF91CF911F91FF90EF9081
:060B0A00DF90CF9008957A
:100B100006C019F416F40C948D090C940C090E946B
:100B20007707B8F39923C9F3B6F39F57550B87FF9F
:100B30000E9473090024A0E640EA9001805856956F
:100B4000979528F4805C660F771F881F20F0261782
:100B50003707480730F4621B730B840B20293129B7
:100B60004A2BA69517940794202531254A2758F734
:100B7000660F771F881F20F026173707480730F4C5
:100B8000620B730B840B200D311D411DA09581F765
:0E0B9000B901842F9158880F96958795089586
:100B9E0020910F0130911001822F90E0831B91095B
:100BAE00D9F0409110016091090170910A0150E055
:100BBE004F5F5F4F4617570778F420911101309120
:100BCE00120163E070E00E946D08260F371F30930C
:100BDE001201209311010895809110014091090195
:100BEE0050910A0190E001968417950790F040917C
:100BFE00090150910A01822F90E08417950748F45D
:100C0E00809111019091120144979093120180935B
:040C1E001101089523
:100C22001F920F920FB60F9211242F938F939F93BF
:100C32008091C6008093280180912801883789F02D
:100C4200813A19F08F3689F409C081E090E09093DF
:100C520008018093070110920F0119C01092180128
:100C620016C081E08093180112C080912801209162
:100C7200070190910F018053299F800D11248093C9
:100C82000F018AE090E090930801809307019F9101
:0E0C92008F912F910F900FBE0F901F9018950D
:100CA000E89409C097FB3EF4909580957095619506
:100CB0007F4F8F4F9F4F9923A9F0F92F96E9BB27BC
:100CC0009395F695879577956795B795F111F8CF38
:100CD000FAF4BB0F11F460FF1BC06F5F7F4F8F4FA3
:100CE0009F4F16C0882311F096E911C0772321F099
:100CF0009EE8872F762F05C0662371F096E8862F31
:100D000070E060E02AF09A95660F771F881FDAF787
:0A0D1000880F9695879597F90895CE
:100D1A000F931F93CF93DF9300D0CDB7DEB76A83CB
:100D2A00811524E0920710F58C011982BE016F5FCC
:100D3A007F4F0E94950881111CC08A81998198175A
:100D4A00B9F06A81C8010E94A808811112C0BE01C7
:100D5A006F5F7F4FC8010E94950881110AC09A816E
:100D6A0081E02981291305C080E003C082E001C027
:100D7A0080E00F900F90DF91CF911F910F9108950E
:100D8A000E94770788F09F5798F0B92F9927B75193
:100D9A00B0F0E1F0660F771F881F991F1AF0BA9515
:100DAA00C9F714C0B13091F00E946C09B1E00895FE
:100DBA000C946C09672F782F8827B85F39F0B93FF0
:100DCA00CCF3869577956795B395D9F73EF49095C8
:0E0DDA008095709561957F4F8F4F9F4F0895C4
:100DE8000E94770710F40C948D09E894E0E0BB2783
:100DF8009F57F0F02AED3FE049EC06C0EE0FBB0F1D
:100E0800661F771F881F28F0B23A620773078407A6
:100E180028F0B25A620B730B840BE3959A9572F71C
:100E2800803830F49A95BB0F661F771F881FD2F75A
:060E380090480C940E0925
:100E3E001F920F920FB60F9211242F933F938F9301
:100E4E009F93809103019091040101969093040168
:100E5E0080930301209103013091040180911101CF
:100E6E00909112012817390708F01BB88CEE86BD39
:100E7E009F918F913F912F910F900FBE0F901F90CA
:020E8E001895B5
:100E9000DF93CF931F930F93FF92EF92DF927B012B
:100EA0008C01689406C0DA2EEF010E946404FE01F2
:100EB000E894A5912591359145915591A6F3EF01BF
:100EC0000E94CE04FE019701A801DA9469F7DF9031
:0E0ED000EF90FF900F911F91CF91DF91089549
:100EDE0057FD9058440F551F59F05F3F71F04795DD
:100EEE00880F97FB991F61F09F3F79F087950895C2
:100EFE00121613061406551FF2CF4695F1DF08C0E1
:100F0E00161617061806991FF1CF869571056105FD
:040F1E000894089596
:100F2200A1E21A2EAA1BBB1BFD010DC0AA1FBB1FEB
:100F3200EE1FFF1FA217B307E407F50720F0A21B5D
:100F4200B30BE40BF50B661F771F881F991F1A94CA
:100F520069F760957095809590959B01AC01BD01F4
:040F6200CF0108951E
:100F66001F920F920FB60F9211248F938CEE86BDAF
:100F760080912601882311F080E18BB9109204013B
:100F860010920301809102018F5F809302018F917D
:0A0F96000F900FBE0F901F901895EA
:100FA00084B18C6284B98CB582658CBD6FEF89E0A9
:100FB0000E9426096091240161508BE00E9426095D
:100FC00068E08AE00E94260961E08CE00E94260920
:020FD000089582
:100FD20084B58E7F84BD84B58D7F84BD85B5877FC2
:100FE20085BDEEE6F0E08081816080838CEE86BD77
:100FF20085B585BD85B5826085BD85B585BD0895FC
:10100200CF93DF93161617067CF4DC01680F791F65
:10101200E0ECF0E0C6ECD0E0908195FFFDCF9D9131
:0E1022009883A617B707C1F7DF91CF91089505
:10103000052E97FB1EF400940E944F0957FD07D020
:101040000E94910707FC03D04EF40C944F09509571
:0E1050004095309521953F4F4F4F5F4F0895CB
:10105E00ECE7F0E080818064808380818160808312
:10106E00EAE7F0E080818F6A8083ABE7B0E08C9195
:0C107E0087608C938081806480830895DB
:10108A00EF93E0FF07C0A2EA2AED3FE049EC5FEBED
:10109A000E94CE040E94DD080F90039401FC905830
:0810AA00E8E6F0E00C9459089F
:1010B2009F938F937F936F93FF93EF939B01AC0169
:1010C2000E948909EF91FF910E9448072F913F9159
:0810D2004F915F910C94890914
:1010DA0097FB072E16F4009407D077FD09D00E94DB
:1010EA00810807FC05D03EF4909581959F4F08959D
:0810FA00709561957F4F089588
:10110200AA1BBB1B51E107C0AA1FBB1FA617B7072B
:1011120010F0A61BB70B881F991F5A95A9F7809547
:081122009095BC01CD01089578
:10112A009C01211584E0380760F49FB3892F8270EF
:10113A0091FDFBCF32BD21BDF89A90B5FB0190839A
:06114A00089582E0089503
:101150009C01211584E0380758F49FB3892F8270D1
:1011600091FDFBCF32BD21BD60BDFA9AF99A089579
:0411700082E008957C
:101174001092850010928400E1E8F0E080818064A0
:101184008083AFE6B0E08C9181628C938081826031
:0411940080830895B7
:101198001F920F920FB60F9211248F938091000126
:1011A8008F5F809300018F910F900FBE0F901F905B
:0211B800189588
:1011BA00092E0394000C11F4882352F0BB0F40F45B
:1011CA00BF2B11F460FF04C06F5F7F4F8F4F9F4F9B
:0211DA00089576
:1011DC008BB18C608BB9E9E6F0E080818360808311
:0E11EC008081886080838DB383608DBB089501
:1011FA00A29FB001B39FC001A39F700D811D11244E
:0E120A00911DB29F700D811D1124911D08953C
:101218009F3F31F0915020F4879577956795B79562
:0C122800880F911D9695879597F9089501
:101234001092C50087E68093C40088E98093C100BA
:081244008EE08093C2000895C2
:10124C00CF93C62F2A980E9480098C2F0E94800968
:06125C002A9ACF910895CB
:10126200CF93C09124016FE08C2F0E942609C150B8
:06127200D1F7CF910895B1
:101278000E94FD08A59F900DB49F900DA49F800D1E
:06128800911D11240895E0
:10128E009F930E94F4060F9007FCEE5F0C944508A6
:10129E0090958095709561957F4F8F4F9F4F0895D4
:0E12AE005058BB27AA270E94CE040C94DD08DE
:0E12BC0000240A94161617061806090608954F
:0E12CA0000240A941216130614060506089551
:0E12D800E894BB2766277727CB0197F9089586
:0E12E60091505040660F771F881FD2F7089571
:0C12F40097F99F6780E870E060E00895C3
:0A1300008EBD0DB407FEFDCF089569
:08130A000E94F5030C94DD08BC
:081312000E9464040C94DD0844
:06131A009FEF80EC089536
:041320000C94000029
:0113240008C0
:011325003E89
:0113260001C5
:0113270001C4
:011328006F55
:00000001FF
