:100000000C946F000C942E030C94CD0B0C942F0CBD
:100010000C942F0C0C942F0C0C942F0C0C942F0C74
:100020000C942F0C0C942F0C0C9409080C942F0C8E
:100030000C942F0C0C942F0C0C942F0C0C942F0C54
:100040000C94E0080C942F0C0C942F0C0C942F0C97
:100050000C942F0C0C942F0C0C942F0C0C942F0C34
:100060000C942F0C0C942F0C072C7AA5BA6CC5900D
:10007000DA3B9365FC8BBC53F810FD3C5692834DE4
:10008000BD879D3AB63DCBC9BF5BBE73DA0FC93F92
:1000900005A84CCDB2D44EB93836A9020C50B9914E
:1000A0008688083CA6AAAA2ABE000000803F01005C
:1000B00001040018620104011280011201140018E9
:1000C0006601140116800116011900186801190152
:1000D0001B80011B011D00186B011D011E801124D6
:1000E0001FBECFEFD8E0DEBFCDBFEEEAF0E040E0CC
:1000F00017C0B591A59135912591059107FD0CC0CB
:1001000095918591EF01F92FE82F05900D92A21797
:10011000B307D9F7FE0104C01D92A217B307E1F798
:10012000EE3DF40731F70E9401040C949700F89417
:02013000FFCFFF
:1001320053656C656363696F6E65206C61206163F2
:1001420063696F6E207175652064657365652072E1
:1001520065616C697A61723A200A0D0020312E20A5
:100162004D6F64696669636172206C612054656ECB
:1001720073696F6E206465205265642E200A0D003B
:1001820020322E204D6F64696669636172206C6152
:100192002054656E73696F6E2064656C2044696DCE
:1001A2006D65722E200A0D00207C20202054656E81
:1001B20073696F6E206465205265642020207C2064
:1001C20054656E73696F6E2064652044696D6D6558
:1001D20072207C54656E73696F6E20656E206C614F
:1001E2002043617267617C2020546F6E2020207C46
:1001F20020416E67756C6F207C200A0D00207C20E8
:1002020020202020202020005620202020202020D6
:10021200207C20202020202020005620202020206A
:10022200207C2000207C20200053652065737461AF
:10023200626C6563696F20656C2076616C6F7220F9
:10024200696E6772657361646F3A200A00416C657A
:10025200727461212C20696E6772657365206F74F8
:0C026200726F2076616C6F722E200A0013
:10026E009F92AF92BF92CF92DF92EF92FF920F9337
:10027E001F93CF93DF9300D000D000D0CDB7DEB761
:10028E006C01962E9C01ADECBCEC0E94690B7C01BE
:10029E00F694E794F694E794F694E7949701220F78
:1002AE00331FC701880F991F880F991F880F991F39
:1002BE00820F931F7601E81AF90A96010E94690BC4
:1002CE00FC01F695E795F695E795F695E7959F016E
:1002DE000E94690BAC0156954795569547955695D4
:1002EE004795CA01880F991F440F551F440F551F7C
:1002FE00440F551F480F591FCF01841B950BAC019E
:10030E0096013695279536952795ABE7B4E10E9471
:10031E00690B8C01169507959801ADECBCEC0E940B
:10032E00690BFC01F695E795F695E795F695E79539
:10033E00CF01880F991FEE0FFF1FEE0FFF1FEE0F5D
:10034E00FF1FE80FF91FC8018E1B9F0BFC019601C2
:10035E00369527953695279536952795A5ECB0E2D7
:10036E000E94690B5C01B694A794B694A794B694B8
:10037E00A794B694A7949501ADECBCEC0E94690BC2
:10038E008C01169507951695079516950795C80134
:10039E00880F991F000F111F000F111F000F111F43
:1003AE00080F191FC501801B910B8C0193E0991248
:1003BE000EC0E05DE983405D4A8380E38E0D8B8342
:1003CE0063E070E0CE0101960E94C10A4EC084E047
:1003DE00981212C0005D0983E05DEA838CE28B8384
:1003EE00405D4C8380E38E0D8D8365E070E0CE0121
:1003FE0001960E94C10A39C095E0991223C0960158
:10040E00329522952F7023273F702327A7E4B3E060
:10041E000E94690B969587959695879596958795E3
:10042E00805D8983005D0A83E05DEB838CE28C83C3
:10043E00405D4D83EE8266E070E0CE0101960E9433
:10044E00C10A13C0E05DE983405D4A838CE28B8371
:10045E0080E38E0D8C838DE68D8383E78E8366E03D
:10046E0070E0CE0101960E94C10A26960FB6F8944E
:10047E00DEBF0FBECDBFDF91CF911F910F91FF90C9
:0E048E00EF90DF90CF90BF90AF909F900895B9
:10049C00CF93DF93CDB7DEB7CD5FD1090FB6F8940C
:1004AC00DEBF0FBECDBF22E331E040E08CE2F901AC
:1004BC00DE011196742F0E94930B6CE270E0CE015A
:1004CC0001960E94C10A2EE531E040E084E2F90178
:1004DC00DE019D96742F0E94930B64E270E0CE01B6
:1004EC008D960E94C10A22E831E040E088E2F901D1
:1004FC00DE01AF5ABF4F742F0E94930B68E270E07D
:10050C00CE018F5A9F4F0E94C10A2AEA31E040E087
:10051C0085E5F901DE01A758BF4F742F0E94930B9C
:10052C0065E570E0CE0187589F4F0E94C10A2FEFFE
:10053C0031E040E08BE0F901DE01A253BF4F742F94
:10054C000E94930B2AE032E040E082E1F901DE01E7
:10055C00A752BF4F742F0E94930B6BE070E0CE013B
:10056C0082539F4F0E94C10A8091160190911701EE
:10057C0063E00E94370162E170E0CE0187529F4F29
:10058C000E94C10A809112019091130163E00E94B4
:10059C00370162E170E0CE0187529F4F0E94C10A81
:1005AC000E94720565E00E9437012CE132E040E0C8
:1005BC008AE0F901DE01A551BF4F742F0E94930B05
:1005CC0026E232E040E085E0F901DE01AB50BF4F9E
:1005DC00742F0E94930B6AE070E0CE0185519F4FFF
:1005EC000E94C10A80910A0190910B0166E00E9461
:1005FC00370165E070E0CE018B509F4F0E94C10A1D
:10060C008FE890E2C650DF4F99838883CA5FD04051
:10061C008CE790E0C450DF4F99838883CC5FD04047
:10062C00809108019091090163E00E94370164E018
:10063C0070E0CE0186509F4F0E94C10AC350DF4F1D
:10064C000FB6F894DEBF0FBECDBFDF91CF910895EA
:10065C001F920F920FB60F9211244F925F926F92CE
:10066C007F928F929F92AF92BF92CF92DF92EF9236
:10067C00FF922F933F934F935F936F937F938F933F
:10068C009F93AF93BF93CF93EF93FF9380911C01F4
:10069C00882309F492C080E18BB9609106017091B6
:1006AC00070180E090E00E941E096B017C012BEA9F
:1006BC003AEA4AEA50E40E94280C4B015C0120E023
:1006CC0030E040E85FE30E94150C88230CF470C006
:1006DC0020E030E040E850E4C701B6010E94280C4D
:1006EC002B013C0120E03FEF4FE757E40E941F0C29
:1006FC0018160CF045C020E030E04AE754E4C7017E
:10070C00B6010E94240C4B015C0120E030E04AE76A
:10071C0055E40E94280C6B017C0120E030E040E89D
:10072C005FE30E94150C88232CF120E03FEF4FE78C
:10073C0057E4C701B6010E941F0C1816B4F420E050
:10074C0030E040E251E4C501B4010E94280C0E9443
:10075C005B096115710569F120E931E0C901019767
:10076C00F1F761507109D1F724C0C701B6010E949D
:10077C005B0902C061E070E0CB010197F1F719C091
:10078C0020E030E04FE753E4C501B4010E941F0C98
:10079C00181644F4C301B2010E945B09CB01019706
:1007AC00F1F70AC0C501B4010E945B09C62F01C054
:1007BC00C1E06C2F6A95F1F71BB8FF91EF91CF91C7
:1007CC00BF91AF919F918F917F916F915F914F915D
:1007DC003F912F91FF90EF90DF90CF90BF90AF9013
:1007EC009F908F907F906F905F904F900F900FBE67
:0607FC000F901F901895FC
:10080200F8940E94860B0E944B0B0E945A0B0E9486
:10081200170B0E94A00B0E94A80A80E18AB91BB89C
:1008220078940E94C20B0E944E0280911201909114
:1008320013010E94CC0690930701809306010E9447
:10084200720590930F0180930E0180911201909195
:10085200130120910E0130910F0101968217930727
:10086200F8F080910E0190910F01019690930F0183
:1008720080930E0180910E0190910F010E94CC068F
:1008820090930701809306018091120190911301C8
:1008920020910E0130910F0101968217930708F7FC
:1008A200809112019091130120910E0130910F015C
:1008B200019728173907F8F080910E0190910F01E6
:1008C200019790930F0180930E0180910E019091F8
:1008D2000F010E94CC06909307018093060180913C
:1008E20012019091130120910E0130910F01019795
:0C08F2002817390708F70E94890AA1CFD7
:1008FE00BF92CF92DF92EF92FF920F931F93CF93FF
:10090E00DF9300D000D0CDB7DEB769837A838B83B7
:10091E009C83042F89819A81AB81BC81BB2394F483
:10092E0089819A81AB81BC81B095A0959095819576
:10093E009F4FAF4FBF4F89839A83AB83BC83BB243A
:10094E00B39401C0B12C0E94B70B89819A81AB81FF
:10095E00BC81892B8A2B8B2B29F460E081E00E94CD
:10096E00AC0B32C010E00F2EFAE0CF2ED12CE12CC2
:10097E00F12CF02D69817A818B819C811F5FA701FB
:10098E0096010E94D80A812F0E94AC0B69817A8150
:10099E008B819C81A70196010E94D80A29833A83F4
:1009AE004B835C8389819A81AB81BC81892B8A2B95
:1009BE008B2B01F7602F87E00E94AC0BBB2021F040
:1009CE006AE0812F0E94AC0B0F900F900F900F904A
:1009DE00DF91CF911F910F91FF90EF90DF90CF900D
:0409EE00BF90089519
:1009F200CF93DF93CDB7DEB7A4970FB6F894DEBFDF
:100A02000FBECDBF609112017091130180E090E0A2
:100A120042E050E00E947F0460E171E089E191E0F0
:100A22000E949F0880911601909117012091100158
:100A3200309111010B9728173907D0F580911001D9
:100A4200909111010597A0F18091100190911101EF
:100A520090931301809312012BE232E040E084E292
:100A6200F901DE011196742F0E94930B64E270E08B
:100A7200CE0101960E94C10A809112019091130148
:100A820063E00E943701609112017091130180E0CE
:100A920090E042E050E00E947F0480911201909128
:100AA20013010E94CC06909307018093060110C0A7
:100AB2002FE432E040E08FE1F901DE011196742F5C
:100AC2000E94930B6FE170E0CE0101960E94C10A71
:100AD200A4960FB6F894DEBF0FBECDBFDF91CF91C3
:020AE200089575
:100AE4008F929F92AF92BF92CF92DF92EF92FF923A
:100AF400CF93DF9380910A0190910B0144EB489FBF
:100B04009001499F300D11243695279536952795E8
:100B1400ABE7B4E10E94690B969587959093090120
:100B240080930801C0911601D0911701C090000173
:100B3400D0900101E0900201F0900301609108015E
:100B44007091090180E090E00E941E09A7019601BE
:100B54000E94280C20E030E044E353E40E94240C7B
:100B64000E941A0C4B015C01BE0180E090E00E94DF
:100B74001E0923EF34E045EB5FE30E94280CA70134
:100B840096010E94240C6B017C01A501940160E094
:100B940070E080E89FE30E94E70B9B01AC01C70172
:100BA400B6010E94280C0E945B0924E6269FA0013E
:100BB400279F500D1124CA01DF91CF91FF90EF9030
:0E0BC400DF90CF90BF90AF909F908F900895DC
:100BD200CF93DF93CDB7DEB7A4970FB6F894DEBFFD
:100BE2000FBECDBF609116017091170180E090E0B9
:100BF20041E050E00E947F0464E171E089E191E00C
:100C02000E949F0880911401909115018A3F9105DD
:100C1200D0F580911401909115010A97A0F180916D
:100C220014019091150190931701809316012BE204
:100C320032E040E084E2F901DE011196742F0E9455
:100C4200930B64E270E0CE0101960E94C10A80918A
:100C520016019091170163E00E943701609116011D
:100C62007091170180E090E041E050E00E947F0423
:100C720080911201909113010E94CC06909307017A
:100C82008093060110C02FE432E040E08FE1F901C9
:100C9200DE011196742F0E94930B6FE170E0CE017A
:100CA20001960E94C10AA4960FB6F894DEBF0FBE49
:080CB200CDBFDF91CF91089541
:100CBA0010C00E94F50B58F00E94EE0B40F029F488
:100CCA005F3F29F00C940A0C51110C94FD0B0C9403
:100CDA002C0C0E94250A68F39923B1F3552391F34A
:100CEA00951B550BBB27AA2762177307840738F091
:100CFA009F5F5F4F220F331F441FAA1FA9F335D0EE
:100D0A000E2E3AF0E0E832D091505040E695001CA1
:100D1A00CAF72BD0FE2F29D0660F771F881FBB1F5B
:100D2A00261737074807AB07B0E809F0BB0B802D39
:100D3A00BF01FF2793585F4F3AF09E3F510578F065
:100D4A000C940A0C0C94FD0B5F3FE4F3983ED4F329
:100D5A00869577956795B795F7959F5FC9F7880F39
:100D6A00911D9695879597F90895E1E0660F771F8B
:100D7A00881FBB1F621773078407BA0720F0621B1C
:0E0D8A00730B840BBA0BEE1F88F7E0950895EB
:100D98008F929F92AF92BF92CF92DF92EF92FF9283
:100DA800CF93DF93C0911601D0911701C090000135
:100DB800D0900101E0900201F0900301BC0180E0B5
:100DC80090E00E941E094B015C01BE0180E090E0AA
:100DD8000E941E0923EF34E045EB5FE30E94280CD4
:100DE800A70196010E94240C9B01AC01C501B40126
:100DF8000E94240C20E030E040E85FE30E94E70B0B
:100E08000E94290B20E030E044E353E40E94280CC0
:100E1800A70196010E94240C0E945B0944E6469FA4
:100E28009001479F300D1124A3E8BDE20E94690B91
:100E380096958795929582958F7089279F708927B7
:100E4800489F9001499F300D112480E197E2821B51
:100E5800930BDF91CF91FF90EF90DF90CF90BF90F1
:080E6800AF909F908F90089558
:100E70000FC00E94EE0B38F00E94F50B20F0952376
:100E800011F00C940A0C0C942C0C11240C94FD0BF6
:100E90000E94250A70F3959FC1F3950F50E0551FEE
:100EA000629FF001729FBB27F00DB11D639FAA27BF
:100EB000F00DB11DAA1F649F6627B00DA11D661F0E
:100EC000829F2227B00DA11D621F739FB00DA11D2F
:100ED000621F839FA00D611D221F749F3327A00DE9
:100EE000611D231F849F600D211D822F762F6A2F85
:100EF00011249F5750409AF0F1F088234AF0EE0FEA
:100F0000FF1FBB1F661F771F881F91505040A9F716
:100F10009E3F510580F00C940A0C0C94FD0B5F3F32
:100F2000E4F3983ED4F3869577956795B795F79552
:100F3000E7959F5FC1F7FE2B880F911D96958795CA
:040F400097F9089580
:100F440011C00E94EE0B38F00E94F50B20F039F42A
:100F54009F3F19F426F40C942C0C0EF4E095E7FB57
:100F64000C940A0CE92F0E94250A58F3BA17620759
:100F740073078407950720F079F4A6F50C94FC0B0D
:100F84000EF4E0950B2EBA2FA02D0B01B9019001A0
:100F94000C01CA01A0011124FF27591B99F0593FE4
:100FA40050F4503E68F11A16F040A22F232F342F2C
:100FB4004427585FF3CF469537952795A795F0407A
:100FC4005395C9F77EF41F16BA0B620B730B840B8F
:100FD400BAF09150A1F0FF0FBB1F661F771F881F47
:100FE400C2F70EC0BA0F621F731F841F48F487959F
:100FF40077956795B795F7959E3F08F0B0CF939591
:0E100400880F08F09927EE0F979587950895AD
:101012001F920F920FB60F9211242F933F934F936B
:101022008F939F93EF93FF9380911B01882351F03D
:10103200E1E8F0E080818F7B80831092850010923E
:10104200840023C0809186009091870090930D01C7
:1010520080930C0180910C0190910D0143EA489F0D
:101062009001499F300D1124232F332784E690E00D
:10107200821B930B90930B0180930A01E1E8F0E04D
:101082008081806480838081808390911B0181E0D4
:10109200892780931B01FF91EF919F918F914F912F
:0E10A2003F912F910F900FBE0F901F90189549
:1010B00006C019F416F40C942C0C0C94780B0E94B6
:1010C0002D0AB8F39923C9F3B6F39F57550B87FF41
:1010D0000E94030C0024A0E640EA90018058569537
:1010E000979528F4805C660F771F881F20F02617DD
:1010F0003707480730F4621B730B840B2029312912
:101100004A2BA69517940794202531254A2758F78E
:10111000660F771F881F20F026173707480730F41F
:10112000620B730B840B200D311D411DA09581F7BF
:0E113000B901842F9158880F969587950895E0
:10113E00EF92FF920F931F93CF93DF938C01FC01DD
:10114E001082A1E0B0E0E12CF12CE0ECF0E0C6EC76
:10115E00D0E090819923ECF78881282F30E0A330DE
:10116E00B10594F4A901405351099A012E0D3F1D6A
:10117E007901EE0CFF1C220F331F220F331F220F9B
:10118E00331FE20EF31E04C0C901C097E80EF91E0C
:10119E001196A430B105E9F681E0F8018083FB01D8
:1011AE00F182E082DF91CF911F910F91FF90EF902E
:0211BE00089592
:1011C0001F920F920FB60F9211248F939F93EF935C
:1011D000FF93809104019091050101969093050180
:1011E000809304018091040190910501843691055A
:1011F000E1F4109205011092040180911D018F5FAE
:1012000080931D0180911D018C3319F410921D01F2
:101210000CC080911D018A3041F4E1E8F0E080814A
:101220008560808381E080931A01FF91EF919F9107
:0C1230008F910F900FBE0F901F9018952B
:10123C00E89409C097FB3EF4909580957095619564
:10124C007F4F8F4F9F4F9923A9F0F92F96E9BB271A
:10125C009395F695879577956795B795F111F8CF96
:10126C00FAF4BB0F11F460FF1BC06F5F7F4F8F4F01
:10127C009F4F16C0882311F096E911C0772321F0F7
:10128C009EE8872F762F05C0662371F096E8862F8F
:10129C0070E060E02AF09A95660F771F881FDAF7E6
:0A12AC00880F9695879597F908952D
:1012B6000E942D0A88F09F5798F0B92F9927B751A9
:1012C600B0F0E1F0660F771F881F991F1AF0BA95E4
:1012D600C9F714C0B13091F00E94FC0BB1E008953B
:1012E6000C94FC0B672F782F8827B85F39F0B93F2D
:1012F600CCF3869577956795B395D9F73EF4909597
:0E1306008095709561957F4F8F4F9F4F089592
:101314000E942D0A10F40C942C0CE894E0E0BB27F6
:101324009F57F0F02AED3FE049EC06C0EE0FBB0FEB
:10133400661F771F881F28F0B23A62077307840775
:1013440028F0B25A620B730B840BE3959A9572F7EB
:10135400803830F49A95BB0F661F771F881FD2F729
:0613640090480C947A0B86
:10136A00DF93CF931F930F93FF92EF92DF927B014C
:10137A008C01689406C0DA2EEF010E943807FE013C
:10138A00E894A5912591359145915591A6F3EF01E0
:10139A000E94A207FE019701A801DA9469F7DF907B
:0E13AA00EF90FF900F911F91CF91DF9108956A
:1013B8000F931F93CF93DF938091C0008823B4F0DD
:1013C800C4E0D0E000EC10E02FEF89E698E121506E
:1013D80080409040E1F700C000008EE20E94D70BE9
:1013E800F8018081882314F0219771F78091C60055
:0A13F800DF91CF911F910F9108952E
:10140200990F0008550FAA0BE0E8FEEF1616170613
:10141200E807F907C0F012161306E407F50798F07B
:10142200621B730B840B950B39F40A2661F0232B94
:10143200242B252B21F408950A2609F4A140A69510
:081442008FEF811D811D08954B
:10144A0057FD9058440F551F59F05F3F71F047956B
:10145A00880F97FB991F61F09F3F79F08795089550
:10146A00121613061406551FF2CF4695F1DF08C06F
:10147A00161617061806991FF1CF8695710561058C
:04148A000894089525
:10148E00A1E21A2EAA1BBB1BFD010DC0AA1FBB1F7A
:10149E00EE1FFF1FA217B307E407F50720F0A21BEC
:1014AE00B30BE40BF50B661F771F881F991F1A9459
:1014BE0069F760957095809590959B01AC01BD0183
:0414CE00CF010895AD
:1014D200DF93CF931F930F938B01EC01E8E6F0E0CB
:1014E2000E94B5090E943A0B9801AE018B01EC01F2
:1014F20060E070E080E89FE30E94E70B0E945808DA
:101502009801AE010F911F91CF91DF910C94380792
:101512000E94DC09833389F028F4813341F082335D
:1015220049F00895843361F0883771F008950E947C
:10153200E90508950E94F904089510921C01089586
:0E15420081E080931C0108950E944E020895DE
:1015500084B18C6284B98CB582658CBD6FEF89E0F3
:101560000E94AC0B6091180161508BE00E94AC0BA3
:1015700068E08AE00E94AC0B61E08CE00E94AC0B5A
:021580000895CC
:10158200CF93DF93161617067CF4DC01680F791FE0
:10159200E0ECF0E0C6ECD0E0908195FFFDCF9D91AC
:0E15A2009883A617B707C1F7DF91CF91089580
:1015B000052E97FB1EF400940E94DF0B57FD07D009
:1015C0000E94470A07FC03D04EF40C94DF0B5095A1
:0E15D0004095309521953F4F4F4F5F4F089546
:1015DE00EF93E0FF07C0A2EA2AED3FE049EC5FEB94
:1015EE000E94A2070E943A0B0F90039401FC9058A0
:0815FE00E0E9F0E00C94030B9E
:101606009F938F937F936F93FF93EF939B01AC010F
:101616000E94280CEF91FF910E94B5092F913F91EE
:081626004F915F910C94280C18
:10162E001092850010928400E1E8F0E080818064E1
:10163E008083AFE6B0E08C9181628C93808185606F
:04164E0080830895F8
:101652009F939F770E94690A0F90002042F490584E
:10166200A2EA2AED3FE049E450E40E94A2070C946A
:021672003A0B31
:10167400092E0394000C11F4882352F0BB0F40F49C
:10168400BF2B11F460FF04C06F5F7F4F8F4F9F4FDC
:021694000895B7
:101696008BB18C608BB9E9E6F0E080818360808352
:0E16A6008081846080838DB383608DBB089546
:1016B40084B58E7F84BD84B58D7F84BD85B5877FD9
:0E16C40085BDEEE6F0E08081816080830895B0
:1016D200A29FB001B39FC001A39F700D811D112471
:0E16E200911DB29F700D811D1124911D089560
:1016F0009F3F31F0915020F4879577956795B79586
:0C170000880F911D9695879597F9089524
:10170C0055985D9AE8E6F0E0808184608083EDE690
:0A171C00F0E0808180628083089570
:10172600992777FD05C005900D920197E1F7089579
:0A17360001900D920197E1F708956C
:101740001092C50087E68093C40088E18093C100B1
:081750008EE08093C2000895B1
:10175800CF93C62F2A980E94100C8C2F0E94100C31
:061768002A9ACF910895BA
:10176E00CF93C09118016FE08C2F0E94AC0BC1502B
:06177E00D1F7CF910895A0
:1017840086E086BD85B5816085BD85B5826085BDF1
:0617940085B585BD089536
:10179A001F920F920FB60F9211240F900FBE0F9047
:0417AA001F901895DF
:1017AE00E0ECF0E0908195FFFDCF8093C6000895A8
:1017BE0090958095709561957F4F8F4F9F4F0895AF
:0E17CE005058BB27AA270E94A2070C943A0B82
:0E17DC0000240A94161617061806090608952A
:0E17EA0000240A94121613061406050608952C
:0E17F800E894BB2766277727CB0197F9089561
:0E18060091505040660F771F881FD2F708954B
:0C18140097F99F6780E870E060E008959D
:0A1820008EBD0DB407FEFDCF089544
:0A182A000E94010A08F481E008950D
:0A1834000E948A09E3950C94EF0A64
:0A183E000E94010A08F48FEF0895DC
:081848000E945D060C943A0BAE
:081850000E9438070C943A0BCA
:061858009FEF80EC0895F3
:04185E000C940000E6
:04186200DB0F49400F
:0218660032004E
:021868006E0010
:01186A000875
:01186B00017B
:01186C00017A
:00000001FF
