:100000000C946C000C942B030C94AB0B0C940D0C07
:100010000C940D0C0C940D0C0C940D0C0C940D0CFC
:100020000C940D0C0C940D0C0C94CD070C940D0C31
:100030000C940D0C0C940D0C0C940D0C0C940D0CDC
:100040000C9463080C940D0C0C940D0C0C940D0C7A
:100050000C940D0C0C940D0C0C940D0C0C940D0CBC
:100060000C940D0C0C940D0C072C7AA5BA6CC59051
:10007000DA3B9365FC8BBC53F810FD3C5692834DE4
:10008000BD879D3AB63DCBC9BF5BBE73DA0FC93F92
:1000900005A84CCDB2D44EB93836A9020C50B9914E
:1000A0008688083CA6AAAA2ABE000000803F01005C
:1000B000010E80010E011000181E011001128001B6
:1000C00012011500182001150116800116011800F3
:1000D000182301180119800011241FBECFEFD8E0AA
:1000E000DEBFCDBFEEEAF0E040E017C0B591A591CC
:1000F00035912591059107FD0CC095918591EF01F2
:10010000F92FE82F05900D92A217B307D9F7FE013A
:1001100004C01D92A217B307E1F7E73DF40731F7DA
:0C0120000E94DF090C949400F894FFCFBB
:10012C0053656C656363696F6E65206C61206163F8
:10013C0063696F6E207175652064657365652072E7
:10014C0065616C697A61723A200A0D0020312E20AB
:10015C004D6F64696669636172206C612054656ED1
:10016C0073696F6E206465205265642E200A0D0041
:10017C0020322E204D6F64696669636172206C6158
:10018C002054656E73696F6E2064656C2044696DD4
:10019C006D65722E200A0D00207C20202054656E87
:1001AC0073696F6E206465205265642020207C206A
:1001BC0054656E73696F6E2064652044696D6D655E
:1001CC0072207C54656E73696F6E20656E206C6155
:1001DC002043617267617C2020546F6E2020207C4C
:1001EC0020416E67756C6F207C200A0D00207C20EE
:1001FC0020202020202020005620202020202020DD
:10020C00207C202020202020200056202020202070
:10021C00207C2000207C20200053652065737461B5
:10022C00626C6563696F20656C2076616C6F7220FF
:10023C00696E6772657361646F3A200A00416C6580
:10024C00727461212C20696E6772657365206F74FE
:0C025C00726F2076616C6F722E200A0019
:100268009F92AF92BF92CF92DF92EF92FF920F933D
:100278001F93CF93DF9300D000D000D0CDB7DEB767
:100288006C01962E9C01ADECBCEC0E94470B7C01E6
:10029800F694E794F694E794F694E7949701220F7E
:1002A800331FC701880F991F880F991F880F991F3F
:1002B800820F931F7601E81AF90A96010E94470BEC
:1002C800FC01F695E795F695E795F695E7959F0174
:1002D8000E94470BAC0156954795569547955695FC
:1002E8004795CA01880F991F440F551F440F551F82
:1002F800440F551F480F591FCF01841B950BAC01A4
:1003080096013695279536952795ABE7B4E10E9477
:10031800470B8C01169507959801ADECBCEC0E9433
:10032800470BFC01F695E795F695E795F695E79561
:10033800CF01880F991FEE0FFF1FEE0FFF1FEE0F63
:10034800FF1FE80FF91FC8018E1B9F0BFC019601C8
:10035800369527953695279536952795A5ECB0E2DD
:100368000E94470B5C01B694A794B694A794B694E0
:10037800A794B694A7949501ADECBCEC0E94470BEA
:100388008C01169507951695079516950795C8013A
:10039800880F991F000F111F000F111F000F111F49
:1003A800080F191FC501801B910B8C0193E099124E
:1003B8000EC0E05DE983405D4A8380E38E0D8B8348
:1003C80063E070E0CE0101960E949D0A4EC084E071
:1003D800981212C0005D0983E05DEA838CE28B838A
:1003E800405D4C8380E38E0D8D8365E070E0CE0127
:1003F80001960E949D0A39C095E0991223C0960182
:10040800329522952F7023273F702327A7E4B3E066
:100418000E94470B9695879596958795969587950B
:10042800805D8983005D0A83E05DEB838CE28C83C9
:10043800405D4D83EE8266E070E0CE0101960E9439
:100448009D0A13C0E05DE983405D4A838CE28B839B
:1004580080E38E0D8C838DE68D8383E78E8366E043
:1004680070E0CE0101960E949D0A26960FB6F89478
:10047800DEBF0FBECDBFDF91CF911F910F91FF90CF
:0E048800EF90DF90CF90BF90AF909F900895BF
:10049600CF93DF93CDB7DEB7CD5FD1090FB6F89412
:1004A600DEBF0FBECDBF2CE231E040E08CE2F901A9
:1004B600DE011196742F0E94710B6CE270E0CE0182
:1004C60001960E949D0A28E531E040E084E2F901A8
:1004D600DE019D96742F0E94710B64E270E0CE01DE
:1004E6008D960E949D0A2CE731E040E088E2F901F2
:1004F600DE01AF5ABF4F742F0E94710B68E270E0A5
:10050600CE018F5A9F4F0E949D0A24EA31E040E0B7
:1005160085E5F901DE01A758BF4F742F0E94710BC4
:1005260065E570E0CE0187589F4F0E949D0A29EF2E
:1005360031E040E08BE0F901DE01A253BF4F742F9A
:100546000E94710B24E032E040E082E1F901DE0115
:10055600A752BF4F742F0E94710B6BE070E0CE0163
:1005660082539F4F0E949D0A809112019091130120
:1005760063E00E94340162E170E0CE0187529F4F32
:100586000E949D0A80910E0190910F0163E00E94E6
:10059600340162E170E0CE0187529F4F0E949D0AAE
:1005A6000E94EF0465E00E94340126E132E040E05B
:1005B6008AE0F901DE01A551BF4F742F0E94710B2D
:1005C60020E232E040E085E0F901DE01AB50BF4FAA
:1005D600742F0E94710B6AE070E0CE0185519F4F27
:1005E6000E949D0A809106019091070166E00E9493
:1005F600340165E070E0CE018B509F4F0E949D0A4A
:100606008FE890E2C650DF4F99838883CA5FD04057
:100616008CE790E0C450DF4F99838883CC5FD0404D
:10062600809104019091050163E00E94340164E029
:1006360070E0CE0186509F4F0E949D0AC350DF4F47
:100646000FB6F894DEBF0FBECDBFDF91CF910895F0
:100656001F920F920FB60F9211244F925F926F92D4
:100666007F928F929F92AF92BF92CF92DF92EF923C
:10067600FF922F933F934F935F936F937F938F9345
:100686009F93AF93BF93CF93EF93FF9380911701FF
:10069600882309F492C080E18BB9609102017091C0
:1006A600030180E090E00E94A1086B017C012BEA27
:1006B6003AEA4AEA50E40E94060C4B015C0120E04B
:1006C60030E040E85FE30E94F30B88230CF470C02F
:1006D60020E030E040E850E4C701B6010E94060C75
:1006E6002B013C0120E03FEF4FE757E40E94FD0B52
:1006F60018160CF045C020E030E04AE754E4C70184
:10070600B6010E94020C4B015C0120E030E04AE792
:1007160055E40E94060C6B017C0120E030E040E8C5
:100726005FE30E94F30B88232CF120E03FEF4FE7B5
:1007360057E4C701B6010E94FD0B1816B4F420E079
:1007460030E040E251E4C501B4010E94060C0E946B
:1007560015096115710569F120E931E0C9010197B3
:10076600F1F761507109D1F724C0C701B6010E94A3
:10077600150902C061E070E0CB010197F1F719C0DD
:1007860020E030E04FE753E4C501B4010E94FD0BC1
:10079600181644F4C301B2010E941509CB01019752
:1007A600F1F70AC0C501B4010E941509C62F01C0A0
:1007B600C1E06C2F6A95F1F71BB8FF91EF91CF91CD
:1007C600BF91AF919F918F917F916F915F914F9163
:1007D6003F912F91FF90EF90DF90CF90BF90AF9019
:1007E6009F908F907F906F905F904F900F900FBE6D
:0607F6000F901F90189502
:1007FC00BF92CF92DF92EF92FF920F931F93CF9302
:10080C00DF9300D000D0CDB7DEB769837A838B83BA
:10081C009C83042F89819A81AB81BC81BB2394F486
:10082C0089819A81AB81BC81B095A0959095819579
:10083C009F4FAF4FBF4F89839A83AB83BC83BB243D
:10084C00B39401C0B12C0E94950B89819A81AB8124
:10085C00BC81892B8A2B8B2B29F460E081E00E94D0
:10086C008A0B32C010E00F2EFAE0CF2ED12CE12CE7
:10087C00F12CF02D69817A818B819C811F5FA701FE
:10088C0096010E94B40A812F0E948A0B69817A8199
:10089C008B819C81A70196010E94B40A29833A831B
:1008AC004B835C8389819A81AB81BC81892B8A2B98
:1008BC008B2B01F7602F87E00E948A0BBB2021F065
:1008CC006AE0812F0E948A0B0F900F900F900F906F
:1008DC00DF91CF911F910F91FF90EF90DF90CF9010
:0408EC00BF9008951C
:1008F000CF93DF93CDB7DEB7A4970FB6F894DEBFE2
:100900000FBECDBF60910E0170910F0180E090E0AD
:1009100042E050E00E94FE038CE091E00E94DE087D
:10092000809112019091130120910C0130910D01E1
:100930000B9728173907D0F580910C0190910D0184
:100940000597A0F180910C0190910D0190930F01FA
:1009500080930E0125E232E040E084E2F901DE01FD
:100960001196742F0E94710B64E270E0CE01019623
:100970000E949D0A80910E0190910F0163E00E94F8
:10098000340160910E0170910F0180E090E042E02F
:1009900050E00E94FE0380910E0190910F010E9491
:1009A0001407909303018093020110C029E432E000
:1009B00040E08FE1F901DE011196742F0E94710B66
:1009C0006FE170E0CE0101960E949D0AA4960FB6D9
:0E09D000F894DEBF0FBECDBFDF91CF9108952A
:1009DE008F929F92AF92BF92CF92DF92EF92FF9241
:1009EE00CF93DF93809106019091070144EB489FCE
:1009FE009001499F300D11243695279536952795F0
:100A0E00ABE7B4E10E94470B96958795909305014D
:100A1E0080930401C0911201D091130160910401E1
:100A2E007091050180E090E00E94A1082BED3FE05F
:100A3E0049E450E40E94060C20E030E044E353E425
:100A4E000E94020C0E94F80B4B015C01BE0180E07B
:100A5E0090E00E94A10823EF34E045EB5FE30E9493
:100A6E00060C2BED3FE049E450E40E94020C6B01B2
:100A7E007C01A501940160E070E080E89FE30E9494
:100A8E00C50B9B01AC01C701B6010E94060C0E946A
:100A9E00150924E6269FA001279F500D1124CA0197
:100AAE00DF91CF91FF90EF90DF90CF90BF90AF90FE
:060ABE009F908F90089547
:100AC400CF93DF93CDB7DEB7A4970FB6F894DEBF0C
:100AD4000FBECDBF609112017091130180E090E0D0
:100AE40041E050E00E94FE0380E191E00E94DE08B4
:100AF40080911001909111018A3F9105D0F5809168
:100B04001001909111010A97A0F180911001909128
:100B14001101909313018093120125E232E040E029
:100B240084E2F901DE011196742F0E94710B64E2D4
:100B340070E0CE0101960E949D0A8091120190916D
:100B4400130163E00E94340160911201709113015A
:100B540080E090E041E050E00E94FE0380910E01AD
:100B640090910F010E941407909303018093020156
:100B740010C029E432E040E08FE1F901DE01119672
:100B8400742F0E94710B6FE170E0CE0101960E94F8
:100B94009D0AA4960FB6F894DEBF0FBECDBFDF91B9
:040BA400CF91089550
:100BA80010C00E94D30B58F00E94CC0B40F029F4DF
:100BB8005F3F29F00C94E80B51110C94DB0B0C945B
:100BC8000A0C0E94010A68F39923B1F3552391F3A3
:100BD800951B550BBB27AA2762177307840738F0A4
:100BE8009F5F5F4F220F331F441FAA1FA9F335D001
:100BF8000E2E3AF0E0E832D091505040E695001CB5
:100C0800CAF72BD0FE2F29D0660F771F881FBB1F6E
:100C1800261737074807AB07B0E809F0BB0B802D4C
:100C2800BF01FF2793585F4F3AF09E3F510578F078
:100C38000C94E80B0C94DB0B5F3FE4F3983ED4F381
:100C4800869577956795B795F7959F5FC9F7880F4C
:100C5800911D9695879597F90895E1E0660F771F9E
:100C6800881FBB1F621773078407BA0720F0621B2F
:0E0C7800730B840BBA0BEE1F88F7E0950895FE
:100C86000FC00E94CC0B38F00E94D30B20F09523A6
:100C960011F00C94E80B0C940A0C11240C94DB0B49
:100CA6000E94010A70F3959FC1F3950F50E0551FFE
:100CB600629FF001729FBB27F00DB11D639FAA27AB
:100CC600F00DB11DAA1F649F6627B00DA11D661FFA
:100CD600829F2227B00DA11D621F739FB00DA11D1B
:100CE600621F839FA00D611D221F749F3327A00DD5
:100CF600611D231F849F600D211D822F762F6A2F71
:100D060011249F5750409AF0F1F088234AF0EE0FD5
:100D1600FF1FBB1F661F771F881F91505040A9F702
:100D26009E3F510580F00C94E80B0C94DB0B5F3F63
:100D3600E4F3983ED4F3869577956795B795F7953E
:100D4600E7959F5FC1F7FE2B880F911D96958795B6
:040D560097F908956C
:100D5A0011C00E94CC0B38F00E94D30B20F039F45A
:100D6A009F3F19F426F40C940A0C0EF4E095E7FB65
:100D7A000C94E80BE92F0E94010A58F3BA1762078C
:100D8A0073078407950720F079F4A6F50C94DA0B1B
:100D9A000EF4E0950B2EBA2FA02D0B01B90190018C
:100DAA000C01CA01A0011124FF27591B99F0593FD0
:100DBA0050F4503E68F11A16F040A22F232F342F18
:100DCA004427585FF3CF469537952795A795F04066
:100DDA005395C9F77EF41F16BA0B620B730B840B7B
:100DEA00BAF09150A1F0FF0FBB1F661F771F881F33
:100DFA00C2F70EC0BA0F621F731F841F48F487958B
:100E0A0077956795B795F7959E3F08F0B0CF93957C
:0E0E1A00880F08F09927EE0F97958795089599
:100E2800CF92DF92EF92FF92CF93DF93C09112019E
:100E3800D0911301BC0180E090E00E94A1086B01F1
:100E48007C01BE0180E090E00E94A10823EF34E01D
:100E580045EB5FE30E94060C2BED3FE049E450E4CC
:100E68000E94020C9B01AC01C701B6010E94020C52
:100E780020E030E040E85FE30E94C50B0E94160BBB
:100E880020E030E044E353E40E94060C2BED3FE001
:100E980049E450E40E94020C0E94150944E6469F6A
:100EA8009001479F300D1124A3E8BDE20E94470B33
:100EB80096958795929582958F7089279F70892737
:100EC800489F9001499F300D112480E197E2821BD1
:100ED800930BDF91CF91FF90EF90DF90CF90089523
:100EE8000E94EF0490930B0180930A0120910A015C
:100EF80030910B0180910E0190910F018217930799
:100F0800F0F080910A0190910B01019690930B01EA
:100F180080930A0180910A0190910B010E941407A5
:100F2800909303018093020120910A0130910B01F3
:100F380080910E0190910F018217930710F720916D
:100F48000A0130910B0180910E0190910F01281731
:100F58003907F0F080910A0190910B010197909365
:100F68000B0180930A0180910A0190910B010E9464
:100F78001407909303018093020120910A01309194
:100F88000B0180910E0190910F012817390710F776
:020F98000895BA
:100F9A001F920F920FB60F9211242F933F934F93E4
:100FAA008F939F93EF93FF9380911601882351F0BB
:100FBA00E1E8F0E080818F7B8083109285001092B7
:100FCA00840023C080918600909187009093090144
:100FDA0080930801809108019091090143EA489F92
:100FEA009001499F300D1124232F332784E690E086
:100FFA00821B930B9093070180930601E1E8F0E0CE
:10100A00808180648083808180839091160181E051
:10101A00892780931601FF91EF919F918F914F91AC
:0E102A003F912F910F900FBE0F901F901895C1
:1010380006C019F416F40C940A0C0C94560B0E9472
:10104800090AB8F39923C9F3B6F39F57550B87FFDD
:101058000E94E10B0024A0E640EA900180585695D2
:10106800979528F4805C660F771F881F20F0261755
:101078003707480730F4621B730B840B202931298A
:101088004A2BA69517940794202531254A2758F707
:10109800660F771F881F20F026173707480730F498
:1010A800620B730B840B200D311D411DA09581F738
:0E10B800B901842F9158880F96958795089559
:1010C6001F920F920FB60F9211248F939F93EF9357
:1010D600FF93809100019091010101969093010187
:1010E6008093000180910001909101018436910561
:1010F600E1F41092010110920001809118018F5FB6
:1011060080931801809118018C3319F410921801FC
:101116000CC0809118018A3041F4E1E8F0E080814A
:101126008560808381E080931501FF91EF919F9107
:0C1136008F910F900FBE0F901F90189526
:10114200E89409C097FB3EF490958095709561955F
:101152007F4F8F4F9F4F9923A9F0F92F96E9BB2715
:101162009395F695879577956795B795F111F8CF91
:10117200FAF4BB0F11F460FF1BC06F5F7F4F8F4FFC
:101182009F4F16C0882311F096E911C0772321F0F2
:101192009EE8872F762F05C0662371F096E8862F8A
:1011A20070E060E02AF09A95660F771F881FDAF7E1
:0A11B200880F9695879597F9089528
:1011BC000F931F93CF93DF938C01A1E0B0E060E01D
:1011CC0070E0E0ECF0E0C6ECD0E090819923ECF715
:1011DC009881292F30E0A330B10584F420533109D4
:1011EC00260F371FB901660F771F220F331F220FEF
:1011FC00331F220F331F620F731F05C0A901405309
:10120C005109640F751F1196A430B105F1F6F80160
:0E121C0071836083DF91CF911F910F91089530
:10122A000E94090A88F09F5798F0B92F9927B75159
:10123A00B0F0E1F0660F771F881F991F1AF0BA9570
:10124A00C9F714C0B13091F00E94DA0BB1E00895E9
:10125A000C94DA0B672F782F8827B85F39F0B93FDB
:10126A00CCF3869577956795B395D9F73EF4909523
:0E127A008095709561957F4F8F4F9F4F08951F
:101288000E94090A10F40C940A0CE894E0E0BB27C9
:101298009F57F0F02AED3FE049EC06C0EE0FBB0F78
:1012A800661F771F881F28F0B23A62077307840702
:1012B80028F0B25A620B730B840BE3959A9572F778
:1012C800803830F49A95BB0F661F771F881FD2F7B6
:0612D80090480C94580B35
:1012DE00DF93CF931F930F93FF92EF92DF927B01D9
:1012EE008C01689406C0DA2EEF010E944306FE01BF
:1012FE00E894A5912591359145915591A6F3EF016D
:10130E000E94AD06FE019701A801DA9469F7DF90FD
:0E131E00EF90FF900F911F91CF91DF910895F6
:10132C000F931F93CF93DF938091C0008823B4F069
:10133C00C4E0D0E000EC10E02FEF89E698E12150FA
:10134C0080409040E1F700C000008EE20E94B50B97
:10135C00F8018081882314F0219771F78091C600E1
:0A136C00DF91CF911F910F910895BA
:10137600990F0008550FAA0BE0E8FEEF16161706A0
:10138600E807F907C0F012161306E407F50798F008
:10139600621B730B840B950B39F40A2661F0232B21
:1013A600242B252B21F408950A2609F4A140A6959D
:0813B6008FEF811D811D0895D8
:1013BE00F8940E94640B0E94380B0E94050B0E9449
:1013CE00F30A0E947E0B0E94840A80E18AB91BB840
:1013DE00789480910E0190910F010E9414079093C2
:1013EE000301809302010E944B020E9474070E9427
:0413FE00650AFBCFB2
:1014020057FD9058440F551F59F05F3F71F04795B3
:10141200880F97FB991F61F09F3F79F08795089598
:10142200121613061406551FF2CF4695F1DF08C0B7
:10143200161617061806991FF1CF869571056105D4
:04144200089408956D
:10144600A1E21A2EAA1BBB1BFD010DC0AA1FBB1FC2
:10145600EE1FFF1FA217B307E407F50720F0A21B34
:10146600B30BE40BF50B661F771F881F991F1A94A1
:1014760069F760957095809590959B01AC01BD01CB
:04148600CF010895F5
:10148A00DF93CF931F930F938B01EC01E8E6F0E013
:10149A000E946F090E94270B9801AE018B01EC0193
:1014AA0060E070E080E89FE30E94C50B0E941C0880
:1014BA009801AE010F911F91CF91DF910C944306D1
:1014CA000E949609833389F028F4813341F08233EC
:1014DA0049F00895843361F0883771F008950E94C5
:1014EA00620508950E9478040895109217010895DC
:0E14FA0081E08093170108950E944B0208952F
:1015080084B18C6284B98CB582658CBD6FEF89E03B
:101518000E948A0B6091140161508BE00E948A0B33
:1015280068E08AE00E948A0B61E08CE00E948A0BE6
:02153800089514
:10153A00CF93DF93161617067CF4DC01680F791F28
:10154A00E0ECF0E0C6ECD0E0908195FFFDCF9D91F4
:0E155A009883A617B707C1F7DF91CF910895C8
:10156800052E97FB1EF400940E94BD0B57FD07D073
:101578000E94230A07FC03D04EF40C94BD0B50952F
:0E1588004095309521953F4F4F4F5F4F08958E
:10159600EF93E0FF07C0A2EA2AED3FE049EC5FEBDC
:1015A6000E94AD060E94270B0F90039401FC9058F1
:0815B600E0E9F0E00C94DF0A0B
:1015BE009F938F937F936F93FF93EF939B01AC0158
:1015CE000E94060CEF91FF910E946F092F913F919F
:0815DE004F915F910C94060C83
:1015E6001092850010928400E1E8F0E0808180642A
:1015F6008083AFE6B0E08C9181628C9380818560B8
:041606008083089540
:10160A0084B58E7F84BD84B58D7F84BD85B5877F83
:10161A0085BDEEE6F0E08081816080830E94A00BA8
:02162A00089521
:10162C009F939F770E94450A0F90002042F4905898
:10163C00A2EA2AED3FE049E450E40E94AD060C9486
:02164C00270B6A
:10164E00092E0394000C11F4882352F0BB0F40F4C2
:10165E00BF2B11F460FF04C06F5F7F4F8F4F9F4F02
:02166E000895DD
:101670008BB18C608BB9E9E6F0E080818360808378
:0E1680008081846080838DB383608DBB08956C
:10168E00A29FB001B39FC001A39F700D811D1124B5
:0E169E00911DB29F700D811D1124911D0895A4
:1016AC009F3F31F0915020F4879577956795B795CA
:0C16BC00880F911D9695879597F9089569
:1016C80055985D9AE8E6F0E0808184608083EDE6D5
:0A16D800F0E08081806280830895B5
:1016E200992777FD05C005900D920197E1F70895BE
:0A16F20001900D920197E1F70895B1
:1016FC001092C50087E68093C40088E18093C100F6
:08170C008EE08093C2000895F5
:10171400CF93C62F2A980E94EE0B8C2F0E94EE0BBB
:061724002A9ACF910895FE
:10172A00CF93C09114016FE08C2F0E948A0BC15095
:06173A00D1F7CF910895E4
:1017400086E086BD85B5816085BD85B5826085BD35
:0617500085B585BD08957A
:101756001F920F920FB60F9211240F900FBE0F908B
:041766001F90189523
:10176A00E0ECF0E0908195FFFDCF8093C6000895EC
:10177A0090958095709561957F4F8F4F9F4F0895F3
:0E178A005058BB27AA270E94AD060C94270BCF
:0E17980000240A94161617061806090608956E
:0E17A60000240A941216130614060506089570
:0E17B400E894BB2766277727CB0197F90895A5
:0E17C20091505040660F771F881FD2F7089590
:0C17D00097F99F6780E870E060E00895E2
:0A17DC008EBD0DB407FEFDCF089589
:0A17E6000E94BB0908F481E0089599
:0A17F0000E944409E3950C94CB0A13
:0A17FA000E94BB0908F48FEF089568
:081804000E94D4050C94270B8F
:08180C000E9443060C94270B17
:061814009FEF80EC089537
:04181A000C9400002A
:02181E00320096
:021820006E0058
:0118220008BD
:0118230001C3
:0118240001C2
:00000001FF
