:100000000C9464000C942F020C94DE090C943B0AAF
:100010000C943B0A0C943B0A0C943B0A0C943B0A4C
:100020000C943B0A0C943B0A0C945D060C943B0A1E
:100030000C943B0A0C943B0A0C943B0A0C943B0A2C
:100040000C9471070C943B0A0C943B0A0C943B0AE9
:100050000C943B0A0C943B0A0C943B0A0C943B0A0C
:100060000C943B0A0C943B0A072C7AA5BA6CC590F9
:10007000DA3B9365FC8BBC53F810FD3C5692834DE4
:10008000BD879D3AB63DCBC9BF5BBE73DA0FC93F92
:100090000100010400147A0104010C80010C010E1E
:1000A00000147E010E011080011001120014800165
:1000B00012011300022F0113011480011401160014
:1000C000148201160117800011241FBECFEFD8E063
:1000D000DEBFCDBFE0E9F0E040E017C0B591A591EB
:1000E00035912591059107FD0CC095918591EF0102
:1000F000F92FE82F05900D92A217B307D9F7FE014B
:1001000004C01D92A217B307E1F7E73CF40731F7EB
:0C0110000E94E2080C948C00F894FFCFD1
:10011C0053656C656363696F6E65206C6120616308
:10012C0063696F6E207175652064657365652072F7
:10013C0065616C697A61723A200A000A20312E20BE
:10014C004D6F64696669636172206C612054656EE1
:10015C0073696F6E206465205265642E200A000A54
:10016C0020322E204D6F64696669636172206C6168
:10017C002054656E73696F6E2064656C2044696DE4
:10018C006D65722E200A000A207C2054656E7369FE
:10019C006F6E20646520526564207C2054656E73FC
:1001AC00696F6E2064656C2044696D6D6572207C8E
:1001BC002054656E73696F6E206465205265616CA6
:1001CC00696D656E746163696F6E207C2020546F5D
:1001DC006E20207C20416E67756C6F207C200A009D
:1001EC0053652065737461626C6563696F20656C1F
:1001FC002076616C6F7220696E6772657361646FD3
:10020C003A200A00416C65727461212C20696E677A
:10021C0072657365206F74726F2076616C6F722ECD
:03022C00200A00A5
:01022F0008C6
:100230009F92AF92BF92CF92DF92EF92FF920F9375
:100240001F93CF93DF9300D000D000D0CDB7DEB79F
:100250006C01962E9C01ADECBCEC0E947A097C01ED
:10026000F694E794F694E794F694E7949701220FB6
:10027000331FC701880F991F880F991F880F991F77
:10028000820F931F7601E81AF90A96010E947A09F3
:10029000FC01F695E795F695E795F695E7959F01AC
:1002A0000E947A09AC015695479556954795569503
:1002B0004795CA01880F991F440F551F440F551FBA
:1002C000440F551F480F591FCF01841B950BAC01DC
:1002D00096013695279536952795ABE7B4E10E94B0
:1002E0007A098C01169507959801ADECBCEC0E943B
:1002F0007A09FC01F695E795F695E795F695E79569
:10030000CF01880F991FEE0FFF1FEE0FFF1FEE0F9B
:10031000FF1FE80FF91FC8018E1B9F0BFC01960100
:10032000369527953695279536952795A5ECB0E215
:100330000E947A095C01B694A794B694A794B694E7
:10034000A794B694A7949501ADECBCEC0E947A09F1
:100350008C01169507951695079516950795C80172
:10036000880F991F000F111F000F111F000F111F81
:10037000080F191FC501801B910B8C0193E0991286
:100380000EC0E05DE983405D4A8380E38E0D8B8380
:1003900063E070E0CE0101960E94FA084EC084E04E
:1003A000981212C0005D0983E05DEA838CE28B83C2
:1003B000405D4C8380E38E0D8D8365E070E0CE015F
:1003C00001960E94FA0839C095E0991223C096015F
:1003D000329522952F7023273F702327A7E4B3E09F
:1003E0000E947A0996958795969587959695879513
:1003F000805D8983005D0A83E05DEB838CE28C8302
:10040000405D4D83EE8266E070E0CE0101960E9471
:10041000FA0813C0E05DE983405D4A838CE28B8378
:1004200080E38E0D8C838DE68D8383E78E8366E07B
:1004300070E0CE0101960E94FA0826960FB6F89455
:10044000DEBF0FBECDBFDF91CF911F910F91FF9007
:0E045000EF90DF90CF90BF90AF909F900895F7
:10045E001F920F920FB60F9211244F925F926F92CE
:10046E007F928F929F92AF92BF92CF92DF92EF9236
:10047E00FF922F933F934F935F936F937F938F933F
:10048E009F93AF93BF93CF93EF93FF9380911501FB
:10049E00882309F495C080E18BB980910C0190916D
:1004AE000D010E945D04BC0180E090E00E943407C3
:1004BE006B017C012BEA3AEA4AEA50E40E94340AC4
:1004CE004B015C0120E030E040E85FE30E94260A29
:1004DE0088230CF470C020E030E040E850E4C701FF
:1004EE00B6010E94340A2B013C0120E03FEF4FE79A
:1004FE0057E40E942B0A18160CF045C020E030E09D
:10050E004AE754E4C701B6010E94300A4B015C0170
:10051E0020E030E04AE755E40E94340A6B017C018A
:10052E0020E030E040E85FE30E94260A88232CF1A9
:10053E0020E03FEF4FE757E4C701B6010E942B0AB8
:10054E001816B4F420E030E040E251E4C501B401E5
:10055E000E94340A0E94AC076115710569F120E909
:10056E0031E0C9010197F1F761507109D1F724C04B
:10057E00C701B6010E94AC0702C061E070E0CB017A
:10058E000197F1F719C020E030E04FE753E4C501C1
:10059E00B4010E942B0A181644F4C301B2010E9442
:1005AE00AC07CB010197F1F70AC0C501B4010E9457
:1005BE00AC07C62F01C0C1E06C2F6A95F1F71BB8CE
:1005CE00FF91EF91CF91BF91AF919F918F917F91BD
:1005DE006F915F914F913F912F91FF90EF90DF9030
:1005EE00CF90BF90AF909F908F907F906F905F90C5
:0C05FE004F900F900FBE0F901F901895AB
:10060A00BF92CF92DF92EF92FF920F931F93CF93F5
:10061A00DF9300D000D0CDB7DEB769837A838B83AE
:10062A009C83042F89819A81AB81BC81BB2394F47A
:10063A0089819A81AB81BC81B095A095909581956D
:10064A009F4FAF4FBF4F89839A83AB83BC83BB2431
:10065A00B39401C0B12C0E94C80989819A81AB81E7
:10066A00BC81892B8A2B8B2B29F460E081E00E94C4
:10067A00BD0932C010E00F2EFAE0CF2ED12CE12CAA
:10068A00F12CF02D69817A818B819C811F5FA701F2
:10069A0096010E941109812F0E94BD0969817A8100
:1006AA008B819C81A70196010E94110929833A83B3
:1006BA004B835C8389819A81AB81BC81892B8A2B8C
:1006CA008B2B01F7602F87E00E94BD09BB2021F028
:1006DA006AE0812F0E94BD090F900F900F900F9032
:1006EA00DF91CF911F910F91FF90EF90DF90CF9004
:0406FA00BF90089510
:1006FE00CF93DF93CDB7DEB7A4970FB6F894DEBFD6
:10070E000FBECDBF60910C0170910D0180E090E0A5
:10071E0042E050E00E9405036AE071E083E191E05F
:10072E000E94F306809110019091110120910A010F
:10073E0030910B010B972817390780F580910A012C
:10074E0090910B01059750F180910A0190910B0148
:10075E0090930D0180930C012CEE31E040E084E289
:10076E00F901DE011196742F0E94A40964E270E073
:10077E00CE0101960E94FA0880910C0190910D0114
:10078E0063E00E94180160910C0170910D0180E0F0
:10079E0090E042E050E00E94050310C020E132E0FC
:1007AE0040E08FE1F901DE011196742F0E94A40939
:1007BE006FE170E0CE0101960E94FA08A4960FB682
:0E07CE00F894DEBF0FBECDBFDF91CF9108952E
:1007DC0010C00E94060A58F00E94FF0940F029F44C
:1007EC005F3F29F00C941B0A51110C940E0A0C94C7
:1007FC00380A0E944B0868F39923B1F3552391F3FF
:10080C00951B550BBB27AA2762177307840738F073
:10081C009F5F5F4F220F331F441FAA1FA9F335D0D0
:10082C000E2E3AF0E0E832D091505040E695001C84
:10083C00CAF72BD0FE2F29D0660F771F881FBB1F3E
:10084C00261737074807AB07B0E809F0BB0B802D1C
:10085C00BF01FF2793585F4F3AF09E3F510578F048
:10086C000C941B0A0C940E0A5F3FE4F3983ED4F3ED
:10087C00869577956795B795F7959F5FC9F7880F1C
:10088C00911D9695879597F90895E1E0660F771F6E
:10089C00881FBB1F621773078407BA0720F0621BFF
:0E08AC00730B840BBA0BEE1F88F7E0950895CE
:1008BA008F929F92AF92BF92CF92DF92EF92FF9266
:1008CA00CF93DF93C0911001D0911101C090000124
:1008DA00D0900101E0900201F0900301BC0180E098
:1008EA0090E00E9434074B015C01BE0180E090E079
:1008FA000E94340723EF34E045EB5FE30E94340A99
:10090A00A70196010E94300A9B01AC01C501B401FE
:10091A000E94300A20E030E040E85FE30E94F809D4
:10092A000E943A0920E030E044E353E40E94340A8A
:10093A00A70196010E94300A0E94AC0744E6469F2E
:10094A009001479F300D1124A3E8BDE20E947A0965
:10095A0096958795929582958F7089279F7089279A
:10096A00489F9001499F300D112480E197E2821B34
:10097A00930BDF91CF91FF90EF90DF90CF90BF90D4
:08098A00AF909F908F9008953B
:10099200CF93DF93CDB7DEB7A4970FB6F894DEBF3F
:1009A2000FBECDBF609110017091110180E090E007
:1009B20041E050E00E9405036EE071E083E191E0C6
:1009C2000E94F30680910E0190910F018A3F9105DA
:1009D20080F580910E0190910F010A9750F180915C
:1009E2000E0190910F0190931101809310012CEE52
:1009F20031E040E084E2F901DE011196742F0E9499
:100A0200A40964E270E0CE0101960E94FA08809186
:100A120010019091110163E00E9418016091100190
:100A22007091110180E090E041E050E00E940503E6
:100A320010C020E132E040E08FE1F901DE011196C1
:100A4200742F0E94A4096FE170E0CE0101960E940A
:100A5200FA08A4960FB6F894DEBF0FBECDBFDF91A1
:040A6200CF91089593
:100A66000FC00E94FF0938F00E94060A20F0952365
:100A760011F00C941B0A0C94380A11240C940E0ADB
:100A86000E944B0870F3959FC1F3950F50E0551FD8
:100A9600629FF001729FBB27F00DB11D639FAA27CD
:100AA600F00DB11DAA1F649F6627B00DA11D661F1C
:100AB600829F2227B00DA11D621F739FB00DA11D3D
:100AC600621F839FA00D611D221F749F3327A00DF7
:100AD600611D231F849F600D211D822F762F6A2F93
:100AE60011249F5750409AF0F1F088234AF0EE0FF8
:100AF600FF1FBB1F661F771F881F91505040A9F725
:100B06009E3F510580F00C941B0A0C940E0A5F3F21
:100B1600E4F3983ED4F3869577956795B795F79560
:100B2600E7959F5FC1F7FE2B880F911D96958795D8
:040B360097F908958E
:100B3A0011C00E94FF0938F00E94060A20F039F419
:100B4A009F3F19F426F40C94380A0EF4E095E7FB5B
:100B5A000C941B0AE92F0E944B0858F3BA17620734
:100B6A0073078407950720F079F4A6F50C940D0A0B
:100B7A000EF4E0950B2EBA2FA02D0B01B9019001AE
:100B8A000C01CA01A0011124FF27591B99F0593FF2
:100B9A0050F4503E68F11A16F040A22F232F342F3A
:100BAA004427585FF3CF469537952795A795F04088
:100BBA005395C9F77EF41F16BA0B620B730B840B9D
:100BCA00BAF09150A1F0FF0FBB1F661F771F881F55
:100BDA00C2F70EC0BA0F621F731F841F48F48795AD
:100BEA0077956795B795F7959E3F08F0B0CF93959F
:0E0BFA00880F08F09927EE0F979587950895BC
:100C0800CF93DF93CDB7DEB7C05DD1090FB6F894A7
:100C1800DEBF0FBECDBF2CE131E040E08BE2F90131
:100C2800DE011196742F0E94A4096BE270E0CE01D8
:100C380001960E94FA0827E431E040E084E2F901D5
:100C4800DE019C96742F0E94A40964E270E0CE0134
:100C58008C960E94FA082BE631E040E088E2F90120
:100C6800DE01A05BBF4F742F0E94A40968E270E008
:100C7800CE01805B9F4F0E94FA0823E931E040E0F3
:100C880089E5F901DE01A858BF4F742F0E94A40915
:100C980069E570E0CE0188589F4F0E94FA08C0535A
:100CA800DF4F0FB6F894DEBF0FBECDBFDF91CF91F7
:020CB80008959D
:100CBA001F920F920FB60F9211242F933F934F93C7
:100CCA008F939F93EF93FF9380911401882351F0A0
:100CDA00E1E8F0E080818F7B80831092850010929A
:100CEA00840023C080918600909187009093090127
:100CFA0080930801809108019091090143EA489F75
:100D0A009001499F300D1124232F332784E690E068
:100D1A00821B930B9093070180930601E1E8F0E0B0
:100D2A00808180648083808180839091140181E036
:100D3A00892780931401FF91EF919F918F914F9191
:0E0D4A003F912F910F900FBE0F901F901895A4
:100D580006C019F416F40C94380A0C9489090E94F8
:100D68005308B8F39923C9F3B6F39F57550B87FF78
:100D78000E94140A0024A0E640EA90018058569583
:100D8800979528F4805C660F771F881F20F0261738
:100D98003707480730F4621B730B840B202931296D
:100DA8004A2BA69517940794202531254A2758F7EA
:100DB800660F771F881F20F026173707480730F47B
:100DC800620B730B840B200D311D411DA09581F71B
:0E0DD800B901842F9158880F9695879508953C
:100DE600EF92FF920F931F93CF93DF938C01FC0139
:100DF6001082A1E0B0E0E12CF12CE0ECF0E0C6ECD2
:100E0600D0E090819923ECF78881282F30E0A33039
:100E1600B10594F4A901405351099A012E0D3F1DC5
:100E26007901EE0CFF1C220F331F220F331F220FF6
:100E3600331FE20EF31E04C0C901C097E80EF91E67
:100E46001196A430B105E9F681E0F8018083FB0133
:100E5600F182E082DF91CF911F910F91FF90EF9089
:020E66000895ED
:100E6800E89409C097FB3EF490958095709561953C
:100E78007F4F8F4F9F4F9923A9F0F92F96E9BB27F2
:100E88009395F695879577956795B795F111F8CF6E
:100E9800FAF4BB0F11F460FF1BC06F5F7F4F8F4FD9
:100EA8009F4F16C0882311F096E911C0772321F0CF
:100EB8009EE8872F762F05C0662371F096E8862F67
:100EC80070E060E02AF09A95660F771F881FDAF7BE
:0A0ED800880F9695879597F9089505
:100EE2001F920F920FB60F9211248F939F93EF933D
:100EF200FF93809104019091050101969093050161
:100F0200809304018091040190910501843691053A
:100F1200C9F41092050110920401809116018F5FAD
:100F220080931601809116018C3319F410921601E8
:100F320009C0809116018A3029F4E1E8F0E080814D
:100F420085608083FF91EF919F918F910F900FBEEB
:060F52000F901F9018959E
:100F58000E94530888F09F5798F0B92F9927B751E6
:100F6800B0F0E1F0660F771F881F991F1AF0BA9545
:100F7800C9F714C0B13091F00E940D0AB1E008958C
:100F88000C940D0A672F782F8827B85F39F0B93F7E
:100F9800CCF3869577956795B395D9F73EF49095F8
:0E0FA8008095709561957F4F8F4F9F4F0895F4
:100FB600DF93CF931F930F93FF92EF92DF927B0104
:100FC6008C01689406C0DA2EEF010E943305FE01FB
:100FD600E894A5912591359145915591A6F3EF0198
:100FE6000E949D05FE019701A801DA9469F7DF903A
:0E0FF600EF90FF900F911F91CF91DF91089522
:101004000F931F93CF93DF938091C0008823B4F094
:10101400C4E0D0E000EC10E02FEF89E698E1215025
:1010240080409040E1F700C000008EE20E94E80991
:10103400F8018081882314F0219771F78091C6000C
:0A104400DF91CF911F910F910895E5
:10104E00990F0008550FAA0BE0E8FEEF16161706CB
:10105E00E807F907C0F012161306E407F50798F033
:10106E00621B730B840B950B39F40A2661F0232B4C
:10107E00242B252B21F408950A2609F4A140A695C8
:08108E008FEF811D811D089503
:1010960057FD9058440F551F59F05F3F71F0479523
:1010A600880F97FB991F61F09F3F79F08795089508
:1010B600121613061406551FF2CF4695F1DF08C027
:1010C600161617061806991FF1CF86957105610544
:0410D60008940895DD
:1010DA00A1E21A2EAA1BBB1BFD010DC0AA1FBB1F32
:1010EA00EE1FFF1FA217B307E407F50720F0A21BA4
:1010FA00B30BE40BF50B661F771F881F991F1A9411
:10110A0069F760957095809590959B01AC01BD013A
:04111A00CF01089564
:10111E00DF93CF931F930F938B01EC01E8E6F0E082
:10112E000E94DB070E944B099801AE018B01EC0176
:10113E0060E070E080E89FE30E94F8090E94AC0630
:10114E009801AE010F911F91CF91DF910C94330551
:10115E000E940208823361F018F4813331F0089551
:10116E00833349F0843351F008950E94C9040895E1
:10117E000E947F03089510921501089581E08093D7
:04118E0015010895AA
:1011920084B18C6284B98CB582658CBD6FEF89E0B5
:1011A2000E94BD096091120161508BE00E94BD094D
:1011B20068E08AE00E94BD0961E08CE00E94BD09FE
:0211C20008958E
:1011C400F8940E9497090E945C090E946B090E948E
:1011D40028090E94B1090E94C90880E18AB91BB894
:1011E40078940E94D3090E9404060E94AF08FDCFA0
:1011F400CF93DF93161617067CF4DC01680F791F72
:10120400E0ECF0E0C6ECD0E0908195FFFDCF9D913D
:0E1214009883A617B707C1F7DF91CF91089511
:10122200052E97FB1EF400940E94F00957FD07D08B
:101232000E946D0807FC03D04EF40C94F0095095FF
:0E1242004095309521953F4F4F4F5F4F0895D7
:101250001092850010928400E1E8F0E080818064C3
:101260008083AFE6B0E08C9181628C938081856051
:0412700080830895DA
:101274009F939F770E948F080F90002042F490580C
:10128400A2EA2AED3FE049E450E40E949D050C9453
:021294004B0904
:10129600092E0394000C11F4882352F0BB0F40F47E
:1012A600BF2B11F460FF04C06F5F7F4F8F4F9F4FBE
:0212B600089599
:1012B8008BB18C608BB9E9E6F0E080818360808334
:0E12C8008081846080838DB383608DBB089528
:1012D60084B58E7F84BD84B58D7F84BD85B5877FBB
:0E12E60085BDEEE6F0E0808181608083089592
:1012F400A29FB001B39FC001A39F700D811D112453
:0E130400911DB29F700D811D1124911D089541
:101312009F3F31F0915020F4879577956795B79567
:0C132200880F911D9695879597F9089506
:10132E0055985D9AE8E6F0E0808184608083EDE672
:0A133E00F0E0808180628083089552
:10134800992777FD05C005900D920197E1F708955B
:0A13580001900D920197E1F708954E
:101362001092C50087E68093C40088E18093C10093
:081372008EE08093C200089593
:10137A00CF93C62F2A980E94210A8C2F0E94210AF5
:06138A002A9ACF9108959C
:10139000CF93C09112016FE08C2F0E94BD09C15004
:0613A000D1F7CF91089582
:1013A60086E086BD85B5816085BD85B5826085BDD3
:0613B60085B585BD089518
:1013BC001F920F920FB60F9211240F900FBE0F9029
:0413CC001F901895C1
:1013D000E0ECF0E0908195FFFDCF8093C60008958A
:1013E00090958095709561957F4F8F4F9F4F089591
:0E13F0005058BB27AA270E949D050C944B095C
:0E13FE0000240A94161617061806090608950C
:0E140C0000240A94121613061406050608950D
:0E141A00E894BB2766277727CB0197F9089542
:0E14280091505040660F771F881FD2F708952D
:0C14360097F99F6780E870E060E008957F
:0A1442008EBD0DB407FEFDCF089526
:0A144C000E94270808F481E00895CB
:0A1456000E94270808F48FEF0895A4
:081460000E94EE030C944B09FD
:081468000E9433050C944B09AE
:061470009FEF80EC0895DF
:041476000C940000D2
:04147A00DB0F4940FB
:02147E0032003A
:021480006E00FC
:011482000168
:011483000167
:00000001FF
