:100000000C9464000C945C0B0C94CA040C94890E40
:100010000C94890E0C94890E0C94890E0C94890E04
:100020000C94890E0C94890E0C94010A0C94890E80
:100030000C94890E0C94890E0C94890E0C94890EE4
:100040000C94A60A0C94890E0C94890E0C94890EBB
:100050000C94890E0C94890E0C94890E0C94890EC4
:100060000C94890E0C94890E05A84CCDB2D44EB9CF
:100070003836A9020C50B9918688083CA6AAAA2A4B
:10008000BE000000803F0100010480010401060061
:100090001D16010601108001100112001D18011229
:1000A00001148001140118001D1A011801198001A2
:1000B00019011A001D1E011A011B80011B011C00E1
:1000C0001D1F011C011F800011241FBECFEFD8E0AF
:1000D000DEBFCDBFE6E8F0E040E017C0B591A591E6
:1000E00035912591059107FD0CC095918591EF0102
:1000F000F92FE82F05900D92A217B307D9F7FE014B
:1001000004C01D92A217B307E1F7E73CF40731F7EB
:0C0110000E94360C0C948C00F894FFCF79
:10011C0053652065737461626C6563696F20656CEF
:10012C002076616C6F7220696E6772657361646FA3
:10013C003A200A0D00416C65727461212C20696EA5
:10014C006772657365206F74726F2076616C6F7265
:10015C002E200A0D00416A75737461722054656E0D
:10016C0073696F6E20646520526564204C6F636107
:10017C006C200A0D0053652065737461626C6563B5
:10018C00696F20756E612054656E73696F6E2064A3
:10019C0065207265642064653A200A0D0053656C15
:1001AC00656363696F6E65206C6120616363696F61
:1001BC006E20717565206465736565207265616C70
:1001CC00697A61723A200A0D0020312E204D6F643D
:1001DC00696669636172206C612054656E73696F26
:1001EC006E206465205265642E200A0D0020322E8C
:1001FC00204D6F64696669636172206C612054657F
:10020C006E73696F6E2064656C2044696D6D6572E8
:10021C002E200A0D00207C20202054656E73696FFF
:10022C006E206465205265642020207C2054656E0D
:10023C0073696F6E20646520536574656164612019
:10024C007C2054656E73696F6E20524D53207C2058
:10025C002020546F6E2020207C20416E67756C6FBF
:10026C00207C200A0D00207C202020202020202013
:10027C00005620202020202020207C202020202000
:10028C00202000562020202020202020207C2020F0
:10029C002000562020207C202000207C2020008F55
:1002AC0020207C00416A75737461722054656E73F2
:1002BC00696F6E2064652044696D6D6572204C6FAA
:1002CC0063616C200A0D0053652065737461626C68
:1002DC006563696F20756E612054656E73696F6E0E
:1002EC0020656E206C612063617267612064653AE1
:0402FC00200A0D00C7
:100300004F925F926F927F928F929F92AF92BF9225
:10031000CF92DF92EF92FF920F931F93CF93DF93D1
:1003200000D000D000D0CDB7DEB7209100013091D1
:1003300001014091020150910301A4EBB0E00E9441
:10034000220E28EE33E040E050E00E94C30C3093D0
:100350000B0120930A0120911401309115013E8375
:100360002D8300910A0110910B0160910A01709197
:100370000B0180E090E00E94E80A2BED3FE049E4A9
:1003800050E40E94820E20E030E044E353E40E94F7
:100390007E0E2BED3FE049E450E40E94470E9B01A6
:1003A000AC010E94470E0E94360E6B017C01480191
:1003B000A12CB12CC501B4010E94E80A2BED3FE04D
:1003C00049E450E40E94820E20E030E044E353E42C
:1003D0000E947E0E4B015C0120E030E040E05FE3D4
:1003E000C701B6010E94820E9B01AC01C501B40198
:1003F0000E94460E0E945F0A69837A838B839C83E6
:100400000091140110911501C0900A01D0900B01C8
:1004100060910A0170910B0180E090E00E94E80A6F
:100420002BED3FE049E450E40E94820E20E030E0F2
:1004300044E353E40E947E0E9B01AC010E94470EF0
:100440000E94360E4B015C01E12CF12CC701B60174
:100450000E94E80A2BED3FE049E450E40E94820E3E
:1004600020E030E044E353E40E947E0E6B017C0107
:1004700020E030E040E05FE3C501B4010E94820E5D
:100480009B01AC01C701B6010E94460E0E945F0AA3
:100490006B017C012D813E81B90180E090E00E94DA
:1004A000E80A23EF34E045EB5FE30E94820E2981E6
:1004B0003A814B815C810E94820E25EC3FED42E641
:1004C00050E40E947E0E20E030E048EC52E40E94AE
:1004D000820E0E948D0B80E090E00E94E80A4B01A2
:1004E0005C01B80180E090E00E94E80A23EF34E06C
:1004F00045EB5FE30E94820EA70196010E94820EE7
:1005000025EC3FED42E650E40E947E0E20E030E014
:1005100048EC52E40E94820E0E948D0B80E090E035
:100520000E94E80A6B017C01A5019401C501B40198
:100530000E94820E4B015C01A7019601C701B60122
:100540000E94820E9B01AC01C501B4010E94470EBE
:100550000E945F0A0E948D0BCB0126960FB6F8947D
:10056000DEBF0FBECDBFDF91CF911F910F91FF90E6
:10057000EF90DF90CF90BF90AF909F908F907F9043
:080580006F905F904F90089509
:100588009F92AF92BF92CF92DF92EF92FF920F931A
:100598001F93CF93DF9300D000D000D0CDB7DEB744
:1005A8006C01962E9C01ADECBCEC0E94D60DAC0102
:1005B800569547955695479556954795CA01880F7C
:1005C800991F440F551F440F551F440F551F480FBF
:1005D800591FC601841B950BAC010E94D60D8C01D6
:1005E80016950795169507951695079598010E94F3
:1005F800D60DFC01F695E795F695E795F695E795FE
:10060800CF01880F991FEE0FFF1FEE0FFF1FEE0F90
:10061800FF1FE80FF91FC8018E1B9F0BFC019601F5
:100628003695279536952795ABE7B4E10E94D60D08
:100638007C01F694E7949701ADECBCEC0E94D60DD2
:100648008C01169507951695079516950795C80177
:10065800880F991F000F111F000F111F000F111F86
:10066800080F191FC701801B910B8C019601369545
:1006780027953695279536952795A5ECB0E20E94E3
:10068800D60D5C01B694A794B694A794B694A79493
:10069800B694A7949501ADECBCEC0E94D60D7C01F4
:1006A800F694E794F694E794F694E794C701880FD4
:1006B800991FEE0CFF1CEE0CFF1CEE0CFF1CE80E45
:1006C800F91EC5018E199F097C0193E099120DC08E
:1006D800005D0983E05DEA83405D4B8363E070E081
:1006E800CE0101960E944E0D4FC084E0981212C0B0
:1006F80080E38E0D8983005D0A8388E78B83E05D44
:10070800EC83405D4D8365E070E0CE0101960E9468
:100718004E0D3AC095E0991225C096013295229562
:100728002F7023273F702327A7E4B3E00E94D60D3C
:10073800969587959695879596958795805D8983F3
:1007480080E38E0D8A83005D0B838CE28C83E05DF1
:10075800ED83405D4E8366E070E0CE0101960E9415
:100768004E0D12C0005D0983E05DEA838CE28B8345
:10077800405D4C838DE68D8383E78E8366E070E071
:10078800CE0101960E944E0D26960FB6F894DEBF54
:100798000FBECDBFDF91CF911F910F91FF90EF90CA
:0C07A800DF90CF90BF90AF909F9008951D
:1007B400CF93DF93CDB7DEB7C750D1400FB6F894CF
:1007C400DEBF0FBECDBF29EA31E040E08CE2F90183
:1007D400DE011196742F0E94F30D6CE270E0CE01DD
:1007E40001960E944E0D25ED31E040E084E2F901CE
:1007F400DE019D96742F0E94F30D64E270E0CE0139
:100804008D960E944E0D29EF31E040E088E2F90117
:10081400DE01AF5ABF4F742F0E94F30D68E270E0FF
:10082400CE018F5A9F4F0E944E0D21E232E040E0EC
:1008340081E5F901DE01A758BF4F742F0E94F30D23
:1008440061E570E0CE0187589F4F0E944E0D22E76C
:1008540032E040E08BE0F901DE01A653BF4F742F74
:100864000E94F30D2DE732E040E082E1F901DE0160
:10087400AB52BF4F742F0E94F30D2FE832E040E0DB
:100884008FE0F901DE01A951BF4F742F0E94F30DCF
:100894006BE070E0CE0186539F4F0E944E0D809115
:1008A40014019091150163E00E94C40262E170E0BA
:1008B400CE018B529F4F0E944E0D8091100190915A
:1008C400110163E00E94C4026FE070E0CE0189511F
:1008D4009F4F0E944E0D0E94800165E00E94C40259
:1008E4002EE932E040E088E0F901DE01AA50BF4F72
:1008F400742F0E94F30D26EA32E040E085E0F9010E
:10090400DE01A250BF4F742F0E94F30D68E070E027
:10091400CE018A509F4F0E944E0D209108013091C4
:1009240009013695279536952795ABE7B4E10E94E2
:10093400D60D66E0969587950E94C40265E070E046
:10094400CE0182509F4F0E944E0D2BEA32E040E0D0
:1009540085E0F901DE01AD5FBE4F742F0E94F30DF7
:1009640080910A0190910B0163E00E94C40265E04A
:1009740070E0CE018D5F9E4F0E944E0DC95FDE4F29
:100984000FB6F894DEBF0FBECDBFDF91CF910895AF
:100994001F920F920FB60F9211244F925F926F9293
:1009A4007F928F929F92AF92BF92CF92DF92EF92FB
:1009B400FF922F933F934F935F936F937F938F9304
:1009C4009F93AF93BF93CF93EF93FF9380911B01BA
:1009D400882309F492C080E18BB960910801709179
:1009E400090180E090E00E94E80A6B017C012BEA97
:1009F4003AEA4AEA50E40E94820E4B015C0120E08C
:100A040030E040E85FE30E94740E88230CF470C069
:100A140020E030E040E850E4C701B6010E94820EB5
:100A24002B013C0120E03FEF4FE757E40E94790E91
:100A340018160CF045C020E030E04AE754E4C70142
:100A4400B6010E947E0E4B015C0120E030E04AE7D3
:100A540055E40E94820E6B017C0120E030E040E806
:100A64005FE30E94740E88232CF120E03FEF4FE7F0
:100A740057E4C701B6010E94790E1816B4F420E0B9
:100A840030E040E251E4C501B4010E94820E0E94AC
:100A94008D0B6115710569F120E931E0C9010197F8
:100AA400F1F761507109D1F724C0C701B6010E9462
:100AB4008D0B02C061E070E0CB010197F1F719C022
:100AC40020E030E04FE753E4C501B4010E94790E01
:100AD400181644F4C301B2010E948D0BCB01019797
:100AE400F1F70AC0C501B4010E948D0BC62F01C0E5
:100AF400C1E06C2F6A95F1F71BB8FF91EF91CF918C
:100B0400BF91AF919F918F917F916F915F914F9121
:100B14003F912F91FF90EF90DF90CF90BF90AF90D7
:100B24009F908F907F906F905F904F900F900FBE2B
:060B34000F901F901895C0
:100B3A000E9480019C01ADECBCEC0E94D60D9695FA
:100B4A00879596958795969587952091040130917A
:100B5A000501A9014B5F5F4F8417950730F44A508E
:100B6A0051094817590708F48DC041E0409317010D
:100B7A00A901465F5F4F8417950728F4445151092C
:100B8A0048175907A0F04091080150910901281B04
:100B9A00390BC901880F991F880F991F280F391F10
:100BAA00240F351F30930901209308010895A901E4
:100BBA004C5E5F4F8417950728F44852510948172D
:100BCA005907B0F04091080150910901281B390BCF
:100BDA0068EE73E0269FC001279F900D369F900D07
:100BEA001124840F951F9093090180930801089599
:100BFA00A90144545D4F8417950728F44857554076
:100C0A0048175907B8F04091080150910901281B6B
:100C1A00390BADECBCEC0E94D60D9695879596954E
:100C2A00879596958795480F591F509309014093C8
:100C3A0008010895A90148515C4F8417950728F4C3
:100C4A00405D574048175907F8F040910801509104
:100C5A000901281B390B3695279536952795369520
:100C6A002795A5ECB0E20E94D60D929582958F70D9
:100C7A0089279F708927480F591F5093090140936C
:0A0C8A000801089510921701089563
:100C9400CF93DF93CDB7DEB7C055D1090FB6F89423
:100CA400DEBF0FBECDBF20EB32E040E083E2F901AE
:100CB400DE011196742F0E94F30D63E270E0CE0101
:100CC40001960E944E0D80911C01823009F05DC096
:100CD40080E090E00E947F0CBC01990F880B990B77
:100CE4000E94EA0A20E030E048EC52E40E94820EBE
:100CF40020E030E040E85AE30E94820E0E948D0B0F
:100D04007093070160930601409106015091070119
:100D14008091140190911501489F9001499F300DD5
:100D2400589F300D11243695279536952795ABE7B6
:100D3400B4E10E94D60D9695879590931101809306
:100D44001001609110017091110180E090E042E087
:100D540050E00E94700780911001909111019C0154
:100D6400220F331F880F991F880F991F880F991F0F
:100D7400820F931F90930501809304010E949D05A7
:100D840080911C01823009F4A3CF82E080931C017E
:100D94001092180123ED32E040E08DE2F901DE010A
:100DA4009496742F0E94F30D6DE270E0CE01849648
:100DB4000E944E0D809110019091110163E00E94F8
:100DC400C402C05BDF4F0FB6F894DEBF0FBECDBFC9
:060DD400DF91CF910895AC
:100DDA00CF93DF93CDB7DEB7A5970FB6F894DEBFF2
:100DEA000FBECDBF609110017091110180E090E0BB
:100DFA0042E050E00E9470078EE091E00E94250BCD
:100E0A0020910E0130910F018091140190911501EA
:100E1A008217930708F446C080910E0190910F0142
:100E2A00059708F43FC080910E0190910F019093AD
:100E3A001101809310012CE131E040E085E2F901D3
:100E4A00DE011196742F0E94F30D65E270E0CE0167
:100E5A0001960E944E0D809110019091110163E05C
:100E6A000E94C40280911001909111019C01220FED
:100E7A00331F880F991F880F991F880F991F820F98
:100E8A00931F909305018093040160911001709162
:100E9A00110180E090E042E050E00E9470070E9459
:100EAA009D0510C021E431E040E080E2F901DE0155
:100EBA001196742F0E94F30D60E270E0CE01019644
:100ECA000E944E0DA5960FB6F894DEBF0FBECDBF99
:060EDA00DF91CF910895A5
:100EE000BF92CF92DF92EF92FF920F931F93CF9317
:100EF000DF9300D000D0CDB7DEB769837A838B83D0
:100F00009C83042F89819A81AB81BC81BB2394F49B
:100F100089819A81AB81BC81B095A095909581958E
:100F20009F4FAF4FBF4F89839A83AB83BC83BB2452
:100F3000B39401C0B12C0E94170E89819A81AB81B4
:100F4000BC81892B8A2B8B2B29F460E081E00E94E5
:100F50000C0E32C010E00F2EFAE0CF2ED12CE12C77
:100F6000F12CF02D69817A818B819C811F5FA70113
:100F700096010E94650D812F0E940C0E69817A8175
:100F80008B819C81A70196010E94650D29833A837C
:100F90004B835C8389819A81AB81BC81892B8A2BAD
:100FA0008B2B01F7602F87E00E940C0EBB2021F0F5
:100FB0006AE0812F0E940C0E0F900F900F900F90FF
:100FC000DF91CF911F910F91FF90EF90DF90CF9025
:040FD000BF90089531
:100FD400CF93DF93CDB7DEB7C854D1090FB6F894D9
:100FE400DEBF0FBECDBF21E631E040E080E2F90173
:100FF400DE011196742F0E94F30D60E270E0CE01C1
:1010040001960E944E0D80911C01813051F580E0C3
:1010140090E00E947F0CBC01990F880B990B0E94F1
:10102400EA0A20E030E04CE553E40E94820E20E01E
:1010340030E040E85AE30E94820E0E948D0B7093C8
:10104400150160931401609114017091150180E001
:1010540090E041E050E00E94700780911C018130D3
:10106400B1F281E080931C011092180121E831E073
:1010740040E088E2F901DE019196742F0E94F30D9D
:1010840068E270E0CE0181960E944E0D80911401B9
:101094009091150163E00E94C402C85BDF4F0FB654
:0E10A400F894DEBF0FBECDBFDF91CF9108954F
:1010B20010C00E94540E58F00E944D0E40F029F4C8
:1010C2005F3F29F00C94690E51110C945C0E0C9444
:1010D200860E0E94A10C68F39923B1F3552391F374
:1010E200951B550BBB27AA2762177307840738F095
:1010F2009F5F5F4F220F331F441FAA1FA9F335D0F2
:101102000E2E3AF0E0E832D091505040E695001CA5
:10111200CAF72BD0FE2F29D0660F771F881FBB1F5F
:10112200261737074807AB07B0E809F0BB0B802D3D
:10113200BF01FF2793585F4F3AF09E3F510578F069
:101142000C94690E0C945C0E5F3FE4F3983ED4F36A
:10115200869577956795B795F7959F5FC9F7880F3D
:10116200911D9695879597F90895E1E0660F771F8F
:10117200881FBB1F621773078407BA0720F0621B20
:0E118200730B840BBA0BEE1F88F7E0950895EF
:101190000FC00E944D0E38F00E94540E20F095238F
:1011A00011F00C94690E0C94860E11240C945C0EB4
:1011B0000E94A10C70F3959FC1F3950F50E0551F4D
:1011C000629FF001729FBB27F00DB11D639FAA279C
:1011D000F00DB11DAA1F649F6627B00DA11D661FEB
:1011E000829F2227B00DA11D621F739FB00DA11D0C
:1011F000621F839FA00D611D221F749F3327A00DC6
:10120000611D231F849F600D211D822F762F6A2F61
:1012100011249F5750409AF0F1F088234AF0EE0FC6
:10122000FF1FBB1F661F771F881F91505040A9F7F3
:101230009E3F510580F00C94690E0C945C0E5F3F4C
:10124000E4F3983ED4F3869577956795B795F7952F
:10125000E7959F5FC1F7FE2B880F911D96958795A7
:0412600097F908955D
:10126400CF93DF93CDB7DEB7A5970FB6F894DEBF63
:101274000FBECDBF609114017091150180E090E024
:1012840041E050E00E94700782E191E00E94250B4A
:1012940080911201909113018A3F910580F580910C
:1012A4001201909113010A9750F1809112019091CB
:1012B400130190931501809314012CE131E040E077
:1012C40085E2F901DE011196742F0E94F30D65E2A7
:1012D40070E0CE0101960E944E0D80911401909110
:1012E400150163E00E94C40260911401709115011C
:1012F40080E090E041E050E00E94700710C021E4DB
:1013040031E040E080E2F901DE011196742F0E9481
:10131400F30D60E270E0CE0101960E944E0DA59699
:101324000FB6F894DEBF0FBECDBFDF91CF91089505
:1013340011C00E944D0E38F00E94540E20F039F472
:101344009F3F19F426F40C94860E0EF4E095E7FB07
:101354000C94690EE92F0E94A10C58F3BA17620786
:1013640073078407950720F079F4A6F50C945B0EB7
:101374000EF4E0950B2EBA2FA02D0B01B9019001AC
:101384000C01CA01A0011124FF27591B99F0593FF0
:1013940050F4503E68F11A16F040A22F232F342F38
:1013A4004427585FF3CF469537952795A795F04086
:1013B4005395C9F77EF41F16BA0B620B730B840B9B
:1013C400BAF09150A1F0FF0FBB1F661F771F881F53
:1013D400C2F70EC0BA0F621F731F841F48F48795AB
:1013E40077956795B795F7959E3F08F0B0CF93959D
:0E13F400880F08F09927EE0F979587950895BA
:101402001F920F920FB60F9211242F933F934F9377
:101412005F936F937F938F939F93AF93BF93EF935A
:10142200FF9380911901882351F0E1E8F0E0808177
:101432008F7B8083109285001092840028C0809157
:1014420086009091870090930D0180930C0120916A
:101452000C0130910D01ACECBCE00E94D60DAC0148
:101462006627772788EE93E0A0E0B0E0841B950B17
:10147200A60BB70B8093000190930101A093020188
:10148200B0930301E1E8F0E0808180648083909171
:10149200190181E0892780931901FF91EF91BF9192
:1014A200AF919F918F917F916F915F914F913F91FA
:0C14B2002F910F900FBE0F901F90189507
:1014BE0006C019F416F40C94860E0C94E50D0E94D9
:1014CE00A90CB8F39923C9F3B6F39F57550B87FFB1
:1014DE000E94620E0024A0E640EA900180585695C4
:1014EE00979528F4805C660F771F881F20F02617CB
:1014FE003707480730F4621B730B840B2029312900
:10150E004A2BA69517940794202531254A2758F77C
:10151E00660F771F881F20F026173707480730F40D
:10152E00620B730B840B200D311D411DA09581F7AD
:0E153E00B901842F9158880F969587950895CE
:10154C001F920F920FB60F9211242F933F934F932C
:10155C005F936F937F938F939F93AF93BF93EF930F
:10156C00FF9380911E018F5F80931E0180911E015D
:10157C008436A9F410921E0180911D018F5F809317
:10158C001D0180911D018C3329F410921D010E94C4
:10159C009D0505C08091170181110E949D0583E670
:1015AC0086BDFF91EF91BF91AF919F918F917F91EC
:1015BC006F915F914F913F912F910F900FBE0F90B4
:0415CC001F901895BF
:1015D000E89409C097FB3EF49095809570956195CD
:1015E0007F4F8F4F9F4F9923A9F0F92F96E9BB2783
:1015F0009395F695879577956795B795F111F8CFFF
:10160000FAF4BB0F11F460FF1BC06F5F7F4F8F4F69
:101610009F4F16C0882311F096E911C0772321F05F
:101620009EE8872F762F05C0662371F096E8862FF7
:1016300070E060E02AF09A95660F771F881FDAF74E
:0A164000880F9695879597F9089595
:10164A000F931F93CF93DF938C01A1E0B0E060E08A
:10165A0070E0E0ECF0E0C6ECD0E090819923ECF782
:10166A009881292F30E0A330B10584F42053310941
:10167A00260F371FB901660F771F220F331F220F5C
:10168A00331F220F331F620F731F05C0A901405376
:10169A005109640F751F1196A430B105F1F6F801CE
:0E16AA0071836083DF91CF911F910F9108959E
:1016B8001F920F920FB60F9211248F939F938091D0
:1016C8001A018823A9F080911E01823320F48091A9
:1016D8001D01882341F080911C01833020F481E0B2
:1016E8008093180105C080911C018F5F80931C01B5
:1016F80010921D0110921E0190911A0181E0892714
:1017080080931A019F918F910F900FBE0F901F9099
:02171800189522
:10171A000E94A90C88F09F5798F0B92F9927B751C2
:10172A00B0F0E1F0660F771F881F991F1AF0BA957B
:10173A00C9F714C0B13091F00E945B0EB1E0089570
:10174A000C945B0E672F782F8827B85F39F0B93F62
:10175A00CCF3869577956795B395D9F73EF490952E
:0E176A008095709561957F4F8F4F9F4F08952A
:101778000E94A90C10F40C94860EE894E0E0BB27B4
:101788009F57F0F02AED3FE049EC06C0EE0FBB0F83
:10179800661F771F881F28F0B23A6207730784070D
:1017A80028F0B25A620B730B840BE3959A9572F783
:1017B800803830F49A95BB0F661F771F881FD2F7C1
:0617C80090480C94E70DAF
:1017CE0080911C01813019F0823091F00895609162
:1017DE0014017091150180E090E041E050E00E940C
:1017EE00700780911801882391F00E94EA070895EE
:1017FE00609110017091110180E090E042E050E0A4
:10180E000E9470078091180181110E944A06089566
:10181E00DF93CF931F930F93FF92EF92DF927B0193
:10182E008C01689406C0DA2EEF010E94C808FE01F2
:10183E00E894A5912591359145915591A6F3EF0127
:10184E000E949A09FE019701A801DA9469F7DF90C8
:0E185E00EF90FF900F911F91CF91DF910895B1
:10186C00F8940E94C70D0E941D0D0E94A40D0E94A9
:10187C002D0E0E94000E0E94040D80E18AB91BB847
:10188C0078940E94DA030E949D0580911C018823A4
:10189C0021F080911C01833028F010921C010E94D1
:0A18AC00E50CF1CF0E94E70BEECF30
:1018B600990F0008550FAA0BE0E8FEEF161617065B
:1018C600E807F907C0F012161306E407F50798F0C3
:1018D600621B730B840B950B39F40A2661F0232BDC
:1018E600242B252B21F408950A2609F4A140A69558
:0818F6008FEF811D811D089593
:1018FE00ECE7F0E09081907F90839081892B80833C
:10190E00EAE7F0E080818068808385E38A95F1F7CD
:10191E000000808180648083808184FFFDCFEAE7B0
:10192E00F0E08081806180831082809178009091B8
:04193E00790008958F
:1019420057FD9058440F551F59F05F3F71F047956E
:10195200880F97FB991F61F09F3F79F08795089553
:10196200121613061406551FF2CF4695F1DF08C072
:10197200161617061806991FF1CF8695710561058F
:041982000894089528
:10198600A1E21A2EAA1BBB1BFD010DC0AA1FBB1F7D
:10199600EE1FFF1FA217B307E407F50720F0A21BEF
:1019A600B30BE40BF50B661F771F881F991F1A945C
:1019B60069F760957095809590959B01AC01BD0186
:0419C600CF010895B0
:1019CA000E94360D833389F028F4813341F0823343
:1019DA0049F00895843361F0883771F008950E94C0
:1019EA00320908950E94ED06089510921B01089588
:0E19FA0081E080931B0108950E94DA03089596
:101A080084B18C6284B98CB582658CBD6FEF89E036
:101A18000E940C0E6091160161508BE00E940C0E22
:101A280068E08AE00E940C0E61E08CE00E940C0ED7
:021A380008950F
:101A3A0084B58E7F84BD84B58D7F84BD85B5877F4F
:101A4A0085BDEEE6F0E080818160808383E686BD15
:101A5A0085B5816085BD85B585BD85B5846085BD43
:021A6A000895DD
:101A6C0083E690E0E0ECF0E00BC02FEF30E742E0D3
:101A7C00215030404040E1F700C00000019731F0A8
:101A8C002081222394F78091C600089580E3089565
:101A9C00CF93DF93161617067CF4DC01680F791FC1
:101AAC00E0ECF0E0C6ECD0E0908195FFFDCF9D918D
:0E1ABC009883A617B707C1F7DF91CF91089561
:101ACA00052E97FB1EF400940E943E0E57FD07D088
:101ADA000E94C30C07FC03D04EF40C943E0E5095A2
:0E1AEA004095309521953F4F4F4F5F4F089527
:101AF800EF93E0FF07C0A2EA2AED3FE049EC5FEB75
:101B08000E949A090E94B60D0F90039401FC905808
:081B1800E8E6F0E00C94900DEA
:101B20009F938F937F936F93FF93EF939B01AC01F0
:101B30000E94820EEF91FF910E940F0C2F913F9116
:081B40004F915F910C94820E9D
:101B48001092850010928400E1E8F0E080818064C2
:101B58008083AFE6B0E08C9181628C938081826053
:041B680080830895D9
:101B6C00092E0394000C11F4882352F0BB0F40F49F
:101B7C00BF2B11F460FF04C06F5F7F4F8F4F9F4FDF
:021B8C000895BA
:101B8E008BB18C608BB9E9E6F0E080818160808357
:0E1B9E0080818C6080838DB383608DBB089541
:101BAC00A29FB001B39FC001A39F700D811D112492
:0E1BBC00911DB29F700D811D1124911D089581
:101BCA009F3F31F0915020F4879577956795B795A7
:0C1BDA00880F911D9695879597F9089546
:101BE600992777FD05C005900D920197E1F70895B5
:0A1BF60001900D920197E1F70895A8
:101C00001092C50087E68093C40088E18093C100EC
:081C10008EE08093C2000895EC
:101C1800CF93C62F2A980E946F0E8C2F0E946F0EAA
:061C28002A9ACF910895F5
:101C2E00CF93C09116016FE08C2F0E940C0EC15005
:061C3E00D1F7CF910895DB
:101C44000E94D60DA59F900DB49F900DA49F800D6A
:061C5400911D112408950A
:101C5A00ECE7F0E0108280E4808387E080937A00EA
:021C6A000895DB
:101C6C009F930E94BC0B0F9007FCEE5F0C947C0DB5
:101C7C0090958095709561957F4F8F4F9F4F0895EC
:0E1C8C005058BB27AA270E949A090C94B60D47
:0E1C9A0000240A941616170618060906089567
:0E1CA80000240A941216130614060506089569
:0E1CB600E894BB2766277727CB0197F908959E
:0E1CC40091505040660F771F881FD2F7089589
:0C1CD20097F99F6780E870E060E00895DB
:0A1CDE008EBD0DB407FEFDCF089582
:0A1CE8000E945B0C08F481E00895EF
:0A1CF2000E945B0C08F48FEF0895C8
:081CFC000E9459080C94B60D7A
:081D04000E94C8080C94B60D02
:061D0C009FEF80EC08953A
:041D12000C9400002D
:021D1600F401D6
:021D1800320097
:021D1A006E0059
:011D1C0008BE
:011D1D0001C4
:011D1E0001C3
:011D1F0001C2
:00000001FF
