:100000000C944F000C947E070C94B1060C944A0893
:100010000C944A080C944A080C944A080C944A0818
:100020000C944A080C944A080C9479000C944A08E1
:100030000C944A080C944A080C944A080C944A08F8
:100040000C941D060C944A080C945B040C944A080A
:100050000C944A080C9411010C944A080C944A0818
:100060000C944A080C944A0805A84CCDB2D44EB959
:100070003836A9020C50B9918688083CA6AAAA2A4B
:10008000BE000000803F0100011D80011D011F0016
:100090001098011F0120800120012200109A1124D4
:1000A0001FBECFEFD8E0DEBFCDBFE6E8F0E040E016
:1000B00017C0B591A59135912591059107FD0CC00B
:1000C00095918591EF01F92FE82F05900D92A217D8
:1000D000B307D9F7FE0104C01D92A217B307E1F7D9
:1000E000EE39F40731F70E9431020C947700F8944E
:0200F000FFCF40
:1000F2001F920F920FB60F9211242F933F934F939B
:100102005F936F937F938F939F93AF93BF93EF937D
:10011200FF93809120018130F9F4E1E8F0E08081E1
:100122008F7B80838091170190911801A091190112
:10013200B0911A0180930A0190930B01A0930C01D4
:10014200B0930D01109285001092840080912001DD
:100152008F5F8093200153C02091860030918700E9
:10016200ACECBCE00E94AF07AC016627772788EEB3
:1001720093E0A0E0B0E0841B950BA60BB70B809335
:10018200170190931801A0931901B0931A0140919D
:100192001701509118016091190170911A01809113
:1001A2000A0190910B01A0910C01B0910D018417ED
:1001B2009507A607B70748F080911701909118019B
:1001C200A0911901B0911A0108C080911301909178
:1001D2001401A0911501B09116018093130190931F
:1001E2001401A0931501B0931601E1E8F0E08081BB
:1001F2008064808380912001815080932001FF914F
:10020200EF91BF91AF919F918F917F916F915F918C
:100212004F913F912F910F900FBE0F901F90189505
:100222001F920F920FB60F921124CF92DF92EF928C
:10023200FF922F933F934F935F936F937F938F938D
:100242009F93AF93BF93CF93DF93EF93FF938091ED
:100252000001813099F01CF4882339F05DC08230AE
:1002620081F0833009F454C057C080E480937C004D
:10027200809100018F5F8093000153C010920001B2
:1002820050C06091780070917900C0910301D091C3
:10029200040180E090E00E944C052DEC3CEC4CE423
:1002A2005DE30E9443086B017C01BE0180E090E0A7
:1002B2000E944C0523E333E343E75FE30E944308D4
:1002C2009B01AC01C701B6010E9412080E94C3053E
:1002D20070930401609303012091030130910401A2
:1002E20049E1429FC001439F900D1124892F8695B9
:1002F200869580930E0160910E0170E080E090E09F
:100302000E94B204809100018F5F8093000109C0B6
:1003120082E08093000105C01092000181E4809385
:100322007C00FF91EF91DF91CF91BF91AF919F91AF
:100332008F917F916F915F914F913F912F91FF909C
:10034200EF90DF90CF900F900FBE0F901F901895F7
:100352001F93CF93DF9300D000D0CDB7DEB7FC015F
:10036200162F8AE289839F01369527953695279520
:10037200ABE7B4E10E94AF07AC01569547959A01ED
:10038200ADECBCEC0E94AF07969587959695879544
:10039200969587959C01220F331F880F991F880F0E
:1003A200991F880F991F820F931F481B590B405D9D
:1003B2004A839F010E94AF07AC0156954795569517
:1003C2004795569547959A010E94AF07969587954E
:1003D20096958795969587959C01220F331F880FD6
:1003E200991F880F991F880F991F820F931F9A01D7
:1003F200281B390BC901805D8B83CA01880F991FA5
:10040200440F551F440F551F440F551F480F591FC6
:10041200E41BF50BE05DEC83123061F018F411304F
:1004220031F010C0133049F0143051F00BC084E2A7
:10043200898308C085E2898305C086E2898302C078
:1004420080E4898364E070E0CE0101960E94000797
:100452000F900F900F900F90DF91CF911F91089501
:10046200F8940E94A0070E94E8060E946C070E946E
:100472002E070E94CC070E94CF0680E88AB97894A2
:1004820087E080930E018AE18093090182E390E084
:10049200A0E0B0E08093170190931801A093190196
:1004A200B0931A018AE58093010184EF91E0909361
:1004B2001101809310010F2EF8EECF2EF3E0DF2E04
:1004C200E12CF12CF02D809102018431E1F7209191
:1004D2001301309114014091150150911601A4EBC2
:1004E200B0E00E94EE07A70196010E948F062093BA
:1004F20001010E941C0380930F010E9489058091D3
:100502000F0161E090E00E94A9018091090162E07F
:1005120090E00E94A9018091130190911401A09191
:100522001501B091160163E00E94A90180910E01AC
:1005320064E090E00E94A9018091010165E090E0F1
:100542000E94A90160910F0170E080E090E00E949A
:08055200B20410920201B7CFC0
:10055A0010C00E941F0858F00E94180840F029F4A1
:10056A005F3F29F00C94340851110C9427080C941D
:10057A0047080E946D0668F39923B1F3552391F356
:10058A00951B550BBB27AA2762177307840738F0F8
:10059A009F5F5F4F220F331F441FAA1FA9F335D055
:1005AA000E2E3AF0E0E832D091505040E695001C09
:1005BA00CAF72BD0FE2F29D0660F771F881FBB1FC3
:1005CA00261737074807AB07B0E809F0BB0B802DA1
:1005DA00BF01FF2793585F4F3AF09E3F510578F0CD
:1005EA000C9434080C9427085F3FE4F3983ED4F344
:1005FA00869577956795B795F7959F5FC9F7880FA1
:10060A00911D9695879597F90895E1E0660F771FF2
:10061A00881FBB1F621773078407BA0720F0621B83
:0E062A00730B840BBA0BEE1F88F7E095089552
:100638008F929F92AF92BF92CF92DF92EF92FF92EA
:10064800CF93C0910901C09001016091010170E050
:1006580080E090E00E944E052BED3FE049E450E435
:100668000E94430820E030E044EB52E40E943F0837
:100678000E9401084B015C01D12CE12CF12CC7012F
:10068800B6010E944E052BED3FE049E450E40E947C
:10069800430820E030E044EB52E40E943F08A50103
:1006A80094010E9411080E9405056B017C016C2FC2
:1006B80070E080E090E00E944E0525EC3FED42EEB0
:1006C8005FE30E94430823EF34E045EB5FE30E94B9
:1006D8004308A70196010E9443082BED3FE049EC2F
:1006E80050E40E943F0826E636E646EC5FE30E94A7
:1006F80012080E94C305CB01CF91FF90EF90DF90C5
:0C070800CF90BF90AF909F908F9008950D
:100714000FC00E94180838F00E941F0820F095238B
:1007240011F00C9434080C94470811240C942708F5
:100734000E946D0670F3959FC1F3950F50E0551F0D
:10074400629FF001729FBB27F00DB11D639FAA2722
:10075400F00DB11DAA1F649F6627B00DA11D661F71
:10076400829F2227B00DA11D621F739FB00DA11D92
:10077400621F839FA00D611D221F749F3327A00D4C
:10078400611D231F849F600D211D822F762F6A2FE8
:1007940011249F5750409AF0F1F088234AF0EE0F4D
:1007A400FF1FBB1F661F771F881F91505040A9F77A
:1007B4009E3F510580F00C9434080C9427085F3F49
:1007C400E4F3983ED4F3869577956795B795F795B6
:1007D400E7959F5FC1F7FE2B880F911D969587952E
:0407E40097F90895E4
:1007E80011C00E94180838F00E941F0820F039F440
:1007F8009F3F19F426F40C9447080EF4E095E7FBA4
:100808000C943408E92F0E946D0658F3BA17620752
:1008180073078407950720F079F4A6F50C94260849
:100828000EF4E0950B2EBA2FA02D0B01B901900103
:100838000C01CA01A0011124FF27591B99F0593F47
:1008480050F4503E68F11A16F040A22F232F342F8F
:100858004427585FF3CF469537952795A795F040DD
:100868005395C9F77EF41F16BA0B620B730B840BF2
:10087800BAF09150A1F0FF0FBB1F661F771F881FAA
:10088800C2F70EC0BA0F621F731F841F48F4879502
:1008980077956795B795F7959E3F08F0B0CF9395F4
:0E08A800880F08F09927EE0F97958795089511
:1008B6001F920F920FB60F9211242F933F934F93CF
:1008C6005F936F937F938F939F93AF93BF93EF93B2
:1008D600FF938091C6008093210180912101883782
:1008E60099F0813A19F08F36B1F406C081E0809311
:1008F600080110920E0122C08BE20E94F907F894BB
:1009060082E08DBB78941AC08DE20E94F907F894B4
:100916001DBA789413C020910E0180910801909120
:1009260021019053289F900D112490930E01880F5A
:10093600982F990F990F890F80930801FF91EF91D6
:10094600BF91AF919F918F917F916F915F914F91E1
:0E0956003F912F910F900FBE0F901F9018959C
:10096400CF92DF92EF92FF921F93CF93DF9300D049
:1009740000D0CDB7DEB769837A838B839C830E94D2
:10098400E30789819A81AB81BC81892B8A2B8B2BCC
:1009940031F460911E0181E00E94D80728C010E064
:1009A4000F2EFAE0CF2ED12CE12CF12CF02D698101
:1009B4007A818B819C811F5FA70196010E94170792
:1009C400812F0E94D80769817A818B819C81A7013C
:1009D40096010E94170729833A834B835C8389819C
:1009E4009A81AB81BC81892B8A2B8B2B01F70F90C9
:1009F4000F900F900F90DF91CF911F91FF90EF9088
:060A0400DF90CF90089581
:100A0A0006C019F416F40C9447080C94BE070E9409
:100A1A007506B8F39923C9F3B6F39F57550B87FFA9
:100A2A000E942D080024A0E640EA900180585695BD
:100A3A00979528F4805C660F771F881F20F0261789
:100A4A003707480730F4621B730B840B20293129BE
:100A5A004A2BA69517940794202531254A2758F73B
:100A6A00660F771F881F20F026173707480730F4CC
:100A7A00620B730B840B200D311D411DA09581F76C
:0E0A8A00B901842F9158880F9695879508958D
:100A9800E89409C097FB3EF4909580957095619510
:100AA8007F4F8F4F9F4F9923A9F0F92F96E9BB27C6
:100AB8009395F695879577956795B795F111F8CF42
:100AC800FAF4BB0F11F460FF1BC06F5F7F4F8F4FAD
:100AD8009F4F16C0882311F096E911C0772321F0A3
:100AE8009EE8872F762F05C0662371F096E8862F3B
:100AF80070E060E02AF09A95660F771F881FDAF792
:0A0B0800880F9695879597F90895D8
:100B120080910E0120910F0190E0821B9109C1F09A
:100B22004091090120910F0150E030E02F5F3F4FCB
:100B3200241735076CF42091100130911101880FB0
:100B4200991F820F931F90931101809310010895B2
:100B52002091090180910F0130E090E00196281761
:100B6200390779F49091090180910E01891748F4AF
:100B720080911001909111014497909311018093FB
:040B820010010895C1
:100B86000E94750688F09F5798F0B92F9927B7519C
:100B9600B0F0E1F0660F771F881F991F1AF0BA951B
:100BA600C9F714C0B13091F00E942608B1E008954B
:100BB6000C942608672F782F8827B85F39F0B93F3D
:100BC600CCF3869577956795B395D9F73EF49095CE
:0E0BD6008095709561957F4F8F4F9F4F0895CA
:100BE4000E94750610F40C944708E894E0E0BB27D3
:100BF4009F57F0F02AED3FE049EC06C0EE0FBB0F23
:100C0400661F771F881F28F0B23A620773078407AC
:100C140028F0B25A620B730B840BE3959A9572F722
:100C2400803830F49A95BB0F661F771F881FD2F760
:060C340090480C94C0077B
:100C3A001F920F920FB60F9211242F933F938F9307
:100C4A009F93809105019091060101969093060168
:100C5A0080930501209105013091060180911001D0
:100C6A00909111012817390708F01BB88CEE86BD40
:100C7A009F918F913F912F910F900FBE0F901F90D0
:020C8A001895BB
:100C8C00DF93CF931F930F93FF92EF92DF927B0131
:100C9C008C01689406C0DA2EEF010E948A03FE01D3
:100CAC00E894A5912591359145915591A6F3EF01C5
:100CBC000E94F403FE019701A801DA9469F7DF9012
:0E0CCC00EF90FF900F911F91CF91DF9108954F
:100CDA0057FD9058440F551F59F05F3F71F04795E3
:100CEA00880F97FB991F61F09F3F79F087950895C8
:100CFA00121613061406551FF2CF4695F1DF08C0E7
:100D0A00161617061806991FF1CF86957105610503
:040D1A00089408959C
:100D1E00A1E21A2EAA1BBB1BFD010DC0AA1FBB1FF1
:100D2E00EE1FFF1FA217B307E407F50720F0A21B63
:100D3E00B30BE40BF50B661F771F881F991F1A94D0
:100D4E0069F760957095809590959B01AC01BD01FA
:040D5E00CF01089524
:100D62001F920F920FB60F9211248F938CEE86BDB5
:100D720080E88BB910920601109205018091020160
:100D82008F5F8093020180911F018F5F80931F010B
:0C0D92008F910F900FBE0F901F901895CE
:100D9E0084B18C6284B98CB582658CBD6FEF89E0AD
:100DAE000E94D80760911D0161508BE00E94D80708
:100DBE0068E08AE00E94D80761E08CE00E94D807C4
:020DCE00089586
:100DD00084B58E7F84BD84B58D7F84BD85B5877FC6
:100DE00085BDEEE6F0E08081816080838CEE86BD7B
:100DF00085B585BD85B5826085BD85B585BD089500
:100E0000CF93DF93161617067CF4DC01680F791F69
:100E1000E0ECF0E0C6ECD0E0908195FFFDCF9D9135
:0E0E20009883A617B707C1F7DF91CF91089509
:100E2E00052E97FB1EF400940E94090857FD07D06B
:100E3E000E948F0607FC03D04EF40C9409085095BF
:0E0E4E004095309521953F4F4F4F5F4F0895CF
:100E5C00ECE7F0E080818066808380818160808314
:100E6C00EAE7F0E080818F6A8083ABE7B0E08C9199
:0C0E7C0087608C938081806480830895DF
:100E8800EF93E0FF07C0A2EA2AED3FE049EC5FEBF1
:100E98000E94F4030E948F070F90039401FC90585E
:080EA800E8E6F0E00C945807A5
:100EB0009F938F937F936F93FF93EF939B01AC016D
:100EC0000E944308EF91FF910E9446062F913F91A7
:080ED0004F915F910C9443085F
:100ED8001092850010928400E1E8F0E0808180643F
:100EE8008083AFE6B0E08C9181628C9380818260D0
:040EF8008083089556
:100EFC001F920F920FB60F9211248F9380910001C5
:100F0C008F5F809300018F910F900FBE0F901F90F9
:020F1C00189526
:100F1E00092E0394000C11F4882352F0BB0F40F4F9
:100F2E00BF2B11F460FF04C06F5F7F4F8F4F9F4F39
:020F3E00089514
:100F40008BB18C608BB9E9E6F0E0808183608083AF
:0E0F50008081886080838DB383608DBB08959F
:100F5E00A29FB001B39FC001A39F700D811D1124EC
:0E0F6E00911DB29F700D811D1124911D0895DB
:100F7C009F3F31F0915020F4879577956795B79501
:0C0F8C00880F911D9695879597F90895A0
:100F98001092C50087E68093C40088E98093C10059
:080FA8008EE08093C200089561
:100FB000CF93C62F2A980E943A088C2F0E943A0895
:060FC0002A9ACF9108956A
:100FC600CF93C0911D016FE08C2F0E94D807C150AE
:060FD600D1F7CF91089550
:100FDC000E94AF07A59F900DB49F900DA49F800D0C
:060FEC00911D112408957F
:100FF200E0ECF0E0908195FFFDCF8093C60008956C
:101002009F930E94F2050F9007FCEE5F0C94440739
:1010120090958095709561957F4F8F4F9F4F089562
:0E1022005058BB27AA270E94F4030C948F0796
:0E10300000240A9416161706180609060895DD
:0E103E0000240A9412161306140605060895DF
:0E104C00E894BB2766277727CB0197F9089514
:0E105A0091505040660F771F881FD2F70895FF
:0C10680097F99F6780E870E060E0089551
:0A1074008EBD0DB407FEFDCF0895F8
:08107E000E94AD020C948F07E3
:081086000E948A030C948F07FD
:06108E009FEF80EC0895C5
:041094000C940000B8
:01109800084F
:011099003E18
:01109A000154
:01109B006FE5
:00000001FF
