:100000000C947B000C948D0B0C94A7040C94020FA1
:100010000C94020F0C94020F0C94020F0C94020F1C
:100020000C94020F0C94020F0C94480A0C94020FCB
:100030000C94020F0C94020F0C94020F0C94020FFC
:100040000C94DC0A0C94020F0C94020F0C94020F17
:100050000C94020F0C94020F0C94020F0C94020FDC
:100060000C94020F0C94020F072C7AA5BA6CC59061
:10007000DA3B9365FC8BBC53F810FD3C5692834DE4
:10008000BD879D3AB63DCBC9BF5BBE73DA0FC93F92
:1000900005A84CCDB2D44EB93836A9020C50B9914E
:1000A0008688083CA6AAAA2ABE000000803F01005C
:1000B000010A80010A010C001E08010C010E8001DA
:1000C0000E0110001E0A011001128001120114001D
:1000D0001E0C0114011500034501150116800116BF
:1000E0000117001E0E011701188001180119001ECA
:1000F0000F0119011C8011241FBECFEFD8E0DEBF15
:10010000CDBFEEEAF0E040E017C0B591A591359182
:100110002591059107FD0CC095918591EF01F92F6F
:10012000E82F05900D92A217B307D9F7FE0104C07E
:100130001D92A217B307E1F7E63FF40731F70E94DB
:0A014000ED0B0C94A300F894FFCF20
:10014A0053652065737461626C6563696F20656CC1
:10015A002076616C6F7220696E6772657361646F75
:10016A003A200A0D00416C65727461212C20696E77
:10017A006772657365206F74726F2076616C6F7237
:10018A002E200A0D00416A75737461722054656EDF
:10019A0073696F6E20646520526564204C6F6361D9
:1001AA006C200A0D0053652065737461626C656387
:1001BA00696F20756E612054656E73696F6E206475
:1001CA0065207265642064653A200A0D00416A75EB
:1001DA00737461722054656E73696F6E2064652052
:1001EA0044696D6D6572204C6F63616C200A0D0065
:1001FA0053652065737461626C6563696F20756EFF
:10020A00612054656E73696F6E20656E206C612083
:10021A0063617267612064653A200A0D0053656C58
:10022A00656363696F6E65206C6120616363696FE2
:10023A006E20717565206465736565207265616CF1
:10024A00697A61723A200A0D0020312E204D6F64BE
:10025A00696669636172206C612054656E73696FA7
:10026A006E206465205265642E200A0D0020322E0D
:10027A00204D6F64696669636172206C6120546500
:10028A006E73696F6E2064656C2044696D6D65726A
:10029A002E200A0D00207C20202054656E73696F81
:1002AA006E206465205265642020207C2054656E8F
:1002BA0073696F6E2064652053657465616461209B
:1002CA007C2054656E73696F6E20524D53207C20DA
:1002DA0054656E73696F6E20204443207C20202071
:1002EA00546F6E2020207C20416E67756C6F207CD5
:1002FA00200A0D00207C20202020202020200056CB
:10030A0020202020202020207C2020202020202087
:10031A0000562020202020202020207C2020200081
:10032A00562020207C20202000562020207C2020BF
:0B033A0000207C2020008F20207C0091
:0103450008AF
:100346009F92AF92BF92CF92DF92EF92FF920F935E
:100356001F93CF93DF9300D000D000D0CDB7DEB788
:100366006C01962E9C01ADECBCEC0E944D0EAC01CE
:10037600569547955695479556954795CA01880FC0
:10038600991F440F551F440F551F440F551F480F03
:10039600591FC601841B950BAC010E944D0E8C01A2
:1003A60016950795169507951695079598010E9437
:1003B6004D0EFC01F695E795F695E795F695E795CA
:1003C600CF01880F991FEE0FFF1FEE0FFF1FEE0FD5
:1003D600FF1FE80FF91FC8018E1B9F0BFC0196013A
:1003E6003695279536952795ABE7B4E10E944D0ED5
:1003F6007C01F694E7949701ADECBCEC0E944D0E9F
:100406008C01169507951695079516950795C801BB
:10041600880F991F000F111F000F111F000F111FCA
:10042600080F191FC701801B910B8C019601369589
:1004360027953695279536952795A5ECB0E20E9427
:100446004D0E5C01B694A794B694A794B694A7945F
:10045600B694A7949501ADECBCEC0E944D0E7C01C0
:10046600F694E794F694E794F694E794C701880F18
:10047600991FEE0CFF1CEE0CFF1CEE0CFF1CE80E89
:10048600F91EC5018E199F097C0193E099120DC0D2
:10049600005D0983E05DEA83405D4B8363E070E0C5
:1004A600CE0101960E94B40D4FC084E0981212C08E
:1004B60080E38E0D8983005D0A8388E78B83E05D88
:1004C600EC83405D4D8365E070E0CE0101960E94AD
:1004D600B40D3AC095E0991225C096013295229541
:1004E6002F7023273F702327A7E4B3E00E944D0E09
:1004F600969587959695879596958795805D898338
:1005060080E38E0D8A83005D0B838CE28C83E05D35
:10051600ED83405D4E8366E070E0CE0101960E9459
:10052600B40D12C0005D0983E05DEA838CE28B8323
:10053600405D4C838DE68D8383E78E8366E070E0B5
:10054600CE0101960E94B40D26960FB6F894DEBF32
:100556000FBECDBFDF91CF911F910F91FF90EF900E
:0C056600DF90CF90BF90AF909F90089561
:10057200CF93DF93CDB7DEB7CE51D1400FB6F8940B
:10058200DEBF0FBECDBF27E232E040E08CE2F901D0
:10059200DE011196742F0E946A0E6CE270E0CE01A9
:1005A20001960E94B40D23E532E040E084E2F901B5
:1005B200DE019D96742F0E946A0E64E270E0CE0105
:1005C2008D960E94B40D27E732E040E088E2F901FF
:1005D200DE01AF5ABF4F742F0E946A0E68E270E0CC
:1005E200CE018F5A9F4F0E94B40D2FE932E040E0B6
:1005F2008FE5F901DE01A758BF4F742F0E946A0EE2
:100602006FE570E0CE0187589F4F0E94B40D2EEF28
:1006120032E040E08BE0F901DE01A852BF4F742FB7
:100622000E946A0E29E033E040E082E1F901DE0136
:10063200AD51BF4F742F0E946A0E2BE133E040E0B0
:100642008FE0F901DE01AB50BF4F742F0E946A0E9A
:100652006BE070E0CE0188529F4F0E94B40D8091F2
:1006620012019091130163E00E94A30162E170E024
:10067200CE018D519F4F0E94B40D80910E01909139
:100682000F0163E00E94A3016FE070E0CE018B5086
:100692009F4F0E94B40D0E94B60365E00E94A30121
:1006A2002AE233E040E089E0F901DE01AC5FBE4FAF
:1006B200742F0E946A0E23E333E040E088E0F901E0
:1006C200DE01A35FBE4F742F0E946A0E2BE333E05C
:1006D20040E085E0F901DE01AB5EBE4F742F0E945F
:1006E2006A0E69E070E0CE018C5F9E4F0E94B40DED
:1006F2000E94F90665E00E94A30168E070E0CE0165
:10070200835F9E4F0E94B40D809106019091070174
:1007120066E00E94A30165E070E0CE018B5E9E4F11
:100722000E94B40D20E433E040E085E0F901DE01EF
:10073200A65EBE4F742F0E946A0E809104019091B2
:10074200050163E00E94A30165E070E0CE01865ED0
:100752009E4F0E94B40DC25EDE4F0FB6F894DEBF0C
:0A0762000FBECDBFDF91CF910895C7
:10076C004F925F926F927F928F929F92AF92BF92B5
:10077C00CF92DF92EF92FF92CF93DF93CDB7DEB79C
:10078C0028970FB6F894DEBF0FBECDBF809106013F
:10079C009091070144EB489F9001499F300D112423
:1007AC003695279536952795ABE7B4E10E944D0E0B
:1007BC0096958795909305018093040160911201A1
:1007CC007091130180E090E00E94190B4B015C01C9
:1007DC0060900401709005016091120170911301F9
:1007EC0080E090E00E94190B6B017C016091040188
:1007FC007091050180E090E00E94190B2BED3FE019
:10080C0049E450E40E94FB0E20E030E044E353E462
:10081C000E94F70E9B01AC010E94BB0E0E94AA0E17
:10082C006D837E838F8398872301612C712CC30188
:10083C00B2010E94190B2BED3FE049E450E40E94F9
:10084C00FB0E20E030E044E353E40E94F70E698392
:10085C007A838B839C83A5019401C501B4010E940A
:10086C00FB0E9B01AC0169817A818B819C810E947A
:10087C00FB0E2BED3FE049EC50E40E94F70E698330
:10088C007A838B839C83C301B2010E94190B2BEDDD
:10089C003FE049E450E40E94FB0E20E030E044E3EA
:1008AC0053E40E94F70E2B013C01A5019401C501F4
:1008BC00B4010E94FB0E9B01AC01C301B2010E946A
:1008CC00FB0E2BED3FE049EC50E40E94F70E4B0180
:1008DC005C01A7019601C701B6010E94FB0E2D8198
:1008EC003E814F8158850E94FB0E2BED3FE049E481
:1008FC0051E40E94F70E9B01AC01C501B4010E94AA
:10090C00BA0E0E94950A20E030E048EC52E40E94B6
:10091C00FB0E0E94BE0BCB0128960FB6F894DEBFDF
:10092C000FBECDBFDF91CF91FF90EF90DF90CF90B6
:10093C00BF90AF909F908F907F906F905F904F90F3
:02094C0008950C
:10094E001F920F920FB60F9211244F925F926F92D9
:10095E007F928F929F92AF92BF92CF92DF92EF9241
:10096E00FF922F933F934F935F936F937F938F934A
:10097E009F93AF93BF93CF93EF93FF938091180103
:10098E00882309F492C080E18BB9609102017091C5
:10099E00030180E090E00E94190B6B017C012BEAB1
:1009AE003AEA4AEA50E40E94FB0E4B015C0120E059
:1009BE0030E040E85FE30E94E80E88230CF470C03C
:1009CE0020E030E040E850E4C701B6010E94FB0E83
:1009DE002B013C0120E03FEF4FE757E40E94F20E5F
:1009EE0018160CF045C020E030E04AE754E4C70189
:1009FE00B6010E94F70E4B015C0120E030E04AE7A1
:100A0E0055E40E94FB0E6B017C0120E030E040E8D3
:100A1E005FE30E94E80E88232CF120E03FEF4FE7C2
:100A2E0057E4C701B6010E94F20E1816B4F420E086
:100A3E0030E040E251E4C501B4010E94FB0E0E9479
:100A4E00BE0B6115710569F120E931E0C90101970D
:100A5E00F1F761507109D1F724C0C701B6010E94A8
:100A6E00BE0B02C061E070E0CB010197F1F719C037
:100A7E0020E030E04FE753E4C501B4010E94F20ECE
:100A8E00181644F4C301B2010E94BE0BCB010197AC
:100A9E00F1F70AC0C501B4010E94BE0BC62F01C0FA
:100AAE00C1E06C2F6A95F1F71BB8FF91EF91CF91D2
:100ABE00BF91AF919F918F917F916F915F914F9168
:100ACE003F912F91FF90EF90DF90CF90BF90AF901E
:100ADE009F908F907F906F905F904F900F900FBE72
:060AEE000F901F90189507
:100AF400CF93DF93CDB7DEB7C055D1090FB6F894C5
:100B0400DEBF0FBECDBF27ED31E040E083E2F90147
:100B1400DE011196742F0E946A0E63E270E0CE012A
:100B240001960E94B40D80911901823009F048C0E9
:100B340080E090E00E94DD0CBC01990F880B990BBA
:100B44000E941B0B20E030E048EC52E40E94FB0EB4
:100B540020E030E040E85AE30E94FB0E0E94BE0B06
:100B640070930101609300014091000150910101D3
:100B74008091120190911301489F9001499F300D7B
:100B8400589F300D11243695279536952795ABE758
:100B9400B4E10E944D0E9695879590930F01809332
:100BA4000E0160910E0170910F0180E090E042E02F
:100BB40050E00E94080680911901823009F4B8CFF0
:100BC40082E080931901109215012AEF31E040E090
:100BD4008DE2F901DE019496742F0E946A0E6DE293
:100BE40070E0CE0184960E94B40D80910E01909124
:100BF4000F0163E00E94A301C05BDF4F0FB6F894BE
:0C0C0400DEBF0FBECDBFDF91CF91089581
:100C1000BF92CF92DF92EF92FF920F931F93CF93E9
:100C2000DF9300D000D0CDB7DEB769837A838B83A2
:100C30009C83042F89819A81AB81BC81BB2394F46E
:100C400089819A81AB81BC81B095A0959095819561
:100C50009F4FAF4FBF4F89839A83AB83BC83BB2425
:100C6000B39401C0B12C0E948E0E89819A81AB8110
:100C7000BC81892B8A2B8B2B29F460E081E00E94B8
:100C8000830E32C010E00F2EFAE0CF2ED12CE12CD3
:100C9000F12CF02D69817A818B819C811F5FA701E6
:100CA00096010E94CB0D812F0E94830E69817A816B
:100CB0008B819C81A70196010E94CB0D29833A83E9
:100CC0004B835C8389819A81AB81BC81892B8A2B80
:100CD0008B2B01F7602F87E00E94830EBB2021F051
:100CE0006AE0812F0E94830E0F900F900F900F905B
:100CF000DF91CF911F910F91FF90EF90DF90CF90F8
:040D0000BF90089503
:100D0400CF93DF93CDB7DEB7A5970FB6F894DEBFC8
:100D14000FBECDBF60910E0170910F0180E090E095
:100D240042E050E00E9408068CE091E00E94560BDD
:100D3400809112019091130120910C0130910D01C9
:100D44000B9728173907D0F580910C0190910D016C
:100D54000597A0F180910C0190910D0190930F01E2
:100D640080930E012AE431E040E085E2F901DE01DE
:100D74001196742F0E946A0E65E270E0CE0101960E
:100D84000E94B40D80910E0190910F0163E00E94C6
:100D9400A30160910E0170910F0180E090E042E0A8
:100DA40050E00E94080680910E0190910F010E946C
:100DB400E809909303018093020110C02FE631E00B
:100DC40040E080E2F901DE011196742F0E946A0E60
:100DD40060E270E0CE0101960E94B40DA5960FB6B4
:0E0DE400F894DEBF0FBECDBFDF91CF91089512
:100DF2008F929F92AF92BF92CF92DF92EF92FF9229
:100E0200CF93DF93809106019091070144EB489FB5
:100E12009001499F300D11243695279536952795D7
:100E2200ABE7B4E10E944D0E96958795909305012C
:100E320080930401C0911201D091130160910401C9
:100E42007091050180E090E00E94190B2BED3FE0CC
:100E520049E450E40E94FB0E20E030E044E353E416
:100E62000E94F70E0E94ED0E4B015C01BE0180E074
:100E720090E00E94190B23EF34E045EB5FE30E9400
:100E8200FB0E2BED3FE049E450E40E94F70E6B01AC
:100E92007C01A501940160E070E080E89FE30E947C
:100EA200BA0E9B01AC01C701B6010E94FB0E20E005
:100EB20030E048EC52E40E94FB0E0E94BE0BCB01D4
:100EC200DF91CF91FF90EF90DF90CF90BF90AF90E6
:060ED2009F908F9008952F
:100ED800CF93DF93CDB7DEB7C854D1090FB6F894D6
:100EE800DEBF0FBECDBF2FE831E040E080E2F90160
:100EF800DE011196742F0E946A0E60E270E0CE0146
:100F080001960E94B40D80911901813051F580E05D
:100F180090E00E94DD0CBC01990F880B990B0E9490
:100F28001B0B20E030E04CE553E40E94FB0E20E070
:100F380030E040E85AE30E94FB0E0E94BE0B70931B
:100F4800130160931201609112017091130180E006
:100F580090E041E050E00E9408068091190181303C
:100F6800B1F281E080931901109215012FEA31E066
:100F780040E088E2F901DE019196742F0E946A0E22
:100F880068E270E0CE0181960E94B40D8091120152
:100F98009091130163E00E94A301C85BDF4F0FB675
:0E0FA800F894DEBF0FBECDBFDF91CF9108954C
:100FB60010C00E94C80E58F00E94C10E40F029F4DD
:100FC6005F3F29F00C94DD0E51110C94D00E0C9459
:100FD600FF0E0E94FF0C68F39923B1F3552391F39A
:100FE600951B550BBB27AA2762177307840738F092
:100FF6009F5F5F4F220F331F441FAA1FA9F335D0EF
:101006000E2E3AF0E0E832D091505040E695001CA2
:10101600CAF72BD0FE2F29D0660F771F881FBB1F5C
:10102600261737074807AB07B0E809F0BB0B802D3A
:10103600BF01FF2793585F4F3AF09E3F510578F066
:101046000C94DD0E0C94D00E5F3FE4F3983ED4F37F
:10105600869577956795B795F7959F5FC9F7880F3A
:10106600911D9695879597F90895E1E0660F771F8C
:10107600881FBB1F621773078407BA0720F0621B1D
:0E108600730B840BBA0BEE1F88F7E0950895EC
:101094000FC00E94C10E38F00E94C80E20F09523A4
:1010A40011F00C94DD0E0C94FF0E11240C94D00E50
:1010B4000E94FF0C70F3959FC1F3950F50E0551FEC
:1010C400629FF001729FBB27F00DB11D639FAA2799
:1010D400F00DB11DAA1F649F6627B00DA11D661FE8
:1010E400829F2227B00DA11D621F739FB00DA11D09
:1010F400621F839FA00D611D221F749F3327A00DC3
:10110400611D231F849F600D211D822F762F6A2F5E
:1011140011249F5750409AF0F1F088234AF0EE0FC3
:10112400FF1FBB1F661F771F881F91505040A9F7F0
:101134009E3F510580F00C94DD0E0C94D00E5F3F61
:10114400E4F3983ED4F3869577956795B795F7952C
:10115400E7959F5FC1F7FE2B880F911D96958795A4
:0411640097F908955A
:10116800CF93DF93CDB7DEB7A5970FB6F894DEBF60
:101178000FBECDBF609112017091130180E090E025
:1011880041E050E00E94080680E191E00E94560B81
:1011980080911001909111018A3F910580F580910D
:1011A8001001909111010A9750F1809110019091CE
:1011B800110190931301809312012AE431E040E079
:1011C80085E2F901DE011196742F0E946A0E65E22C
:1011D80070E0CE0101960E94B40D809112019091A9
:1011E800130163E00E94A301609112017091130141
:1011F80080E090E041E050E00E94080610C02FE631
:1012080031E040E080E2F901DE011196742F0E947E
:101218006A0E60E270E0CE0101960E94B40DA596B8
:101228000FB6F894DEBF0FBECDBFDF91CF91089502
:1012380011C00E94C10E38F00E94C80E20F039F487
:101248009F3F19F426F40C94FF0E0EF4E095E7FB8B
:101258000C94DD0EE92F0E94FF0C58F3BA176207B1
:1012680073078407950720F079F4A6F50C94CF0E40
:101278000EF4E0950B2EBA2FA02D0B01B9019001A9
:101288000C01CA01A0011124FF27591B99F0593FED
:1012980050F4503E68F11A16F040A22F232F342F35
:1012A8004427585FF3CF469537952795A795F04083
:1012B8005395C9F77EF41F16BA0B620B730B840B98
:1012C800BAF09150A1F0FF0FBB1F661F771F881F50
:1012D800C2F70EC0BA0F621F731F841F48F48795A8
:1012E80077956795B795F7959E3F08F0B0CF93959A
:0E12F800880F08F09927EE0F979587950895B7
:101306000E94B60340910E0150910F0164E6649F5E
:101316009001659F300D1124A901481B590B453FCB
:1013260061E0560710F04CE251E0B9016A567F4F72
:101336008617970730F46C5271406817790708F4DE
:1013460043C082179307F8F480910A0190910B012C
:10135600480F591F50930B0140930A0120910A012F
:1013660030910B013695279536952795ABE7B4E175
:101376000E944D0E969587950E94E8099093030169
:1013860080930201089528173907F0F480910A0125
:1013960090910B01841B950B90930B0180930A018E
:1013A60020910A0130910B013695279536952795A0
:1013B600ABE7B4E10E944D0E969587950E94E80929
:0A13C6009093030180930201089543
:1013D000CF92DF92EF92FF92CF93DF93C0911201F1
:1013E000D0911301BC0180E090E00E94190B6B01C9
:1013F0007C01BE0180E090E00E94190B23EF34E0F5
:1014000045EB5FE30E94FB0E2BED3FE049E450E427
:101410000E94F70E9B01AC01C701B6010E94F70EB6
:1014200020E030E040E85FE30E94BA0E0E941C0E0C
:1014300020E030E044E353E40E94FB0E2BED3FE05C
:1014400049E450E40E94F70E0E94BE0B44E6469F1A
:101450009001479F300D1124A3E8BDE20E944D0E7C
:1014600096958795929582958F7089279F70892789
:10147000489F9001499F300D112488EE93E0821B14
:10148000930BDF91CF91FF90EF90DF90CF90089575
:101490001F920F920FB60F9211242F933F934F93E9
:1014A0008F939F93EF93FF9380911601882351F0C0
:1014B000E1E8F0E080818F7B8083109285001092BC
:1014C000840021C08091860090918700909309014B
:1014D00080930801809108019091090143EA489F97
:1014E0009001499F300D1124232F332784E690E08B
:1014F000821B930B9093070180930601E1E8F0E0D3
:101500008081806480839091160181E08927809397
:101510001601FF91EF919F918F914F913F912F91E4
:0A1520000F900FBE0F901F9018955A
:10152A0006C019F416F40C94FF0E0C945C0E0E947B
:10153A00070DB8F39923C9F3B6F39F57550B87FFE5
:10154A000E94D60E0024A0E640EA900180585695E3
:10155A00979528F4805C660F771F881F20F026175E
:10156A003707480730F4621B730B840B2029312993
:10157A004A2BA69517940794202531254A2758F710
:10158A00660F771F881F20F026173707480730F4A1
:10159A00620B730B840B200D311D411DA09581F741
:0E15AA00B901842F9158880F96958795089562
:1015B8001F920F920FB60F9211242F933F934F93C0
:1015C8005F936F937F938F939F93AF93BF93EF93A3
:1015D800FF9380911B018F5F80931B0180911B01FA
:1015E800843651F410921B0180911A018F5F809309
:1015F8001A010E94830906C080911B01823311F4ED
:101608000E94830983E686BDFF91EF91BF91AF9158
:101618009F918F917F916F915F914F913F912F9102
:0A1628000F900FBE0F901F90189551
:10163200E89409C097FB3EF490958095709561956A
:101642007F4F8F4F9F4F9923A9F0F92F96E9BB2720
:101652009395F695879577956795B795F111F8CF9C
:10166200FAF4BB0F11F460FF1BC06F5F7F4F8F4F07
:101672009F4F16C0882311F096E911C0772321F0FD
:101682009EE8872F762F05C0662371F096E8862F95
:1016920070E060E02AF09A95660F771F881FDAF7EC
:0A16A200880F9695879597F9089533
:1016AC000F931F93CF93DF938C01A1E0B0E060E028
:1016BC0070E0E0ECF0E0C6ECD0E090819923ECF720
:1016CC009881292F30E0A330B10584F420533109DF
:1016DC00260F371FB901660F771F220F331F220FFA
:1016EC00331F220F331F620F731F05C0A901405314
:1016FC005109640F751F1196A430B105F1F6F8016C
:0E170C0071836083DF91CF911F910F9108953B
:10171A001F920F920FB60F9211248F939F9380916D
:10172A0017018823A9F080911B01823320F480914C
:10173A001A01882341F080911901833020F481E055
:10174A008093150105C0809119018F5F809319015B
:10175A0010921A0110921B019091170181E08927BA
:10176A00809317019F918F910F900FBE0F901F903A
:02177A001895C0
:10177C000E94070D88F09F5798F0B92F9927B75101
:10178C00B0F0E1F0660F771F881F991F1AF0BA9519
:10179C00C9F714C0B13091F00E94CF0EB1E008959A
:1017AC000C94CF0E672F782F8827B85F39F0B93F8C
:1017BC00CCF3869577956795B395D9F73EF49095CC
:0E17CC008095709561957F4F8F4F9F4F0895C8
:1017DA00F8940E943E0E0E949B0D0E940A0E0E94DF
:1017EA00990E0E94770E0E94820D80E18AB91BB879
:1017FA00789480910E0190910F010E94E8099093CC
:10180A000301809302010E94B90280911901882381
:10181A0021F080911901833028F0109219010E9459
:0A182A00630DF3CF0E94450CF0CFD0
:101834000E94070D10F40C94FF0EE894E0E0BB271F
:101844009F57F0F02AED3FE049EC06C0EE0FBB0FC6
:10185400661F771F881F28F0B23A62077307840750
:1018640028F0B25A620B730B840BE3959A9572F7C6
:10187400803830F49A95BB0F661F771F881FD2F704
:0618840090480C945E0E7A
:10188A0080911901813019F0823091F008956091A8
:10189A0012017091130180E090E041E050E00E9453
:1018AA00080680911501882391F00E946C0708951B
:1018BA0060910E0170910F0180E090E042E050E0EB
:1018CA000E9408068091150181110E947A050895E7
:1018DA00DF93CF931F930F93FF92EF92DF927B01D7
:1018EA008C01689406C0DA2EEF010E944A08FE01B4
:1018FA00E894A5912591359145915591A6F3EF016B
:10190A000E941C09FE019701A801DA9469F7DF9089
:0E191A00EF90FF900F911F91CF91DF910895F4
:101928000F931F93CF93DF938091C0008823B4F067
:10193800C4E0D0E000EC10E02FEF89E698E12150F8
:1019480080409040E1F700C000008EE20E94A20EA5
:10195800F8018081882314F0219771F78091C600DF
:0A196800DF91CF911F910F910895B8
:10197200990F0008550FAA0BE0E8FEEF161617069E
:10198200E807F907C0F012161306E407F50798F006
:10199200621B730B840B950B39F40A2661F0232B1F
:1019A200242B252B21F408950A2609F4A140A6959B
:0819B2008FEF811D811D0895D6
:1019BA00ECE7F0E09081907F90839081892B80837F
:1019CA00EAE7F0E080818068808385E38A95F1F711
:1019DA000000808180648083808184FFFDCFEAE7F4
:1019EA00F0E08081806180831082809178009091FC
:0419FA0079000895D3
:1019FE0057FD9058440F551F59F05F3F71F04795B2
:101A0E00880F97FB991F61F09F3F79F08795089596
:101A1E00121613061406551FF2CF4695F1DF08C0B5
:101A2E00161617061806991FF1CF869571056105D2
:041A3E00089408956B
:101A4200A1E21A2EAA1BBB1BFD010DC0AA1FBB1FC0
:101A5200EE1FFF1FA217B307E407F50720F0A21B32
:101A6200B30BE40BF50B661F771F881F991F1A949F
:101A720069F760957095809590959B01AC01BD01C9
:041A8200CF010895F3
:101A8600DF93CF931F930F938B01EC01E8E6F0E011
:101A96000E946D0C0E942D0E9801AE018B01EC0187
:101AA60060E070E080E89FE30E94BA0E0E94950A0B
:101AB6009801AE010F911F91CF91DF910C944A08C6
:101AC6000E94940C833389F028F4813341F08233E9
:101AD60049F00895843361F0883771F008950E94C3
:101AE600B40808950E948206089510921801089578
:0E1AF60081E08093180108950E94B9020895BE
:101B040084B18C6284B98CB582658CBD6FEF89E039
:101B14000E94830E6091140161508BE00E94830E39
:101B240068E08AE00E94830E61E08CE00E94830EEC
:021B3400089512
:101B360084B58E7F84BD84B58D7F84BD85B5877F52
:101B460085BDEEE6F0E080818160808383E686BD18
:101B560085B5816085BD85B585BD85B5846085BD46
:021B66000895E0
:101B6800CF93DF93161617067CF4DC01680F791FF4
:101B7800E0ECF0E0C6ECD0E0908195FFFDCF9D91C0
:0E1B88009883A617B707C1F7DF91CF91089594
:101B9600052E97FB1EF400940E94B20E57FD07D047
:101BA6000E94210D07FC03D04EF40C94B20E509502
:0E1BB6004095309521953F4F4F4F5F4F08955A
:101BC400EF93E0FF07C0A2EA2AED3FE049EC5FEBA8
:101BD4000E941C090E942D0E0F90039401FC905842
:081BE400E0E9F0E00C94F60DBD
:101BEC009F938F937F936F93FF93EF939B01AC0124
:101BFC000E94FB0EEF91FF910E946D0C2F913F9173
:081C0C004F915F910C94FB0E57
:101C14001092850010928400E1E8F0E080818064F5
:101C24008083AFE6B0E08C9181628C938081856083
:041C3400808308950C
:101C38009F939F770E94430D0F90002042F4905885
:101C4800A2EA2AED3FE049E450E40E941C090C9402
:021C58002D0E4F
:101C5A00092E0394000C11F4882352F0BB0F40F4B0
:101C6A00BF2B11F460FF04C06F5F7F4F8F4F9F4FF0
:021C7A000895CB
:101C7C008BB18C608BB9E9E6F0E080818160808368
:0E1C8C0080818C6080838DB383608DBB089552
:101C9A00A29FB001B39FC001A39F700D811D1124A3
:0E1CAA00911DB29F700D811D1124911D089592
:101CB8009F3F31F0915020F4879577956795B795B8
:0C1CC800880F911D9695879597F9089557
:101CD400992777FD05C005900D920197E1F70895C6
:0A1CE40001900D920197E1F70895B9
:101CEE001092C50087E68093C40088E18093C100FE
:081CFE008EE08093C2000895FE
:101D0600CF93C62F2A980E94E30E8C2F0E94E30ED3
:061D16002A9ACF91089506
:101D1C00CF93C09114016FE08C2F0E94830EC150A1
:061D2C00D1F7CF910895EC
:101D3200ECE7F0E0108280E4808387E080937A0011
:021D4200089502
:101D4400E0ECF0E0908195FFFDCF8093C60008950C
:101D54009F930E941A0C0F9007FCEE5F0C94E20D07
:101D640090958095709561957F4F8F4F9F4F089503
:0E1D74005058BB27AA270E941C090C942D0E64
:0E1D820000240A94161617061806090608957E
:0E1D900000240A941216130614060506089580
:0E1D9E00E894BB2766277727CB0197F90895B5
:0E1DAC0091505040660F771F881FD2F70895A0
:0C1DBA0097F99F6780E870E060E00895F2
:0A1DC6008EBD0DB407FEFDCF089599
:0A1DD0000E94B90C08F481E00895A8
:0A1DDA000E941A0CE3950C94E20D30
:0A1DE4000E94B90C08F48FEF089577
:081DEE000E94DB070C942D0E8E
:081DF6000E944A080C942D0E16
:061DFE009FEF80EC089548
:041E04000C9400003A
:021E08003200A6
:021E0A003200A4
:021E0C006E0066
:011E0E0001D2
:011E0F0001D1
:00000001FF
