:100000000C9453000C9468080C948C070C9476099B
:100010000C9476090C9476090C9476090C94760964
:100020000C9476090C9476090C9465050C94760969
:100030000C9476090C9476090C9476090C94760944
:100040000C9418070C9476090C9401060C9476090C
:100050000C9476090C947D000C9476090C94760926
:100060000C9476090C94760905A84CCDB2D44EB9FF
:100070003836A9020C50B9918688083CA6AAAA2A4B
:10008000BE000000803F010001040012F0010401E5
:100090001A80011A01220012F40122012380012397
:1000A00001260012FC0011241FBECFEFD8E0DEBFF6
:1000B000CDBFE6E8F0E040E017C0B591A5913591DD
:1000C0002591059107FD0CC095918591EF01F92FC0
:1000D000E82F05900D92A217B307D9F7FE0104C0CF
:1000E0001D92A217B307E1F7E53AF40731F70E9432
:0A00F000B2030C947B00F894FFCFDC
:1000FA001F920F920FB60F9211248F929F92AF9276
:10010A00BF92CF92DF92EF92FF920F931F932F939A
:10011A003F934F935F936F937F938F939F93AF9385
:10012A00BF93CF93DF93EF93FF93809120018823AE
:10013A0009F442C08091220181113EC06091780089
:10014A0070917900C0911001D091110180E090E086
:10015A000E9481062FE832EC45EF5CE30E946F09AA
:10016A006B017C01BE0180E090E00E9481062CEECA
:10017A0031E548E75FE30E946F099B01AC01C701C3
:10018A00B6010E9439090E94BE067093110160935C
:10019A001001209110013091110140EF429FC001DE
:1001AA00439F900D1124892F9927869586959093C0
:1001BA001D0180931C01E2C080912201882309F469
:1001CA007EC08091200181117AC0C0917800D091BF
:1001DA007900C0900001D0900101E0900201F090F6
:1001EA00030100910E0110910F01A701960160E031
:1001FA0070E080E89FE30E9438094B015C01B80176
:10020A0080E090E00E9481069B01AC01C501B40127
:10021A000E946F094B015C01BE0180E090E00E94E0
:10022A008106A70196010E946F099B01AC01C501D5
:10023A00B4010E9439090E94BE0670930F016093AF
:10024A000E0120910E0130910F0144E6429FC00138
:10025A00439F900D1124892F99278695869590930F
:10026A0015018093140140911C0150911D01809148
:10027A00140190911501489F9001499F300D589F94
:10028A00300D11243695279536952795ABE7B4E1BD
:10029A000E94D6089695879590931B0180931A0120
:1002AA0060911A0170911B0180E090E00E943F0367
:1002BA00F894ECE7F0E08081808378945FC08091C5
:1002CA002201882309F45AC080912001882309F465
:1002DA0055C0C0917800D0917900C0900001D090AB
:1002EA000101E0900201F0900301009110011091C8
:1002FA001101A701960160E070E080E89FE30E9487
:10030A0038094B015C01B80180E090E00E94810647
:10031A009B01AC01C501B4010E946F094B015C014C
:10032A00BE0180E090E00E948106A70196010E942A
:10033A006F099B01AC01C501B4010E9439090E94F1
:10034A00BE06709311016093100120911001309143
:10035A00110140EF429FC001439F900D1124892F44
:10036A0099278695869590931D0180931C01F89490
:10037A00ECE7F0E08081816080837894909120019D
:10038A0081E0892780932001FF91EF91DF91CF913E
:10039A00BF91AF919F918F917F916F915F914F9193
:1003AA003F912F911F910F91FF90EF90DF90CF9087
:1003BA00BF90AF909F908F900F900FBE0F901F909D
:0203CA00189584
:1003CC00CF92DF92FF920F931F93CF93DF9300D0C6
:1003DC0000D01F92CDB7DEB78C01F62E9C01ADEC90
:1003EC00BCEC0E94D608AC0156954795569547959E
:1003FC0056954795CA01880F991F440F551F440FF6
:10040C00551F440F551F480F591F241B350BA901AD
:10041C0098010E94D6086C01D694C794D694C794C0
:10042C00D694C79496010E94D608FC01F695E795E0
:10043C00F695E795F695E795CF01880F991FEE0F86
:10044C00FF1FEE0FFF1FEE0FFF1FE80FF91FC60176
:10045C008E1B9F0BFC019801369527953695279599
:10046C00ABE7B4E10E94D6088C011695079598016C
:10047C00ADECBCEC0E94D608969587959695879521
:10048C00969587959C01220F331F880F991F880F13
:10049C00991F880F991F820F931FD801A81BB90BA6
:1004AC00CD01B1E0FB120FC094E29983805D8A8389
:1004BC00E05DEB83405D4C8364E070E0CE0101961F
:1004CC000E9424084FC022E0F2120FC095E29983DB
:1004DC00805D8A83E05DEB83405D4C8364E070E07B
:1004EC00CE0101960E9424083DC033E0F3120FC0E8
:1004FC0096E29983805D8A83E05DEB83405D4C835B
:10050C0064E070E0CE0101960E9424082BC0A4E0A8
:10051C00FA120FC090E49983805D8A83E05DEB83CF
:10052C00405D4C8364E070E0CE0101960E9424088B
:10053C0019C0B5E0FB1216C09E012F5F3F4F95E02E
:10054C00D9011D929A95E9F79AE2998390E3980F55
:10055C009A83E05DEB83405D4C8365E070E0C901FC
:10056C000E9424080F900F900F900F900F90DF9126
:0E057C00CF911F910F91FF90DF90CF900895C7
:10058A008F929F92AF92BF92CF92DF92EF92FF9299
:10059A000F931F93CF93DF9300911C0110911D01BC
:1005AA00C0911601D091170160911601709117013F
:1005BA0080E090E00E9481062BED3FE049E450E4A0
:1005CA000E946F0920E030E044E353E40E946B0983
:1005DA009B01AC010E9439090E9428096B017C0128
:1005EA004E01A12CB12CC501B4010E9481062BED4C
:1005FA003FE049E450E40E946F0920E030E044E320
:10060A0053E40E946B099B01AC010E943909A701BE
:10061A0096010E9438090E94BA056B017C01B80153
:10062A0080E090E00E94810625EC3FED42EE5FE318
:10063A000E946F0923EF34E045EB5FE30E946F09E4
:10064A00A70196010E946F092BED3FE049EC50E4A7
:10065A000E946B090E94BE06CB01DF91CF911F91C8
:10066A000F91FF90EF90DF90CF90BF90AF909F9047
:04067A008F900895C0
:10067E00CF92DF92EF92FF920F931F93CF93DF9360
:10068E0000D000D0CDB7DEB769837A838B839C838D
:10069E0089819A81AB81BC81BB238CF489819A813B
:1006AE00AB81BC81B095A095909581959F4FAF4F32
:1006BE00BF4F89839A83AB83BC8301E001C000E006
:1006CE000E940A0989819A81AB81BC81892B8A2B70
:1006DE008B2B31F460911F0181E00E94FF082EC028
:1006EE0010E00F2EFAE0CF2ED12CE12CF12CF02DB4
:1006FE0069817A818B819C811F5FA70196010E947F
:10070E003B08812F0E94FF0869817A818B819C8131
:10071E00A70196010E943B0829833A834B835C8391
:10072E0089819A81AB81BC81892B8A2B8B2B01F716
:10073E00002321F06AE0812F0E94FF080F900F9096
:10074E000F900F90DF91CF911F910F91FF90EF902F
:06075E00DF90CF9008952A
:10076400F8940E94C7080E940C080E94A4080E94E2
:1007740052080E94F3080E94F30780EC8AB91BB860
:1007840078940F2EF8EECF2EF3E0DF2EE12CF12C2F
:10079400F02D80910801909109014497D1F720919F
:1007A4000401309105014091060150910701A4EB29
:1007B400B0E00E941509A70196010E94D107309369
:1007C4001701209316010E94C50290930D01809396
:1007D4000C010E94420680910C0190910D0161E090
:1007E4000E94E60180911C0190911D0162E00E942B
:1007F400E6018091040190910501A0910601B09158
:10080400070163E00E94E60180911A0190911B01A7
:1008140064E00E94E601809116019091170165E061
:100824000E94E601809124010E94200960910C013C
:1008340070910D0180E090E00E943F031092090145
:0608440010920801A6CF8E
:10084A0010C00E94460958F00E943F0940F029F45E
:10085A005F3F29F00C945B0951110C944E090C94DA
:10086A0073090E94AF0768F39923B1F3552391F3F3
:10087A00951B550BBB27AA2762177307840738F005
:10088A009F5F5F4F220F331F441FAA1FA9F335D062
:10089A000E2E3AF0E0E832D091505040E695001C16
:1008AA00CAF72BD0FE2F29D0660F771F881FBB1FD0
:1008BA00261737074807AB07B0E809F0BB0B802DAE
:1008CA00BF01FF2793585F4F3AF09E3F510578F0DA
:1008DA000C945B090C944E095F3FE4F3983ED4F301
:1008EA00869577956795B795F7959F5FC9F7880FAE
:1008FA00911D9695879597F90895E1E0660F771F00
:10090A00881FBB1F621773078407BA0720F0621B90
:0E091A00730B840BBA0BEE1F88F7E09508955F
:100928000FC00E943F0938F00E94460920F0952325
:1009380011F00C945B090C94730911240C944E0962
:100948000E94AF0770F3959FC1F3950F50E0551FB4
:10095800629FF001729FBB27F00DB11D639FAA270C
:10096800F00DB11DAA1F649F6627B00DA11D661F5B
:10097800829F2227B00DA11D621F739FB00DA11D7C
:10098800621F839FA00D611D221F749F3327A00D36
:10099800611D231F849F600D211D822F762F6A2FD2
:1009A80011249F5750409AF0F1F088234AF0EE0F37
:1009B800FF1FBB1F661F771F881F91505040A9F764
:1009C8009E3F510580F00C945B090C944E095F3FE3
:1009D800E4F3983ED4F3869577956795B795F795A0
:1009E800E7959F5FC1F7FE2B880F911D9695879518
:0409F80097F90895CE
:1009FC0011C00E943F0938F00E94460920F039F4DA
:100A0C009F3F19F426F40C9473090EF4E095E7FB60
:100A1C000C945B09E92F0E94AF0758F3BA176207D1
:100A2C0073078407950720F079F4A6F50C944D090B
:100A3C000EF4E0950B2EBA2FA02D0B01B9019001ED
:100A4C000C01CA01A0011124FF27591B99F0593F31
:100A5C0050F4503E68F11A16F040A22F232F342F79
:100A6C004427585FF3CF469537952795A795F040C7
:100A7C005395C9F77EF41F16BA0B620B730B840BDC
:100A8C00BAF09150A1F0FF0FBB1F661F771F881F94
:100A9C00C2F70EC0BA0F621F731F841F48F48795EC
:100AAC0077956795B795F7959E3F08F0B0CF9395DE
:0E0ABC00880F08F09927EE0F979587950895FB
:100ACA001F920F920FB60F9211242F933F934F93B9
:100ADA005F936F937F938F939F93AF93BF93EF939C
:100AEA00FF9380912101882351F0E1E8F0E08081B1
:100AFA008F7B808310928500109284001FC08091A2
:100B0A008600909187009093190180931801209193
:100B1A00180130911901ACECBCE00E94D608AA2752
:100B2A00BB278093040190930501A0930601B0931B
:100B3A000701E1E8F0E080818064808390912101DF
:100B4A0081E0892780932101FF91EF91BF91AF91B5
:100B5A009F918F917F916F915F914F913F912F91CB
:0A0B6A000F900FBE0F901F9018951A
:100B740006C019F416F40C9473090C94E5080E9449
:100B8400B707B8F39923C9F3B6F39F57550B87FFFB
:100B94000E9454090024A0E640EA9001805856952A
:100BA400979528F4805C660F771F881F20F026171E
:100BB4003707480730F4621B730B840B2029312953
:100BC4004A2BA69517940794202531254A2758F7D0
:100BD400660F771F881F20F026173707480730F461
:100BE400620B730B840B200D311D411DA09581F701
:0E0BF400B901842F9158880F96958795089522
:100C02001F920F920FB60F9211242F933F934F937F
:100C12005F936F937F938F939F93AF93BF93EF9362
:100C2200FF938091C600809325018F3651F48BE2A9
:100C32008093240181E20E94200981E080932301B4
:100C42000FC0883749F48DE28093240181E20E942B
:100C520020091092230104C0813211F40E9420095C
:100C6200FF91EF91BF91AF919F918F917F916F9182
:100C72005F914F913F912F910F900FBE0F901F9058
:020C82001895C3
:100C8400CF93DF93C0911A01D0911B0180910C0185
:100C940090910D01C81BD90BBE010D2E000C880BC1
:100CA400990B0E94830620E030E0A9010E946609A6
:100CB400882311F180910C0190910D0120911C0168
:100CC40030911D01019682179307B0F4C230D1050B
:100CD4001CF02FEF3FEF02C021E030E080911201C1
:100CE40090911301CC0FDD1FC80FD91FC20FD31F62
:0E0CF400D0931301C0931201DF91CF910895A8
:100D0200E89409C097FB3EF49095809570956195A3
:100D12007F4F8F4F9F4F9923A9F0F92F96E9BB2759
:100D22009395F695879577956795B795F111F8CFD5
:100D3200FAF4BB0F11F460FF1BC06F5F7F4F8F4F40
:100D42009F4F16C0882311F096E911C0772321F036
:100D52009EE8872F762F05C0662371F096E8862FCE
:100D620070E060E02AF09A95660F771F881FDAF725
:0A0D7200880F9695879597F908956C
:100D7C000E94B70788F09F5798F0B92F9927B75161
:100D8C00B0F0E1F0660F771F881F991F1AF0BA9523
:100D9C00C9F714C0B13091F00E944D09B1E008952B
:100DAC000C944D09672F782F8827B85F39F0B93F1D
:100DBC00CCF3869577956795B395D9F73EF49095D6
:0E0DCC008095709561957F4F8F4F9F4F0895D2
:100DDA000E94B70710F40C947309E894E0E0BB276B
:100DEA009F57F0F02AED3FE049EC06C0EE0FBB0F2B
:100DFA00661F771F881F28F0B23A620773078407B5
:100E0A0028F0B25A620B730B840BE3959A9572F72A
:100E1A00803830F49A95BB0F661F771F881FD2F768
:060E2A0090480C94E7085B
:100E30001F920F920FB60F9211242F933F938F930F
:100E40009F9380910A0190910B01019690930B0161
:100E500080930A0120910A0130910B0180911201C7
:100E6000909113012817390708F01BB88CEE86BD46
:100E70009F918F913F912F910F900FBE0F901F90D8
:020E80001895C3
:100E8200DF93CF931F930F93FF92EF92DF927B0139
:100E92008C01689406C0DA2EEF010E949404FE01D0
:100EA200E894A5912591359145915591A6F3EF01CD
:100EB2000E94FE04FE019701A801DA9469F7DF900F
:0E0EC200EF90FF900F911F91CF91DF91089557
:100ED000990F0008550FAA0BE0E8FEEF161617064B
:100EE000E807F907C0F012161306E407F50798F0B3
:100EF000621B730B840B950B39F40A2661F0232BCC
:100F0000242B252B21F408950A2609F4A140A69547
:080F10008FEF811D811D089582
:100F18001F920F920FB60F9211248F939F93809177
:100F28002301882389F08CEE86BD80E88BB9109266
:100F38000B0110920A018091080190910901019614
:100F480090930901809308019F918F910F900FBE94
:060F58000F901F90189598
:100F5E0057FD9058440F551F59F05F3F71F047955C
:100F6E00880F97FB991F61F09F3F79F08795089541
:100F7E00121613061406551FF2CF4695F1DF08C060
:100F8E00161617061806991FF1CF8695710561057D
:040F9E000894089516
:100FA200A1E21A2EAA1BBB1BFD010DC0AA1FBB1F6B
:100FB200EE1FFF1FA217B307E407F50720F0A21BDD
:100FC200B30BE40BF50B661F771F881F991F1A944A
:100FD20069F760957095809590959B01AC01BD0174
:040FE200CF0108959E
:100FE60084B18C6284B98CB582658CBD6FEF89E063
:100FF6000E94FF0860911E0161508BE00E94FF086D
:1010060068E08AE00E94FF0861E08CE00E94FF0829
:0210160008953B
:1010180084B58E7F84BD84B58D7F84BD85B5877F7B
:1010280085BDEEE6F0E08081816080838CE486BD3A
:1010380085B585BD85B5826085BD85B585BD0895B5
:10104800CF93DF93161617067CF4DC01680F791F1F
:10105800E0ECF0E0C6ECD0E0908195FFFDCF9D91EB
:0E1068009883A617B707C1F7DF91CF910895BF
:10107600052E97FB1EF400940E94300957FD07D0F9
:101086000E94D10707FC03D04EF40C94300950950A
:0E1096004095309521953F4F4F4F5F4F089585
:1010A400ECE7F0E0808180668083808181608083CA
:1010B400EAE7F0E080818F6A8083ABE7B0E08C914F
:0C10C40087608C93808180648083089595
:1010D0001F920F920FB60F9211248F939F939091AE
:1010E000220181E08927809322019F918F910F90A7
:0810F0000FBE0F901F90189530
:1010F800EF93E0FF07C0A2EA2AED3FE049EC5FEB7F
:101108000E94FE040E94B6080F90039401FC9058B8
:08111800E8E6F0E00C949008F9
:101120009F938F937F936F93FF93EF939B01AC01FA
:101130000E946F09EF91FF910E9441072F913F910B
:081140004F915F910C946F09BF
:101148001092850010928400E1E8F0E080818064CC
:101158008083AFE6B0E08C9181628C93808182605D
:0411680080830895E3
:10116C00092E0394000C11F4882352F0BB0F40F4A9
:10117C00BF2B11F460FF04C06F5F7F4F8F4F9F4FE9
:02118C000895C4
:10118E008BB18C608BB9E9E6F0E08081836080835F
:0E119E0080818C6080838DB383608DBB08954B
:1011AC00A29FB001B39FC001A39F700D811D11249C
:0E11BC00911DB29F700D811D1124911D08958B
:1011CA009F3F31F0915020F4879577956795B795B1
:0C11DA00880F911D9695879597F9089550
:1011E6001092C50087E68093C40088E18093C10011
:0811F6008EE08093C200089511
:1011FE00CF93C62F2A980E9461098C2F0E946109F5
:06120E002A9ACF91089519
:10121400CF93C0911E016FE08C2F0E94FF08C15034
:06122400D1F7CF910895FF
:10122A000E94D608A59F900DB49F900DA49F800D93
:06123A00911D112408952E
:10124000E0ECF0E0908195FFFDCF8093C60008951B
:101250009F930E94ED060F9007FCEE5F0C947C08B4
:1012600090958095709561957F4F8F4F9F4F089512
:0E1270005058BB27AA270E94FE040C94B60813
:0E127E0000240A94161617061806090608958D
:0E128C0000240A94121613061406050608958F
:0E129A00E894BB2766277727CB0197F90895C4
:0E12A80091505040660F771F881FD2F70895AF
:0C12B60097F99F6780E870E060E0089501
:0A12C2008EBD0DB407FEFDCF0895A8
:0A12CC000E94680708F481E008950D
:0812D6000E9425040C94B608E7
:0812DE000E9494040C94B60870
:0612E6009FEF80EC08956B
:0412EC000C9400005E
:0412F000CDCC4C3DD8
:0212F4000A00EE
:0212F6006E0088
:0112F80008ED
:0112F9003EB6
:0112FA0001F2
:0112FB0001F1
:0112FC0001F0
:0112FD002BC5
:0112FE006F80
:00000001FF
