:100000000C9473000C9454020C94360B0C94980BC3
:100010000C94980B0C94980B0C94980B0C94980BD4
:100020000C94980B0C94980B0C9462070C94980BFE
:100030000C94980B0C94980B0C94980B0C94980BB4
:100040000C9476080C94980B0C94980B0C94980BC9
:100050000C94980B0C94980B0C94980B0C94980B94
:100060000C94980B0C94980B072C7AA5BA6CC5903D
:10007000DA3B9365FC8BBC53F810FD3C5692834DE4
:10008000BD879D3AB63DCBC9BF5BBE73DA0FC93F92
:1000900005A84CCDB2D44EB93836A9020C50B9914E
:1000A0008688083CA6AAAA2ABE000000803F01005C
:1000B00001040017340104010E80010E0110001725
:1000C0003801100112800112011400173A011401C5
:1000D0001500027901150116800116011800173C60
:1000E00001180119800011241FBECFEFD8E0DEBF38
:1000F000CDBFEEEAF0E040E017C0B591A591359193
:100100002591059107FD0CC095918591EF01F92F7F
:10011000E82F05900D92A217B307D9F7FE0104C08E
:100120001D92A217B307E1F7E53EF40731F70E94ED
:0A013000120A0C949B00F894FFCF14
:10013A0053652065737461626C6563696F20656CD1
:10014A002076616C6F7220696E6772657361646F85
:10015A003A200A00416C65727461212C20696E672D
:10016A0072657365206F74726F2076616C6F722E80
:10017A00200A0053656C656363696F6E65206C6164
:10018A0020616363696F6E207175652064657365AC
:10019A0065207265616C697A61723A200A0D0020E5
:1001AA00312E204D6F64696669636172206C61202B
:1001BA0054656E73696F6E206465205265642E20E3
:1001CA000A0D0020322E204D6F64696669636172E0
:1001DA00206C612054656E73696F6E2064656C20B3
:1001EA0044696D6D65722E200A0D00207C20202046
:1001FA0054656E73696F6E206465205265642020B1
:10020A00207C2054656E73696F6E20646520446992
:10021A006D6D6572207C54656E73696F6E20656EB4
:10022A00206C612043617267617C2020546F6E20CC
:10023A0020207C20416E67756C6F207C200A0D009F
:10024A00207C202020202020202000562020202032
:10025A00202020207C202020202020200056202022
:0F026A002020202020207C2000207C202020002D
:01027900087C
:10027A009F92AF92BF92CF92DF92EF92FF920F932B
:10028A001F93CF93DF9300D000D000D0CDB7DEB755
:10029A006C01962E9C01ADECBCEC0E94D20A7C014A
:1002AA00F694E794F694E794F694E7949701220F6C
:1002BA00331FC701880F991F880F991F880F991F2D
:1002CA00820F931F7601E81AF90A96010E94D20A50
:1002DA00FC01F695E795F695E795F695E7959F0162
:1002EA000E94D20AAC015695479556954795569560
:1002FA004795CA01880F991F440F551F440F551F70
:10030A00440F551F480F591FCF01841B950BAC0191
:10031A0096013695279536952795ABE7B4E10E9465
:10032A00D20A8C01169507959801ADECBCEC0E9497
:10033A00D20AFC01F695E795F695E795F695E795C5
:10034A00CF01880F991FEE0FFF1FEE0FFF1FEE0F51
:10035A00FF1FE80FF91FC8018E1B9F0BFC019601B6
:10036A00369527953695279536952795A5ECB0E2CB
:10037A000E94D20A5C01B694A794B694A794B69444
:10038A00A794B694A7949501ADECBCEC0E94D20A4E
:10039A008C01169507951695079516950795C80128
:1003AA00880F991F000F111F000F111F000F111F37
:1003BA00080F191FC501801B910B8C0193E099123C
:1003CA000EC0E05DE983405D4A8380E38E0D8B8336
:1003DA0063E070E0CE0101960E942A0A4EC084E0D2
:1003EA00981212C0005D0983E05DEA838CE28B8378
:1003FA00405D4C8380E38E0D8D8365E070E0CE0115
:10040A0001960E942A0A39C095E0991223C09601E2
:10041A00329522952F7023273F702327A7E4B3E054
:10042A000E94D20A9695879596958795969587956F
:10043A00805D8983005D0A83E05DEB838CE28C83B7
:10044A00405D4D83EE8266E070E0CE0101960E9427
:10045A002A0A13C0E05DE983405D4A838CE28B83FC
:10046A0080E38E0D8C838DE68D8383E78E8366E031
:10047A0070E0CE0101960E942A0A26960FB6F894D9
:10048A00DEBF0FBECDBFDF91CF911F910F91FF90BD
:0E049A00EF90DF90CF90BF90AF909F900895AD
:1004A8001F920F920FB60F9211244F925F926F9284
:1004B8007F928F929F92AF92BF92CF92DF92EF92EC
:1004C800FF922F933F934F935F936F937F938F93F5
:1004D8009F93AF93BF93CF93EF93FF9380911701AF
:1004E800882309F495C080E18BB980910E01909121
:1004F8000F010E94BB05BC0180E090E00E94390812
:100508006B017C012BEA3AEA4AEA50E40E94910B1B
:100518004B015C0120E030E040E85FE30E947E0B85
:1005280088230CF470C020E030E040E850E4C701B4
:10053800B6010E94910B2B013C0120E03FEF4FE7F1
:1005480057E40E94880B18160CF045C020E030E0F4
:100558004AE754E4C701B6010E948D0B4B015C01C8
:1005680020E030E04AE755E40E94910B6B017C01E2
:1005780020E030E040E85FE30E947E0B88232CF106
:1005880020E03FEF4FE757E4C701B6010E94880B10
:100598001816B4F420E030E040E251E4C501B4019B
:1005A8000E94910B0E94B1086115710569F120E95B
:1005B80031E0C9010197F1F761507109D1F724C001
:1005C800C701B6010E94B10802C061E070E0CB012A
:1005D8000197F1F719C020E030E04FE753E4C50177
:1005E800B4010E94880B181644F4C301B2010E949A
:1005F800B108CB010197F1F70AC0C501B4010E9407
:10060800B108C62F01C0C1E06C2F6A95F1F71BB87D
:10061800FF91EF91CF91BF91AF919F918F917F9172
:100628006F915F914F913F912F91FF90EF90DF90E5
:10063800CF90BF90AF909F908F907F906F905F907A
:0C0648004F900F900FBE0F901F90189560
:10065400CF93DF93CDB7DEB7CC5FD1090FB6F89453
:10066400DEBF0FBECDBF2DE731E040E08CE2F901E3
:10067400DE011196742F0E94FC0A6CE270E0CE0138
:1006840001960E942A0A29EA31E040E084E2F90155
:10069400DE019D96742F0E94FC0A64E270E0CE0194
:1006A4008D960E942A0A2DEC31E040E088E2F9019F
:1006B400DE01AF5ABF4F742F0E94FC0A68E270E05B
:1006C400CE018F5A9F4F0E942A0A25EF31E040E065
:1006D40085E5F901DE01A758BF4F742F0E94FC0A7B
:1006E40065E570E0CE0187589F4F0E942A0A2AE4EC
:1006F40032E040E08BE0F901DE01A253BF4F742FDA
:100704000E94FC0A25E532E040E082E1F901DE01C5
:10071400A752BF4F742F0E94FC0A6BE070E0CE0119
:1007240082539F4F0E942A0A8091120190911301D3
:1007340063E00E943D0162E170E0CE0187529F4F69
:100744000E942A0A80910E0190910F0163E00E9499
:100754003D0162E170E0CE0187529F4F0E942A0A58
:100764000E94660463E00E943D0127E632E040E017
:100774008CE0F901DE01A551BF4F742F0E94FC0AE1
:1007840023E732E040E086E0F901DE01A950BF4FE3
:10079400742F0E94FC0A6CE070E0CE0185519F4FDB
:1007A4000E942A0A809108019091090166E00E9442
:1007B4003D0166E070E0CE0189509F4F0E942A0AF5
:1007C400C450DF4F0FB6F894DEBF0FBECDBFDF912C
:0407D400CF91089524
:1007D800BF92CF92DF92EF92FF920F931F93CF9326
:1007E800DF9300D000D0CDB7DEB769837A838B83DF
:1007F8009C83042F89819A81AB81BC81BB2394F4AB
:1008080089819A81AB81BC81B095A095909581959D
:100818009F4FAF4FBF4F89839A83AB83BC83BB2461
:10082800B39401C0B12C0E94200B89819A81AB81BD
:10083800BC81892B8A2B8B2B29F460E081E00E94F4
:10084800150B32C010E00F2EFAE0CF2ED12CE12C80
:10085800F12CF02D69817A818B819C811F5FA70122
:1008680096010E94410A812F0E94150B69817A81A5
:100878008B819C81A70196010E94410A29833A83B2
:100888004B835C8389819A81AB81BC81892B8A2BBC
:100898008B2B01F7602F87E00E94150BBB2021F0FE
:1008A8006AE0812F0E94150B0F900F900F900F9008
:1008B800DF91CF911F910F91FF90EF90DF90CF9034
:0408C800BF90089540
:1008CC008F929F92AF92BF92CF92DF92EF92FF9254
:1008DC00CF93DF93809108019091090144EB489FDD
:1008EC009001499F300D1124369527953695279503
:1008FC00ABE7B4E10E94D20A9695879590930701D5
:10090C0080930601C0911201D0911301C090000197
:10091C00D0900101E0900201F0900301609106017A
:10092C007091070180E090E00E943908A7019601C0
:10093C000E94910B20E030E044E353E40E948D0BC5
:10094C000E94830B4B015C01BE0180E090E00E9491
:10095C00390823EF34E045EB5FE30E94910BA701CC
:10096C0096010E948D0B6B017C0120E030E040E889
:10097C005FE3C501B4010E94510B9B01AC01C7019F
:10098C00B6010E94910B20E030E048EC52E40E944A
:10099C00910B0E94B108CB01DF91CF91FF90EF90AA
:0E09AC00DF90CF90BF90AF909F908F900895F6
:1009BA00CF93DF93CDB7DEB7A4970FB6F894DEBF17
:1009CA000FBECDBF60910E0170910F0180E090E0E3
:1009DA0042E050E00E94EC036CE071E085E191E0B6
:1009EA000E94F807809112019091130120910C0145
:1009FA0030910D010B972817390780F580910C016A
:100A0A0090910D01059750F180910C0190910D0183
:100A1A0090930F0180930E012AE331E040E084E2D3
:100A2A00F901DE011196742F0E94FC0A64E270E05B
:100A3A00CE0101960E942A0A80910E0190910F011F
:100A4A0063E00E943D0160910E0170910F0180E008
:100A5A0090E042E050E00E94EC0310C02EE531E045
:100A6A0040E08FE1F901DE011196742F0E94FC0A21
:100A7A006FE170E0CE0101960E942A0AA4960FB691
:0E0A8A00F894DEBF0FBECDBFDF91CF9108956F
:100A980010C00E945E0B58F00E94570B40F029F4DA
:100AA8005F3F29F00C94730B51110C94660B0C9456
:100AB800950B0E947B0968F39923B1F3552391F3B1
:100AC800951B550BBB27AA2762177307840738F0B5
:100AD8009F5F5F4F220F331F441FAA1FA9F335D012
:100AE8000E2E3AF0E0E832D091505040E695001CC6
:100AF800CAF72BD0FE2F29D0660F771F881FBB1F80
:100B0800261737074807AB07B0E809F0BB0B802D5D
:100B1800BF01FF2793585F4F3AF09E3F510578F089
:100B28000C94730B0C94660B5F3FE4F3983ED4F37C
:100B3800869577956795B795F7959F5FC9F7880F5D
:100B4800911D9695879597F90895E1E0660F771FAF
:100B5800881FBB1F621773078407BA0720F0621B40
:0E0B6800730B840BBA0BEE1F88F7E09508950F
:100B76008F929F92AF92BF92CF92DF92EF92FF92A7
:100B8600CF93DF93C0911201D0911301C090000161
:100B9600D0900101E0900201F0900301BC0180E0D9
:100BA60090E00E9439084B015C01BE0180E090E0B4
:100BB6000E94390823EF34E045EB5FE30E94910B76
:100BC600A70196010E948D0B9B01AC01C501B401E2
:100BD6000E948D0B20E030E040E85FE30E94500B5E
:100BE6000E94920A20E030E044E353E40E94910B15
:100BF600A70196010E948D0B0E94B10844E6469F0C
:100C06009001479F300D1124A3E8BDE20E94D20A4D
:100C160096958795929582958F7089279F708927DB
:100C2600489F9001499F300D112480E197E2821B75
:100C3600930BDF91CF91FF90EF90DF90CF90BF9015
:080C4600AF909F908F9008957C
:100C4E00CF93DF93CDB7DEB7A4970FB6F894DEBF80
:100C5E000FBECDBF609112017091130180E090E044
:100C6E0041E050E00E94EC0360E171E085E191E02B
:100C7E000E94F80780911001909111018A3F910511
:100C8E0080F580911001909111010A9750F1809199
:100C9E0010019091110190931301809312012AE398
:100CAE0031E040E084E2F901DE011196742F0E94DA
:100CBE00FC0A64E270E0CE0101960E942A0A80913D
:100CCE0012019091130163E00E943D0160911201A7
:100CDE007091130180E090E041E050E00E94EC033F
:100CEE0010C02EE531E040E08FE1F901DE011196F2
:100CFE00742F0E94FC0A6FE170E0CE0101960E94F3
:100D0E002A0AA4960FB6F894DEBF0FBECDBFDF91B0
:040D1E00CF910895D4
:100D22000FC00E94570B38F00E945E0B20F09523F3
:100D320011F00C94730B0C94950B11240C94660B0C
:100D42000E947B0970F3959FC1F3950F50E0551FE8
:100D5200629FF001729FBB27F00DB11D639FAA270E
:100D6200F00DB11DAA1F649F6627B00DA11D661F5D
:100D7200829F2227B00DA11D621F739FB00DA11D7E
:100D8200621F839FA00D611D221F749F3327A00D38
:100D9200611D231F849F600D211D822F762F6A2FD4
:100DA20011249F5750409AF0F1F088234AF0EE0F39
:100DB200FF1FBB1F661F771F881F91505040A9F766
:100DC2009E3F510580F00C94730B0C94660B5F3FB1
:100DD200E4F3983ED4F3869577956795B795F795A2
:100DE200E7959F5FC1F7FE2B880F911D969587951A
:040DF20097F90895D0
:100DF60011C00E94570B38F00E945E0B20F039F4A8
:100E06009F3F19F426F40C94950B0EF4E095E7FB3E
:100E16000C94730BE92F0E947B0958F3BA176207EB
:100E260073078407950720F079F4A6F50C94650BF3
:100E36000EF4E0950B2EBA2FA02D0B01B9019001EF
:100E46000C01CA01A0011124FF27591B99F0593F33
:100E560050F4503E68F11A16F040A22F232F342F7B
:100E66004427585FF3CF469537952795A795F040C9
:100E76005395C9F77EF41F16BA0B620B730B840BDE
:100E8600BAF09150A1F0FF0FBB1F661F771F881F96
:100E9600C2F70EC0BA0F621F731F841F48F48795EE
:100EA60077956795B795F7959E3F08F0B0CF9395E0
:0E0EB600880F08F09927EE0F979587950895FD
:100EC4001F920F920FB60F9211242F933F934F93BB
:100ED4008F939F93EF93FF9380911601882351F092
:100EE400E1E8F0E080818F7B80831092850010928E
:100EF400840023C0809186009091870090930B0119
:100F040080930A0180910A0190910B0143EA489F62
:100F14009001499F300D1124232F332784E690E05C
:100F2400821B930B9093090180930801E1E8F0E0A0
:100F3400808180648083808180839091160181E028
:100F4400892780931601FF91EF919F918F914F9183
:0E0F54003F912F910F900FBE0F901F90189598
:100F620006C019F416F40C94950B0C94E10A0E9435
:100F72008309B8F39923C9F3B6F39F57550B87FF3B
:100F82000E946C0B0024A0E640EA9001805856951E
:100F9200979528F4805C660F771F881F20F026172C
:100FA2003707480730F4621B730B840B2029312961
:100FB2004A2BA69517940794202531254A2758F7DE
:100FC200660F771F881F20F026173707480730F46F
:100FD200620B730B840B200D311D411DA09581F70F
:0E0FE200B901842F9158880F96958795089530
:100FF000EF92FF920F931F93CF93DF938C01FC012D
:101000001082A1E0B0E0E12CF12CE0ECF0E0C6ECC5
:10101000D0E090819923ECF78881282F30E0A3302D
:10102000B10594F4A901405351099A012E0D3F1DB9
:101030007901EE0CFF1C220F331F220F331F220FEA
:10104000331FE20EF31E04C0C901C097E80EF91E5B
:101050001196A430B105E9F681E0F8018083FB0127
:10106000F182E082DF91CF911F910F91FF90EF907D
:021070000895E1
:10107200E89409C097FB3EF4909580957095619530
:101082007F4F8F4F9F4F9923A9F0F92F96E9BB27E6
:101092009395F695879577956795B795F111F8CF62
:1010A200FAF4BB0F11F460FF1BC06F5F7F4F8F4FCD
:1010B2009F4F16C0882311F096E911C0772321F0C3
:1010C2009EE8872F762F05C0662371F096E8862F5B
:1010D20070E060E02AF09A95660F771F881FDAF7B2
:0A10E200880F9695879597F90895F9
:1010EC001F920F920FB60F9211248F939F93EF9331
:1010FC00FF93809104019091050101969093050155
:10110C00809304018091040190910501843691052E
:10111C00C9F41092050110920401809118018F5F9F
:10112C0080931801809118018C3319F410921801D6
:10113C0009C0809118018A3029F4E1E8F0E080813F
:10114C0085608083FF91EF919F918F910F900FBEDF
:06115C000F901F90189592
:101162000E94830988F09F5798F0B92F9927B751A9
:10117200B0F0E1F0660F771F881F991F1AF0BA9539
:10118200C9F714C0B13091F00E94650BB1E0089527
:101192000C94650B672F782F8827B85F39F0B93F19
:1011A200CCF3869577956795B395D9F73EF49095EC
:0E11B2008095709561957F4F8F4F9F4F0895E8
:1011C0000E94830910F40C94950BE894E0E0BB278F
:1011D0009F57F0F02AED3FE049EC06C0EE0FBB0F41
:1011E000661F771F881F28F0B23A620773078407CB
:1011F00028F0B25A620B730B840BE3959A9572F741
:10120000803830F49A95BB0F661F771F881FD2F77E
:0612100090480C94E30A73
:10121600DF93CF931F930F93FF92EF92DF927B01A1
:101226008C01689406C0DA2EEF010E949106FE0139
:10123600E894A5912591359145915591A6F3EF0135
:101246000E94FB06FE019701A801DA9469F7DF9078
:0E125600EF90FF900F911F91CF91DF910895BF
:101264000F931F93CF93DF938091C0008823B4F032
:10127400C4E0D0E000EC10E02FEF89E698E12150C3
:1012840080409040E1F700C000008EE20E94400BD5
:10129400F8018081882314F0219771F78091C600AA
:0A12A400DF91CF911F910F91089583
:1012AE00990F0008550FAA0BE0E8FEEF1616170669
:1012BE00E807F907C0F012161306E407F50798F0D1
:1012CE00621B730B840B950B39F40A2661F0232BEA
:1012DE00242B252B21F408950A2609F4A140A69566
:0812EE008FEF811D811D0895A1
:1012F60057FD9058440F551F59F05F3F71F04795C1
:10130600880F97FB991F61F09F3F79F087950895A5
:10131600121613061406551FF2CF4695F1DF08C0C4
:10132600161617061806991FF1CF869571056105E1
:04133600089408957A
:10133A00A1E21A2EAA1BBB1BFD010DC0AA1FBB1FCF
:10134A00EE1FFF1FA217B307E407F50720F0A21B41
:10135A00B30BE40BF50B661F771F881F991F1A94AE
:10136A0069F760957095809590959B01AC01BD01D8
:04137A00CF01089502
:10137E00DF93CF931F930F938B01EC01E8E6F0E020
:10138E000E940B090E94A30A9801AE018B01EC0189
:10139E0060E070E080E89FE30E94500B0E94B1076E
:1013AE009801AE010F911F91CF91DF910C94910690
:1013BE000E943209823361F018F4813331F00895BE
:1013CE00833349F0843351F008950E94270608951F
:1013DE000E94DD04089510921701089581E0809314
:0413EE001701089546
:1013F20084B18C6284B98CB582658CBD6FEF89E053
:101402000E94150B6091140161508BE00E94150B34
:1014120068E08AE00E94150B61E08CE00E94150BE7
:0214220008952B
:10142400F8940E94EF0A0E94B40A0E94C30A0E9420
:10143400800A0E94090B0E94F90980E18AB91BB84D
:1014440078940E942B0B0E942A030E94DF09FDCF8F
:10145400CF93DF93161617067CF4DC01680F791F0F
:10146400E0ECF0E0C6ECD0E0908195FFFDCF9D91DB
:0E1474009883A617B707C1F7DF91CF910895AF
:10148200052E97FB1EF400940E94480B57FD07D0CF
:101492000E949D0907FC03D04EF40C94480B509512
:0E14A2004095309521953F4F4F4F5F4F089575
:1014B000EF93E0FF07C0A2EA2AED3FE049EC5FEBC3
:1014C0000E94FB060E94A30A0F90039401FC90580F
:0814D000E0E9F0E00C946C0A65
:1014D8009F938F937F936F93FF93EF939B01AC013F
:1014E8000E94910BEF91FF910E940B092F913F9160
:0814F8004F915F910C94910BE0
:101500001092850010928400E1E8F0E08081806410
:101510008083AFE6B0E08C9181628C93808185609E
:041520008083089527
:101524009F939F770E94BF090F90002042F4905828
:10153400A2EA2AED3FE049E450E40E94FB060C9441
:02154400A30AF8
:10154600092E0394000C11F4882352F0BB0F40F4CB
:10155600BF2B11F460FF04C06F5F7F4F8F4F9F4F0B
:021566000895E6
:101568008BB18C608BB9E9E6F0E080818360808381
:0E1578008081846080838DB383608DBB089575
:1015860084B58E7F84BD84B58D7F84BD85B5877F08
:0E15960085BDEEE6F0E08081816080830895DF
:1015A400A29FB001B39FC001A39F700D811D1124A0
:0E15B400911DB29F700D811D1124911D08958F
:1015C2009F3F31F0915020F4879577956795B795B5
:0C15D200880F911D9695879597F9089554
:1015DE0055985D9AE8E6F0E0808184608083EDE6C0
:0A15EE00F0E08081806280830895A0
:1015F800992777FD05C005900D920197E1F70895A9
:0A16080001900D920197E1F708959B
:101612001092C50087E68093C40088E18093C100E0
:081622008EE08093C2000895E0
:10162A00CF93C62F2A980E94790B8C2F0E94790B90
:06163A002A9ACF910895E9
:10164000CF93C09114016FE08C2F0E94150BC150F5
:06165000D1F7CF910895CF
:1016560086E086BD85B5816085BD85B5826085BD20
:0616660085B585BD089565
:10166C001F920F920FB60F9211240F900FBE0F9076
:04167C001F9018950E
:10168000E0ECF0E0908195FFFDCF8093C6000895D7
:1016900090958095709561957F4F8F4F9F4F0895DE
:0E16A0005058BB27AA270E94FB060C94A30AF1
:0E16AE0000240A941616170618060906089559
:0E16BC0000240A94121613061406050608955B
:0E16CA00E894BB2766277727CB0197F9089590
:0E16D80091505040660F771F881FD2F708957B
:0C16E60097F99F6780E870E060E00895CD
:0A16F2008EBD0DB407FEFDCF089574
:0A16FC000E94570908F481E00895E8
:0A1706000E94E008E3950C94580AD5
:0A1710000E94570908F48FEF0895B6
:08171A000E944C050C94A30A87
:081722000E9491060C94A30A39
:06172A009FEF80EC089522
:041730000C94000015
:04173400DB0F49403E
:0217380032007D
:02173A006E003F
:01173C0001AB
:01173D0001AA
:00000001FF
